:02000000ED2EE3
:1000080070082000A2007108A10080318B1E1A28F8
:100018000B1D1A28212414302D02031C15287824BE
:10002800AD012D0AF0007008AD001A282208F00072
:060038002108F10009009F
:10003E007408F8027508031C750FF9027608031C84
:10004E00760FFA027708031C770FFB02F30D0730C9
:10005E00FC00730DF80DF90DFA0DFB0D7408731CF1
:10006E004628F8027508031C750FF9027608031C62
:10007E00760FFA027708031C770FFB025328F80756
:10008E0075080318750FF90776080318760FFA0727
:10009E0077080318770FFB07F30DFC0B3028720D52
:1000AE00F80DF90DFA0DFB0D7408731C6C28F8028F
:1000BE007508031C750FF9027608031C760FFA02F9
:1000CE007708031C770FFB027928F80775080318C9
:1000DE00750FF90776080318760FFA0777080318D5
:1000EE00770FFB07F20D0730FC00720DF80DF90DBE
:1000FE00FA0DFB0D7408721C9228F8027508031C89
:10010E00750FF9027608031C760FFA027708031CA6
:10011E00770FFB029F28F80775080318750FF9076C
:10012E0076080318760FFA0777080318770FFB0780
:10013E00F20DFC0B7C28710DF80DF90DFA0DFB0D6F
:10014E007408721CB828F8027508031C750FF902A2
:10015E007608031C760FFA027708031C770FFB0252
:10016E00C528F80775080318750FF90776080318E0
:10017E00760FFA0777080318770FFB07F10D073094
:10018E00FC00710DF80DF90DFA0DFB0D7408711CC4
:10019E00DE28F8027508031C750FF9027608031C99
:1001AE00760FFA027708031C770FFB02EB28F8078D
:1001BE0075080318750FF90776080318760FFA07F6
:1001CE0077080318770FFB07F10DFC0BC828700D8D
:1001DE00F80DF90DFA0DFB0D7408711C0429F802C7
:1001EE007508031C750FF9027608031C760FFA02C8
:1001FE007708031C770FFB021129F80775080318FF
:10020E00750FF90776080318760FFA0777080318A3
:10021E00770FFB07F00D0730FC00700DF80DF90D90
:10022E00FA0DFB0D7408701C2A29F8027508031CC0
:10023E00750FF9027608031C760FFA027708031C75
:10024E00770FFB023729F80775080318750FF907A2
:10025E0076080318760FFA0777080318770FFB074F
:10026E00F00DFC0B142970184A297408F80775084C
:10027E000318750FF90776080318760FFA07770833
:08028E000318770FFB070800BD
:10029600FB09FA09F909F809F80A0319F90A031911
:0802A600FA0A0319FB0A080023
:1002AE002000E703E7036708003C03186329E70310
:1002BE000000000000005A290000000000000000AD
:0402CE000000080024
:1002D20020002230FC00F801F901FA01FB01FC03C5
:1002E20003199E290310FB0CFA0CF90CF80CF30C01
:1002F200F20CF10CF00C031C7029FC030319902979
:100302007408F80775080318750FF90776080318BB
:10031200760FFA0777080318770FFB07742974081A
:10032200F80775080318750FF90776080318760F92
:0C033200FA0777080318770FFB07080094
:0E033E004030F0001F30F100F201F301080022
:10034C007408003A031DBF297508003A031DBF2924
:10035C007608003A031DBF297708003A031DBF2910
:10036C00FF30F000FF30F100FF30F2007F30F3007F
:10037C00572A2000FC01F71BFC0AFD01FB01FA01C6
:10038C00F901F80173087204710470040319522AFC
:10039C0073087706A000A01BFD09F71FE029F409DC
:1003AC00F509F609F709F40A0319F50A0319F60A0F
:1003BC000319F70AF31FED29F009F109F209F30902
:1003CC00F00A0319F10A0319F20A0319F30A730864
:1003DC007704A000A01B0E2A1F20FC1B2B2AFD1F3C
:1003EC00522AF009F109F209F309F00A0319F10A8A
:1003FC000319F20A0319F30AF809F909FA09FB09B6
:10040C00F80A0319F90A0319FA0A0319FB0A522A02
:10041C00F71F252AF31B1F2A7308FB007208FA002A
:10042C007108F9007008F800F301F201F101F00114
:10043C00F529F301F201F101F001F00A0034F3099E
:10044C00F209F109F009FC17F229F80A0319F90A63
:10045C000319FA0A0319FB0A74087802031DF5291B
:10046C0075087902031DF52976087A02031DF52912
:10047C0077087B02031DF529FB01FA01F901F8014C
:10048C00F00A0319F10A0319F20A0319F30AF31F0C
:10049C00F529A0012016FF34A0017C1C562A4B2103
:0404AC00003E080006
:1004B000C03021001505F000173070049500F830A9
:0E04C00020009500F830C9000B118B160800C3
:1004CE002E30F1000030F20020004C08F107031826
:1004DE00F20A71088400720885000008F000F00A24
:1004EE00710886007208870070088100F301730896
:1004FE000E3C031C912A73084C060319912A2E30C8
:10050E00860000308700730886070318870A81016A
:10051E00F30A7E2A2E308400003085004C088407B2
:10052E000318850A0008F10071080A3C0318AA2A6C
:10053E004C08A6002E308600003087004C08860737
:08054E000318870A810108006F
:1005560020004C08CA004D08CB004E08F0000130C0
:10056600F20070080319BA2AF235FF3EB52A72085E
:10057600C6007209C5004F08F1000130F00071088D
:100586000319C82AF035FF3EC32A7008C800F009CF
:100596007008C70080304C07840000304D3D850050
:1005A6007208800470088005BE0154080319DC2A0D
:1005B600BE09803084023E08003A0319E52A47083E
:1005C6008005E72A480880049F21E830F4000330BC
:1005D600F500F601F70169217008DF007108E000F7
:1005E6007208E1007308E2005F08D5006008D600D3
:1005F6006108D7006208D8005008F0005108F100E1
:100606005208F2005308F300F035F10DF20DF30D28
:10061600F035F10DF20DF30D0A30F400F501F60197
:10062600F70169217008D9007108DA007208DB0049
:100636007308DC007008F4007108F5007208F60013
:100646007308F7005F08F0006008F1006108F20027
:100656006208F300A6217008DD007108DE0071084B
:10066600F400F5017408750403193C2B0230F00000
:100676008D2B5D08BD005908F4005A08F5005B088B
:10068600F6005C08F7005508F0005608F100570818
:10069600F2005808F300A6217808F0007908F10066
:1006A6007A08F2007B08F3007008D5007108D600BE
:1006B6007208D7007308D8005908F5005A08F600E2
:1006C6005B08F7005C08F800F837F70CF60CF50C39
:1006D60080307806F400803073067402031D7D2B8B
:1006E60072087702031D7D2B71087602031D7D2B90
:1006F600700875020318802BBD0A3D08F100F1361B
:100706007108C1000730710203188C2B0130F0000C
:060716008D2BF00108002C
:10071C0001302000E6003E08E5064A0884004B083C
:10072C0085003E08003A03199E2B48088004A02B34
:10073C00470880053D08E7005721E50966080319BD
:10074C00BD2B66086505F000031DAF2B480880041F
:10075C00B12B47088005E63502303D02E7005721F2
:10076C00000000000000000000000000A42B3E0868
:10077C00003A0319C42B47088005C62B480880048F
:08078C003D08E70057210800B9
:1007940020002B08013A031DD02B0C152B08003A1E
:0807A400031DD52B0C11080008
:1007AC0020008C1EDA2B2C140E1CDD2BAC148E1C92
:1007BC00E02B2C150E1DE32BAC158E1DE62B2C16E9
:1007CC008E1EE92BAC160C1DEC2B2C170E1EEF2BD2
:0407DC00AC1708004E
:0807E000200049089500080003
:1007E80072302100990020008C0122008C01230026
:1007F8008C01203021008C0020008E0123008E0106
:1008080022008E01073021008E0020000C118E126C
:1008180017302100970058220C30CC000030CD0052
:100828000130CE00CF018030D0002530D100D20178
:0A083800D301D401AB228B17080096
:10084200F0230B1164004008043C031D2A2C3F08CE
:10085200183C0318472CBF01C00101302907F000E2
:1008620000302A3DF1007008A9007108AA00D623C1
:100872002C30E3000030E400630884006408850043
:100882000008E5008E232508E5008E234308023C7C
:10089200031D4D2C4208003C03185A2CC201C3010F
:1008A2002808013A031D592C0130AB06CA235A2CE1
:1008B2000C1101303F07F0000030403DF10070089C
:1008C200BF007108C00001304207F0000030433D14
:0C08D200F1007008C2007108C3000800AB
:1008DE0012001E00F003031D6F2CF103031D6F2C7D
:0208EE00080000
:0608F00020004414080082
:1008F6002000A6010E19812C7014822C70108E18FF
:10090600862C0314872C0310701C8D2C031C8D2C35
:1009160070148E2C70100E18922C0314932C031046
:10092600701C992C031C992C70149A2C7010701C36
:10093600A02C8C1EA02C0314A12C0310031CA72C86
:100946000130CC006722462E8E18AB2C0314AC2C3B
:1009560003100E1DB22C031CB22C7014B32C701095
:100966000E18B72C0314B82C0310701CBE2C031CD5
:10097600BE2C7014BF2C7010701CC52C8C1EC52C80
:100986000314C62C0310031CCC2C0230CC006722A7
:10099600462E0E19D02C7014D12C70108E18D52C12
:1009A6000314D62C0310701CDC2C031CDC2C7014D6
:1009B600DD2C7010701CE32C0E1CE32C0314E42CAD
:1009C6000310031CEA2C8C1EEA2C7014EB2C7010FE
:1009D600701CF12C0330CC006722462E0E19F52C24
:1009E6000314F62C0310031CFC2C8E1CFC2C701418
:1009F600FD2C7010701C032D0E1C032D0314042DEA
:100A06000310031C0A2D8C1E0A2D70140B2D70105A
:100A1600701C112D0430CC006722462E0E1D172D9A
:100A26008E1C172D0314182D0310031C1E2D0E1CCF
:100A36001E2D70141F2D7010701C252D8C1E252D3B
:100A46000314262D0310031C2C2D0530CC00672221
:100A5600462E0E19302D0314312D0310031C372D8D
:100A66008E1C372D7014382D70100E183C2D031463
:100A76003D2D0310701C432D031C432D7014442D73
:100A86007010701C4A2D8C1E4A2D03144B2D03101A
:100A9600031C512D0630CC006722462E8E18552D8C
:100AA6000314562D03100E1D5C2D031C5C2D7014B3
:100AB6005D2D70100E18612D0314622D0310701C2D
:100AC600682D031C682D7014692D70108C1A6D2DFD
:100AD60003146E2D0310701C742D031C742D7014DA
:100AE600752D7010701C7B2D0730CC006722462EAA
:100AF6000E197F2D7014802D70108E18842D0314FE
:100B0600852D0310701C8B2D031C8B2D70148C2DC2
:100B16007010701C922D0E1C922D7014932D701057
:100B26008C1A972D0314982D0310701C9E2D031CF0
:100B36009E2D70149F2D7010701CA52D0830CC00B2
:100B46006722462E0E19A92D7014AA2D70108E1824
:100B5600AE2D0314AF2D0310701CB52D031CB52D3F
:100B66007014B62D70100E18BA2D0314BB2D031079
:100B7600701CC12D031CC12D7014C22D70108C1A4F
:100B8600C62D0314C72D0310701CCD2D031CCD2DAF
:100B96007014CE2D7010701CD42D0930CC00672235
:100BA600462E0E19D82D0314D92D0310031CDF2D44
:100BB6008E1CDF2D7014E02D70100E18E42D03141A
:100BC600E52D0310701CEB2D031CEB2D7014EC2D82
:100BD60070108C1AF02D0314F12D0310701CF72DD4
:100BE600031CF72D7014F82D7010701CFE2D0A30A2
:100BF600CC006722462E0E1D042E8E1C042E0314D6
:100C0600052E0310031C0B2E0E1C0B2E70140C2E1F
:100C160070108C1A102E0314112E0310701C172E30
:100C2600031C172E7014182E7010701C1E2E0B30FD
:100C3600CC006722462E0E19222E0314232E0310F3
:100C4600031C292E8E1C292E70142A2E7010701C3F
:100C5600302E0E1C302E7014312E70108C1A352E3C
:100C66000314362E0310701C3C2E031C3C2E7014ED
:100C76003D2E7010701C432E0C30CC006722462E81
:0A0C86000E30CC0067226400080065
:100C900020002608013A03195A2E2608063A03199D
:100CA0005A2E2608093A03195A2E26080A3A031919
:100CB0005A2E5D2E0130A8005E2EA8012608083AA3
:100CC00003196B2E26080B3A03196B2E26080C3AD3
:100CD00003196B2E6D2E8E156E2E8E1126080A3A74
:100CE000031DAB2EA901AA018E1600302A02031D96
:100CF0007B2E0630290203187E2E752E8E120130AF
:100D0000A7000E19852E0314862E0310031C8C2EAB
:100D10008E1C8C2E71148D2E71100E18912E0314B2
:100D2000922E0310711C982E031C982E7114992E6C
:100D300071108C1A9D2E03149E2E0310711CA42E6C
:100D4000031CA42E7114A52E7110711CA92E640011
:100D5000812EA801E42E26080C3A031DE32EA901DA
:100D6000AA018E1600302A02031DB82E0630290271
:100D70000318BB2EB22E8E120130A7000E19C22E00
:100D80000314C32E0310031CC92E8E1CC92E71140C
:100D9000CA2E7110711CD02E0E1CD02E7114D12EA3
:100DA00071108C1AD52E0314D62E0310711CDC2E54
:100DB000031CDC2E7114DD2E7110711CE12E6400F9
:100DC000BE2EA801E42E8E1226080E3A031DEC2E2C
:0A0DD000A8018E118E120C1108000C
:100DDA001A27F423A301A4017B242608003C031844
:100DEA00F92E2608A5004826A6016400F12EFC2E3D
:100E340000308400873085001A30F0000130F10062
:0C0E440023308600003087006F24080077
:040E00000034003486
:020E04000034B8
:020E06000034B6
:020E08000034B4
:020E0A000034B2
:040E0C00003400347A
:020E10000134AB
:020E12000034AA
:020E14000034A8
:100E1600003400340034003400340034003400342C
:0E0E2600003400340034003400340034003452
:020000040001F9
:04000E00CC39FF1FCB
:00000001FF
