:020000040000FA
:10000000232DFF3FFF3FFF3F70082000A500710830
:10001000A4007408A3007808A2007C08A100803125
:1000200064008B1E16280B1D1628C4242508F0001A
:100030002408F1002308F4002208F8002108FC003D
:100040000900FB09FA09F909F809F80A0319F90A7C
:100050000319FA0A0319FB0A08002000F801083006
:10006000FC00700DF80D7408F80203183928F80721
:100070000310F00DFC0B312808007408F802750815
:10008000031C750FF9027608031C760FFA02770835
:10009000031C770FFB02F30D0730FC00730DF80D06
:1000A000F90DFA0DFB0D7408731C6428F80275082D
:1000B000031C750FF9027608031C760FFA02770805
:1000C000031C770FFB027128F80775080318750FDA
:1000D000F90776080318760FFA0777080318770FE1
:1000E000FB07F30DFC0B4E28720DF80DF90DFA0D00
:1000F000FB0D7408731C8A28F8027508031C750F21
:10010000F9027608031C760FFA027708031C770FB2
:10011000FB029728F80775080318750FF90776088A
:100120000318760FFA0777080318770FFB07F20D0D
:100130000730FC00720DF80DF90DFA0DFB0D740877
:10014000721CB028F8027508031C750FF9027608B6
:10015000031C760FFA027708031C770FFB02BD28F9
:10016000F80775080318750FF90776080318760F56
:10017000FA0777080318770FFB07F20DFC0B9A2894
:10018000710DF80DF90DFA0DFB0D7408721CD628CF
:10019000F8027508031C750FF9027608031C760F28
:1001A000FA027708031C770FFB02E328F8077508AB
:1001B0000318750FF90776080318760FFA07770802
:1001C0000318770FFB07F10D0730FC00710DF80DD8
:1001D000F90DFA0DFB0D7408711CFC28F802750866
:1001E000031C750FF9027608031C760FFA027708D4
:1001F000031C770FFB020929F80775080318750F10
:10020000F90776080318760FFA0777080318770FAF
:10021000FB07F10DFC0BE628700DF80DF90DFA0D3A
:10022000FB0D7408711C2229F8027508031C750F58
:10023000F9027608031C760FFA027708031C770F81
:10024000FB022F29F80775080318750FF9077608C0
:100250000318760FFA0777080318770FFB07F00DDE
:100260000730FC00700DF80DF90DFA0DFB0D740848
:10027000701C4829F8027508031C750FF9027608EE
:10028000031C760FFA027708031C770FFB0255292F
:10029000F80775080318750FF90776080318760F25
:1002A000FA0777080318770FFB07F00DFC0B3229CC
:1002B000701868297408F80775080318750FF9078E
:1002C00076080318760FFA0777080318770FFB07ED
:1002D00008002000D903D9035908003C03187529E8
:1002E000D9030000000000006C290000000000009D
:1002F0000000000008002000D60103305602031859
:100300008B295608540786000030553D8700203061
:100310008100D60A7D295608540786000030553DD5
:1003200087008101D60356085407D7000030553D99
:10033000D8000A30F4005308F0002D207808F000AF
:100340003030F00757088600580887007008810091
:100350000A30F4005308F0002D207008D300700814
:10036000003A031DB429B629D603932908000130A9
:100370002000D4003508D3063808840039088500E9
:100380003508003A0319C72934088004C9293308FD
:1003900080053708D9006921D30954080319E629D3
:1003A00054085305F000031DD82934088004DA29C5
:1003B00033088005D43502303702D90069210000A6
:1003C00000000000000000000000CD293508003AC0
:1003D0000319ED2933088005EF2934088004370814
:1003E000D900692108007408003A031D0C2A750819
:1003F000003A031D0C2A7608003A031D0C2A7708E0
:10040000003A031D0C2AFF30F000FF30F100FF30EE
:10041000F2007F30F300A42A2000FC01F71BFC0A45
:10042000FD01FB01FA01F901F8017308720471047E
:10043000700403199F2A73087706A000A01BFD090A
:10044000F71F2D2AF409F509F609F709F40A03192B
:10045000F50A0319F60A0319F70AF31F3A2AF009F5
:10046000F109F209F309F00A0319F10A0319F20A72
:100470000319F30A73087704A000A01B5B2A3D2030
:10048000FC1B782AFD1F9F2AF009F109F209F309E4
:10049000F00A0319F10A0319F20A0319F30AF80919
:1004A000F909FA09FB09F80A0319F90A0319FA0A02
:1004B0000319FB0A9F2AF71F722AF31B6C2A730881
:1004C000FB007208FA007108F9007008F800F301E7
:1004D000F201F101F001422AF301F201F101F00110
:1004E000F00A0034F309F209F109F009FC173F2A78
:1004F000F80A0319F90A0319FA0A0319FB0A74081E
:100500007802031D422A75087902031D422A7608E3
:100510007A02031D422A77087B02031D422AFB014F
:10052000FA01F901F801F00A0319F10A0319F20AB4
:100530000319F30AF31F422AA0012016FF34A00179
:100540007C1CA32A2120003E08004030F0001F3010
:10055000F100F201F301080020002230FC00F80154
:10056000F901FA01FB01FC030319E12A0310FB0C5A
:10057000FA0CF90CF80CF30CF20CF10CF00C031C57
:10058000B32AFC030319D32A7408F8077508031863
:10059000750FF90776080318760FFA07770803181E
:1005A000770FFB07B72A7408F80775080318750F4B
:1005B000F90776080318760FFA0777080318770FFC
:1005C000FB07080030302000BC00BD01BE01300830
:1005D000D3003C30D4000030D5007B213D08D3004F
:1005E000B7213E08D300B7213A30D300B7212E08F7
:1005F000D3003C30D4000030D5007B213D08D3002F
:10060000B7213E08D300B7213A30D300B7212B08D9
:10061000D3003C30D4000030D5007B213D08D3000E
:10062000B7213E08D300B7210D30D300B7212708EA
:10063000D3003C30D4000030D5007B213D08D300EE
:10064000B7213E08D300B7213A30D300B72126089E
:10065000D3003C30D4000030D5007B213D08D300CE
:10066000B7213E08D300B7210D30D300B7210D309C
:10067000D300B7210800173021009500F830200082
:1006800095000B118B16080020000E128E12AC0183
:10069000AD01AB013B30AE00B001AF010130A700AE
:1006A0000130A600080020003C08B8003D08B90051
:1006B0003E08F0000130F20070080319622BF23599
:1006C000FF3E5D2B7208BB007209BA003F08F100C3
:1006D0000130F00071080319702BF035FF3E6B2BD1
:1006E0007008B400F0097008B30080303C07840043
:1006F00000303D3D85007208800470088005B5011A
:1007000044080319842BB509803084023508003A67
:1007100003198D2B330880058F2B34088004A52204
:10072000E830F4000330F500F601F701AC22700860
:10073000CF007108D0007208D1007308D2004F08B2
:10074000C5005008C6005108C7005208C80040083C
:10075000F0004108F1004208F2004308F300F035D0
:10076000F10DF20DF30DF035F10DF20DF30D0A3030
:10077000F400F501F601F701AC227008C900710818
:10078000CA007208CB007308CC007008F40071082E
:10079000F5007208F6007308F7004F08F0005008E3
:1007A000F1005108F2005208F300F3217008CD0067
:1007B0007108CE007108F400F5017408750403197E
:1007C000E42B0230F000352C4D08B7004908F40046
:1007D0004A08F5004B08F6004C08F7004508F00001
:1007E0004608F1004708F2004808F300F3217808B2
:1007F000F0007908F1007A08F2007B08F300700835
:10080000C5007108C6007208C7007308C80049080F
:10081000F5004A08F6004B08F7004C08F800F837D6
:10082000F70CF60CF50C80307806F4008030730677
:100830007402031D252C72087702031D252C7108F4
:100840007602031D252C700875020318282CB70AA0
:100850003708F100F1367108B6000730710203184D
:10086000342C0130F000352CF001080020000E1867
:100870003F2C290AF0007008A900B201B1018E18BE
:10088000472C320AF0007008B200A901B1010E191C
:100890004F2C310AF0007008B100A901B2012908FB
:1008A000143C0318612C260AF0007008A6002608E4
:1008B0003B3C03185D2C0130A600A9010E18612CE9
:1008C0005E2C3208143C0318732C270AF0007008C1
:1008D000A7002708173C03186F2C0130A700B201AE
:1008E0008E18732C702C3108143C03187C2C442374
:1008F000B1010E197C2C792C080020002808013A3F
:10090000031D842CE222A8012A08013A031D8F2C22
:100910008E1626082F02031C8F2C8E12AA010800A7
:1009200072302100990020008C0122008C012300EC
:100930008C01203021008C0020008E0123008E01CC
:1009400022008E01073021008E0044231730210041
:1009500097003B230C30BC000030BD000130BE00CE
:10096000BF018030C0002530C100C201C301C401F5
:1009700053238B17080012001E00F003031DBB2C2D
:10098000F103031DBB2C0800F830200095000B116B
:1009900001302C07F00000302D3DF1007008AC0054
:1009A0007108AD002D08033C031DD82C2C080C3C0D
:1009B0000318222DAC01AD010530F4002B08F00026
:1009C0002D207808F0007008003A031DEC2C01304F
:1009D000A8002808DA00EF2CA8012808DA002B0A62
:1009E000F0007008AB002B083B3C0318222DAB0134
:1009F0002F0AF0007008AF002E0AF0007008AE0059
:100A00002E083B3C0318222DAE01AF012708F4004D
:100A10003008F0002D207808F0007008003A031D1F
:100A2000162D0130AA002A08DB00192DAA012A0878
:100A3000DB00300AF0007008B0003008173C0318E3
:100A4000222DB00108003A259024E2227D2436248C
:100A5000262D292DFF3FFF3FFF3F01340134003495
:100A600000340034003400340034003400340034E6
:100A7000003400342D308400853085000D30F000C6
:100A80000130F1002630860000308700BB240800CA
:100A9000FF3FFF3FFF3FFF3FFF3FFF3FFF3FFF3F66
:100AA000FF3FFF3FFF3FFF3FFF3FFF3FFF3FFF3F56
:100AB000FF3FFF3FFF3FFF3FFF3FFF3FFF3FFF3F46
:100AC000FF3FFF3FFF3FFF3FFF3FFF3FFF3FFF3F36
:020000040001F9
:04000E00E73FFF1FAA
:08000000FF3FFF3FFF3FFF3F00
:00000001FF
