:040000008A15822DAE
:06000600000000000800EC
:10000C000F3083120313FC004730FD00FD0B0C284E
:0A001C00FC0B0C2800000000080097
:0E002600213083120313FD00FD0B1728080084
:10003400073084000008000883120313F0007012D4
:06004400700880000800B6
:10004A00073084000008000883120313F000F0113F
:06005A00700880000800A0
:1000600083120317E61B37280313051339280313DC
:1000700005170317661B3F28031385134128031335
:1000800085170317E61A4728031385124928031317
:1000900085160317661A4F280313051251280313F8
:1000A0000516D518552805145628051005150320E2
:1000B00005110317E6195F280313051361280313BD
:1000C0000517031766196728031385136928031397
:1000D00085170317E6186F28031385127128031379
:1000E000851603176618772803130512792803135A
:1000F0000516D5187D2805147E2805100515032042
:0E0100000511D51C852806208628132008002E
:0E010E008312031339088A00380882000800A3
:10011C0083160313071603200320871503200320DF
:10012C001A2083160712032003202520831687111B
:02013C000800B9
:10013E0083120313D51003176008E6003020D51480
:02014E000800A7
:100150001A208316071203200320871583125510D7
:100160008719B628551CB528B628B02803200320C7
:1001700003200320032003200320032083160716F7
:060180000320032008002B
:1001860083120317E201E3018030E4000030E5004A
:10019600640865040319F12803200320831603135A
:1001A6000716032003208715831255108719DF28A9
:1001B600551CDE28DF28D928071EE6280317640801
:1001C600E2046508E3040320032025208316871133
:1001D60083120317E50CE40CE513CB2883160313EF
:1001E600071603200320831203176008610403190E
:1001F600FF281A20831607128316031303200320F1
:1002060087158312551087190C29551C0B290C29A3
:1002160006290320032025208316871103200320A7
:100226001A2083160712831203176208F0000800CB
:10023600013083120317E3000030E4008030E10050
:10024600E2016108620403195429032003200320F4
:10025600032025208316871103200320831203170A
:1002660061086005F00000306205F1007008710455
:100276000319412983160313071644291A208316E6
:1002860007120320032087158312551087194F295B
:10029600551C4E294F2949290317E20CE10CE2139C
:1002A6002429E301E4010320032025208316871176
:1002B60003200320071603200320032003208715AD
:1002C6008312551087196B29551C6A296B296529D4
:1002D6000317E301E401032003200313071E752916
:1002E60003176314032003200320032003200320A5
:1002F60003200320032003200320032003200320E0
:10030600032003202520831687111A20831607123F
:0A031600831203176308F0000800CB
:1003200083120313FB01FA01F9018030F800F10C8C
:10033000F00C031CA4297408F90775080318750F3D
:10034000FA070318FB0A0310F01FAC297408FA0718
:1003500075080318750FFB07FB0CFA0CF90CF80C69
:10036000031C97297B08F3007A08F2007908F10052
:060370007808F00008000F
:1003760083120313F3010F3073020318C82973089D
:10038600413E84008001F30ABE29F3017308031776
:100396005C07F0005D080318013EF10070080313C6
:1003A600B8007108B90087208A110A12F000700897
:1003B6000319F7297308413EF200730803175C0717
:1003C600F0005D080318013EF10070080313B80041
:1003D6007108B90087208A110A12F0007208840099
:1003E60070088000F30AC9297308413E8400800121
:0203F6000800FD
:1003F8000E2A803083120317DC00212AC030DC006B
:10040800212A9430DC00212AD430DC00212A8030D3
:10041800DC00212A831203175C08013A0319FD291D
:100428005C08023A0319022A5C08033A0319052AF0
:100438005C08043A0319082A0B2A5D03F0005C08DB
:10044800F0077008DC007008E6003020D5100317AC
:10045800DF015F085E078400000803193C2A5F0873
:100468005E0784000008E0009F200317DF0A2D2A9A
:060478000313D514080077
:10047E008E200730F200831203175D08F0005E082D
:10048E00F10072080319502AF10CF00CF113FF3E23
:10049E00492A0E30F00570085C04E0001B21FF3085
:1004AE005D05E0001B215F08E0001B21A8200D3038
:1004BE00FC00FB30FD00FD0B622AFC0B622A0000E3
:0404CE000000080022
:1004D200831203137008F100F0010830FC00710868
:1004E200F40C0318782AFC0B712AF1010034031072
:1004F2007D2AF40C0318F107F10CF00CFC0B7A2A9C
:020502000800EF
:1005040083120317DF018E200730F20083120317D2
:100514005D08F0005E08F10072080319962AF10CD8
:10052400F00CF113FF3E8F2A0E30F00570085C04C6
:10053400E0001B21FF305D05E0001B218E2001300F
:10054400831203175C04E0001B21E001E101C320D6
:100554007008DF00A8200D30FC00FB30FD00FD0B0F
:10056400B12AFC0BB12A00000000831203175F08B4
:04057400F00008008B
:10057800CE2A803083120317DC00E12AC030DC0069
:10058800E12A9430DC00E12AD430DC00E12A803012
:10059800DC00E12A831203175C08013A0319BD2A1B
:1005A8005C08023A0319C22A5C08033A0319C52AEF
:1005B8005C08043A0319C82ACB2A5D03F0005C08DA
:1005C800F0077008DC000313D51470080317E60061
:1005D8003020D51003175E08E6003020D514080037
:1005E80083120313F8010830FC00700DF80D74082D
:1005F800F8020318012BF8070310F00DFC0BF92A79
:020608000800E8
:10060A0083120317D901DA01861D0E2B061C0E2B45
:10061A000F2B092B03132008013A031D182B03176C
:10062A00D701D8014D2B03132008023A031D222BB0
:10063A00A9300317D700D8014D2B03132008033A1A
:10064A00031D2D2B52300317D7000130D8004D2B34
:10065A0003132008043A031D382BFB300317D70075
:10066A000130D8004D2B03132008053A031D432BF4
:10067A0002300317D7000230D8004D2B031320088D
:10068A00063A031D4D2B09300317D7000230D80054
:10069A008030033AF0008030031320067002031CF6
:1006AA00742B031755083A3EDB00A030DC000730F4
:1006BA00F0005608F4006922700803175707DD0096
:1006CA0058080318013E7107DE005508DD070318B4
:1006DA00DE0A82225B08840070088000862B0317DA
:1006EA0055083A3EDB00A030DC0055085707DD000C
:1006FA0058080318013EDE0082225B088400700855
:10070A00800055083A3E84008030043AF000803078
:10071A0000067002031C9D2B55083A3E8400803067
:10072A000006F0008030003A7002031C9D2BA12BBA
:10073A0055083A3E8400800155083A3E8400000874
:10074A00D9005A08003A031D2D2C0130E60030204A
:10075A0000300317DC001030DD000430F200031310
:10076A002008F0000030F01BFF30F1007208031976
:10077A00C32BF00DF10D7010FF3EBC2B7008031750
:10078A00DC0771080318013EDD070230DC07031895
:10079A00DD0ABB2101300317DC000230DD004130E5
:1007AA00DE00FC211430F0000030F1000317590874
:1007BA00F400F50190217008D43E0317DC001030D4
:1007CA000318013E7107DD00BB2102300317DC006C
:1007DA000130DD004130DE00FC2101300317DC006E
:1007EA001030DD005E30DE00BC2202300317DC0070
:1007FA001030DD007630DE00BC22861C0B2C061D74
:10080A000B2C861D0B2C061C0B2C022C8618132C69
:10081A000317D90A8618122C0F2C212C0317061934
:10082A001B2CD90306191A2C172C212C86191E2CBD
:10083A002D2C0618212C632C003059020318272C62
:10084A000430D9005908043C03182C2CD901A62BD2
:10085A00061C322C861D322C332C2D2C8030033A68
:10086A00F0008030031320067002031C552CA030C0
:10087A000317DC000730F0005608F40069227008FC
:10088A0003175707DD0058080318013E7107DE00F9
:10089A005508DD070318DE0A5908DF003F22632CDA
:1008AA00A03083120317DC0055085707DD005808EB
:0E08BA000318013EDE005908DF003F2208004F
:1008C80083120317D201D3010130E6003020061C41
:1008D800702C861D702C712C6B2C03175308003A52
:1008E800031D0F2D0130E600302000300317DC0017
:1008F8001030DD000430F20003132008F00000304F
:10090800F01BFF30F100720803198F2CF00DF10D68
:100918007010FF3E882C70080317DC077108031855
:10092800013EDD070230DC070318DD0ABB21013078
:100938000317DC000230DD004130DE00FC2102300C
:100948000317DC000130DD0031305207DE00BC2225
:1009580002300317DC000230DD002E30DE00BC223E
:10096800E4300317DC000F30DD00BB210230031731
:10097800DC000330DD004130DE00FC2102300317CB
:10098800DC000930DD0031305207DE00BC220130C6
:100998000317DC001030DD005E30DE00BC220230C0
:1009A8000317DC001030DD007630DE00BC22861C28
:1009B800E42C061DE42C861DE42C061CE42CDB2C00
:1009C8008618EC2C0317D20A8618EB2CE82C012D7C
:1009D80003170619F42CD2030619F32CF02C012D59
:1009E8008619FC2C5208D5005108D6000523012D84
:1009F800831203130618012D152D831200300317D7
:100A080052020318092D0430D2005208043C03187E
:100A18000E2DD201712C061C142D861D142D152D9A
:040A28000F2D080086
:100A2C00831203175108F2005308F0005408F10028
:100A3C000130D302031CD4037008710403192C2D4C
:100A4C007208840052088000F20A1A2D5108F00036
:020A5C00080090
:100A5E0083120317D3010330530203183D2D53089D
:100A6E005207840020308000D30A322D53085207DB
:100A7E0084008001D30353085207D4000A30F400D7
:100A8E005108F000F4227808F0003030F007031718
:100A9E0054088400700880000A30F4005108F000F9
:100AAE00F42270080317D1007008003A031D602D60
:080ABE00622DD303422D080054
:100AC60083120313DB018619692D662D861DE12D20
:100AD60001300317E6003020ED300317DC000F303D
:100AE600DD00BB2101300317DC000630DD0041309C
:100AF600DE00FC2100300317DC001030DD0004307E
:100B0600F20003135B08F0000030F01BFF30F10029
:100B160072080319932DF00DF10D7010FF3E8C2D08
:100B260070080317DC0771080318013EDD07BB21B7
:100B360002300317DC000130DD004130DE00FC210D
:100B460001300317DC001030DD005E30DE00BC2211
:100B560002300317DC001030DD007630DE00BC22E8
:100B6600861CBC2D061DBC2D861DBC2D061CBC2D51
:100B7600B32D8618C32DDB0A8618C22DBF2DCD2DA9
:100B86000619CA2DDB030619C92DC62DCD2D06184B
:100B9600CD2DE32D80305B06F0008030003A7002E8
:100BA6000318D72D0630DB008030063AF00080307F
:100BB6005B0670020318E02DDB01692D5B08A000BF
:020BC600080025
:100BC80083120313DD01DE01DF01E001E1010130E1
:100BD8000317E60030205C08023A031D042E173084
:100BE800DD0070300317DC001030DD00BB21013060
:100BF8000317DC000130DD004130DE00FC21572EF8
:100C08005C08013A031D192E3B30DD0084300317C0
:100C1800DC001030DD00BB2101300317DC0001309F
:100C2800DD004130DE00FC21572E5C08043A031D2C
:100C38002E2E1E30DD0098300317DC001030DD004A
:100C4800BB2101300317DC000130DD004130DE003C
:100C5800FC21572E5C08053A031D432E0C30DD009D
:100C6800AC300317DC001030DD00BB210130031766
:100C7800DC000130DD004130DE00FC21572E5C082D
:100C8800063A031D572E6330DD00C0300317DC0021
:100C98001030DD00BB2101300317DC000130DD001E
:100CA8004130DE00FC2186195A2E572E5E3003177C
:100CB800D1003030D2000230D3000030D4001625E5
:100CC80003135B080317D1005E30D2002F250230D2
:100CD800DC000130DD005F30DE00FC2186187E2E4E
:100CE800DB0A5B085D0203187A2EDB0186187D2E6D
:100CF8007A2E8E2E06198B2EDB035B085D020318F5
:100D0800872E5D08DB0006198A2E872E8E2E061880
:100D18008E2E902E86195A2E061C952E861D952EDF
:100D2800962E902ED0300317DC0003135C080317AF
:100D3800DD00DE010A30F40003135B08F000F42242
:100D48000430F1007008E200E30171080319B12EC4
:100D5800E20DE30D6210FF3EAA2E0A30F4005B0894
:100D6800F000F4227808F000700862040317DF002E
:040D78003F2208000E
:100D7C0083120313DB01DC01061CC72E861DC72E54
:100D8C00C82EC22E2008003A031DFB2E013003177B
:100D9C00E600302078300317DC001130DD00BB2179
:100DAC0001300317DC000130DD004130DE00FC2196
:100DBC008C300317DC001130DD00BB21023003172F
:100DCC00DC000130DD004130DE00FC210630FB0090
:100DDC001330FC00AD30FD00FD0BF22EFC0BF22E9F
:100DEC00FB0BF22E00000000BA2F2008013A031969
:100DFC00082F2008023A0319082F2008033A031978
:100E0C00082FAA2F5C08003A031DA32F01300317EB
:100E1C00E60030200430F2002008F0000030F01B17
:100E2C00FF30F10072080319202FF00DF10D701036
:100E3C00FF3E192F7008003E0317DC00103003181A
:100E4C00013E7107DD000230DC070318DD0ABB210F
:100E5C0001300317DC000230DD004130DE00FC21E4
:100E6C000D30F0000030F1005B08F4000030F41B92
:100E7C00FF30F50090217008EA3E0317DC000D30BE
:100E8C000318013E7107DD00BB2102300317DC00A3
:100E9C000130DD004130DE00FC2101300317DC00A5
:100EAC001030DD005E30DE00BC2202300317DC00A7
:100EBC001030DD007630DE00BC22861C6C2F061D47
:100ECC006C2F861D6C2F061C6C2F632F8618732FAE
:100EDC00DB0A8618722F6F2F8D2F06197A2FDB03E2
:100EEC000619792F762F8D2F8619882F5B08183AC3
:100EFC00031D832F0130DC00872F5B080317D10003
:100F0C0064248D2F8312031306188D2FBA2F83128E
:100F1C00031380305B06F0008030003A7002031837
:100F2C00992F1830DB008030183AF00080305B06C7
:100F3C0070020318A22FDB01082F061CA82F861D98
:100F4C00A82FA92FA32FBA2F2008043A0319B72FC3
:100F5C002008053A0319B72F2008063A0319B72FB2
:0A0F6C00BA2F0317D1016424080016
:100F7600831203135B08F2005C08F3005B085C0253
:100F86000318E32F5D087307F10071087202031856
:100F9600E32F5D08F3075D08F207F203F303730816
:100FA60084000008F0007208840070088000013098
:100FB600DD02031CDE035D085E04031DD02FF92F3E
:100FC6005D085E040319F92F730884000008F00019
:100FD6007208840070088000F20AF30A0130DD020C
:100FE600031CDE035D085E04031DE72F5B08F000AB
:020FF6000800F1
:1010000083160313051105100512851285130513A8
:1010100083120511051005138513851205128A1117
:1010200006208A158A1106208A158A1106208A153B
:101030008516051605158A1103208A1505118A11D2
:1010400006208A1505158A1103208A1505118A11B3
:1010500006208A1505158A1103208A1505118A11A3
:1010600006208A15051205158A1103208A15051117
:101070008A1106208A1505158A1103208A15051183
:101080008512051705158A1103208A1505118A1185
:1010900006208A150513051605158A1103208A15E1
:1010A0000511051205158A1103208A1505118A11EB
:1010B00006208A1505158A1103208A1505110516C3
:1010C00005158A1103208A1505118A1106208A1533
:1010D000051205158A1103208A15051105178517B4
:1010E0008516051605158A1103208A1505118A1122
:0810F00006208A15D514080042
:1010F800A528831203138612B8288616B828033049
:10110800F4003508F0008A11F4228A157808F000F6
:101118007008003A031D922820308606B8280A3045
:10112800F4003708F0008A11F4228A157808F000D4
:101138007008003A031DA22820308606B8288612B7
:10114800B828831203132108003A03197D282108BF
:10115800013A031981282108023A03198328210832
:10116800033A03199328A328DF280612F028061645
:10117800F0280530F4003508F0008A11F4228A15A9
:101188007808F0007008003A031DCC281030860655
:10119800F0281E30F4003708F0008A11F4228A156E
:1011A8007808F0007008003A031DDC281030860625
:1011B800F0280612F0282208003A0319B928220854
:1011C800013A0319BB282208023A0319BD2822084C
:1011D800033A0319CD28DD280A2987131B29871705
:1011E8001B290730F4003508F0008A11F4228A150B
:1011F8007808F0007008003A031D0429803087063B
:101208001B29803087061B2987131B292308003ACE
:101218000319F1282308013A0319F3282308023A8D
:101228000319F5282308033A03190529082942292F
:1012380007135329071753290930F4003508F0001C
:101248008A11F4228A157808F0007008003A031D04
:101258002F294030870653290630F4003308F00060
:101268008A11F4228A157808F0007008003A031DE4
:101278003F29403087065329071353292408003A89
:1012880003191C292408013A03191E292408023AC3
:10129800031920292408033A0319302940297A29F7
:1012A80087128B2987168B290B30F4003508F0003C
:1012B8008A11F4228A157808F0007008003A031D94
:1012C8006729203087068B290C30F4003308F0009A
:1012D8008A11F4228A157808F0007008003A031D74
:1012E8007729203087068B2987128B292508003A11
:1012F800031954292508013A031956292508023AE1
:10130800031958292508033A031968297829080078
:10131800831203135B08F000F00CF013F00CF013C9
:10132800F00CF013F00CF0130A30F4008A11692263
:0E1338008A150F305B05F1007108F007080000
:10134600013083120313D600D7010618AB29A8294A
:1013560083125708003A031DDD2A01300317E60001
:101366008A1130208A15F5300317DC000F30DD00B6
:101376008A11BB218A1501300317DC000630DD0017
:101386004130DE008A11FC218A1501305602F30035
:10139600F401031CF4030030D61BFF30F4070430BD
:1013A600F2007308F0007408F10072080319E029CE
:1013B600F00DF10D7010FF3ED9297008383E031765
:1013C600DC0011300318013E7107DD008A11BB21D4
:1013D6008A1502300317DC000130DD004130DE00E3
:1013E6008A11FC218A1501300317DC001030DD005C
:1013F6005E30DE008A11BC228A1502300317DC003B
:101406001030DD007630DE008A11BC228A15861C7B
:10141600132A061D132A861D132A061C132A0A2AB6
:1014260086181A2AD60A8618192A162A242A061966
:10143600212AD6030619202A1D2A242A0618242A18
:10144600DD2A80305606F0008030013A700203181B
:101456002E2A0430D6008030043AF000803056063A
:1014660070020318382A0130D6008619DC2ACC2AE5
:10147600D0300317DC000230DD000030DE008A11B8
:1014860082228A1570080313DB008C217008B300D2
:101496007008DB000230DC008A11E4258A15D030A2
:1014A60083120317DC000130DD000030DE008A11F4
:1014B60082228A1570080313DB008C217008B7009E
:1014C6007008DB000130DC008A11E4258A15D03073
:1014D60083120317DC000430DD000030DE008A11C1
:1014E60082228A1570080313DB008C217008B10074
:1014F6007008DB000430DC008A11E4258A15D03040
:1015060083120317DC000530DD000030DE008A118F
:1015160082228A1570080313DB008C217008A9004B
:101526007008DB000530DC008A11E4258A15D0300E
:1015360083120317DC000630DD000030DE008A115E
:1015460082228A1570080313DB008C217008A8001C
:101556007008DB000630DC008A11E4258A15DC2AD7
:101566008A1163258A15061CBB2A861DBB2ABC2A3E
:10157600B62ADC2A8A11BE268A1583120313061C94
:10158600C72A861DC72AC82AC02ADC2A0130D700E6
:10159600DC2A5608013A03193B2A5608023A03196F
:1015A600B32A5608033A0319BD2A5608043A031902
:0E15B600C92AAB2983120618E12ADD2A080093
:1015C400002001300317E6008A1130208A150C3000
:1015D4000317E6008A1130208A1501300317DC0056
:1015E4000830DD003A30DE008A11BC228A1504304E
:1015F400F2002008F0000030F01BFF30F100720808
:101604000319092BF00DF10D7010FF3E022B700829
:10161400003E0317DC0010300318013E7107DD00A3
:101624000230DC070318DD0A8A11BB218A15023057
:101634000317DC000130DD004130DE008A11FC219B
:041644008A150800FB
:101648008312031333080317D1005630D2008A11CE
:101658002F258A150130DC000630DD005730DE000A
:101668008A11FC218A155708203A031D452B0130A1
:101678000317DC000630DD003030DE008A11BC22A2
:101688008A1556300317D100D2010230D30000303A
:10169800D4008A1116258A15031337080317D100B9
:1016A8005630D2008A112F258A150130DC00093006
:1016B800DD005730DE008A11FC218A155708203AD0
:1016C800031D702B01300317DC000930DD003030BA
:0A16D800DE008A11BC228A1508000A
:1016E200831203132008013A031D7A2BD801D90172
:1016F200A52B2008023A031D822BA930D800D9015C
:10170200A52B2008033A031D8B2B5230D800013041
:10171200D900A52B2008043A031D942BFB30D800D6
:101722000130D900A52B2008053A031D9D2B02305C
:10173200D8000230D900A52B2008063A031DA52B9C
:101742000930D8000230D90000303302031CAF2B1D
:10175200013033020318AF2BD701AB2C0130330217
:10176200031CBA2B023033020318BA2B0130D70004
:10177200AB2C02303302031CC52B03303302031897
:10178200C52B0230D700AB2C03303302031CD02B05
:10179200043033020318D02B0330D700AB2C0430B3
:1017A2003302031CDB2B053033020318DB2B04301E
:1017B200D700AB2C05303302031CE62B0630330274
:1017C2000318E62B0530D700AB2C06303302031C7E
:1017D200F12B073033020318F12B0630D700AB2C64
:1017E20007303302031CFC2B083033020318FC2B96
:1017F2000730D700AB2C08303302031C072C09300A
:1018020033020318072C0830D700AB2C09303302FF
:10181200031C122C0A3033020318122C0930D70091
:10182200AB2C0A303302031C1D2C0B30330203187D
:101832001D2C0A30D700AB2C0B303302031C282C92
:101842000C3033020318282C0B30D700AB2C0C3091
:101852003302031C332C0D3033020318332C0C30AB
:10186200D700AB2C0D303302031C3E2C0E3033025A
:1018720003183E2C0D30D700AB2C0E303302031C64
:10188200492C0F3033020318492C0E30D700AB2CF1
:101892000F303302031C542C103033020318542C23
:1018A2000F30D700AB2C10303302031C5F2C1130E9
:1018B200330203185F2C1030D700AB2C11303302E7
:1018C200031C6A2C1230330203186A2C1130D70021
:1018D200AB2C12303302031C752C13303302031865
:1018E200752C1230D700AB2C13303302031C802C22
:1018F200143033020318802C1330D700AB2C143071
:101902003302031C8B2C1530330203188B2C14303A
:10191200D700AB2C15303302031C962C1630330241
:101922000318962C1530D700AB2C16303302031C4B
:10193200A12C173033020318A12C1630D700AB2C80
:1019420017303302031CAB2C183033020318AB2CB4
:101952001730D700D601063056020318242D20086E
:10196200003A031DD92C5608213EDA000730F00058
:101972000030F1005708F400F5018A1190218A1510
:101982003C30F0070F300318013EF1075608F0070C
:101992000318F10A7008B8007108B9008A1187208B
:1019A2008A150A12F0005A08840070088000222D5D
:1019B2008030033AF000803020067002031C092DAB
:1019C2005608213EDA00A0300317DC000313570843
:1019D200F0000730F4008A1169228A15700858074E
:1019E2000317DD00031359080318013E710703179B
:1019F200DE00031356080317DD070318DE0A8A11F7
:101A020082228A1503135A08840070088000222D4E
:101A12005608213EDA00A0300317DC0003135608F3
:101A220058070317DD00031359080318013E031773
:101A3200DE008A1182228A1503135A088400700874
:101A42008000D60AAC2C7C202A30DB002130DC005E
:101A52000730DD000030DE008A11BB278A1508003E
:101A6200831203133308B4003708B2003508B600F6
:101A7200D0300317DC00DD01DE018A1182228A15D3
:101A820070080313DB008C217008B500D0300317F7
:101A9200DC000130DD000030DE008A1182228A156E
:101AA20070080313DB008C217008B700D0300317D5
:101AB200DC000230DD000030DE008A1182228A154D
:0E1AC20070080313DB008C217008B3000800CD
:101AD0008A1187208A150A128000840AB80A03191D
:0A1AE000B90AF003031D682D080089
:101AEA008316031387150716831255108719812D3C
:0A1AFA00551C802D812D7B2D080066
:101B040083120313A001A101A201A301A401A50151
:101B1400A601A701A801A901AA01AB01AC01AD016D
:101B2400AE01AF01B001B101B201B301B401B5011D
:101B3400B601B701831603178801890103138501D0
:101B44000F30860087017525A0300317DC001030A4
:101B5400DD000230DE008A1182228A157008031328
:101B6400A0007008063C0318B72D3125E222242377
:101B740071233308B4003708B2003508B6000618DC
:101B8400D62DA321A0300317DC001030DD00023075
:101B9400DE00031320080317DF008A113F228A1591
:101BA4003125E22224237123320837060319DC2D60
:101BB400E2222423340833060319E22DE2222423EB
:101BC400360835060319E72D71233125C12DE92D7A
:101BD40031342E34303461346D342D343134613445
:101BE4006D34003400340034003432342E34313453
:101BF40061346D342D34323461346D340034003446
:101C04000034003433342E34323461346D342D34A2
:101C1400333461346D3400340034003400343434EB
:101C24002E34333461346D342D34343461346D34B2
:101C3400003400340034003435342E343434613408
:101C44006D342D34353461346D3400340034003453
:101C5400003436342E34353461346D342D34363416
:101C640061346D34003400340034003437342E349D
:101C7400363461346D342D34373461346D3400348A
:101C840000340034003438342E34373461346D3445
:101C94002D34383461346D3400340034003400346D
:101CA40039342E34383461346D342D34393461345C
:101CB4006D340034003400340034313430342E3484
:101CC400393461346D342D343134303461346D340D
:101CD40000340034313431342E343134303461340E
:101CE4006D342D343134313461346D340034313455
:101CF40032342E343134313461346D342D34313452
:101D0400323461346D340034313433342E3431346C
:101D1400323461346D342D34313470346D340034E4
:101D24000034313434342E34313470346D342D3441
:101D3400323470346D34003400340034313435348A
:101D44002E34323470346D342D34333470346D3475
:101D5400003400340034313436342E3433347034A7
:101D64006D342D34343470346D3400340034003424
:101D7400313437342E34343470346D342D343534B6
:101D840070346D34003400340034313438342E343B
:101D9400353470346D342D34363470346D3400344D
:101DA40000340034313439342E34363470346D34E4
:101DB4002D34373470346D3400340034003432340C
:101DC40030342E34373470346D342D343834703428
:101DD4006D34003400340034323431342E34383429
:101DE40070346D342D34393470346D34003400342F
:101DF4000034323432342E34393470346D342D346A
:101E04003134303470346D3400340034323433348B
:101E14002E343134303470346D342D343134313423
:101E240070346D340034323434342E34313431343B
:101E340070346D342D343134323470346D340034B4
:101E4400323435342E3445347834693474340034BF
:101E540000340034003400340034003400340034DE
:101E640000340034003400340034003400340034CE
:041E74000034003402
:101E780000340034003400340034003400340034BA
:101E880000340034003400340034003400340034AA
:101E9800003400340034003400340034003400349A
:101EA800003400340034003400340034003400348A
:101EB800003400340034003400340034003400347A
:101EC800003400340034003400340034003400346A
:101ED8000034003401340034003400340034003459
:101EE8000034033400340034003400340034013446
:101EF800033400340034013400340034023405342F
:101F0800003400340234013400340434073400341B
:101F18000134043402340034073407340034023402
:101F280004340434003408340434033404340234EC
:101F380002340034093404340034063401340234E1
:101F480000340734033400340834003400340034D7
:101F580005340034003404340034033400340234CB
:101F680002340034013404340634003401340434B7
:101F780000340034053404340034003406340234A8
:101F8800033407340234003401340334053406348E
:101F98000634003400340134013400340034003491
:101FA8000034003400340034003400340034003489
:101FB8000034003400340034003400340034003479
:101FC80053346F3463346B34653474340034003400
:021FD8000034D3
:101FDA007034613474347434653472346E34003459
:0A1FEA004D3445344E3455340034B4
:1020000030342E345034723465347334653474345F
:1020100020343034003400340034003400340034D0
:1020200031342E345034723465347334653474343E
:1020300020343134003400340034003400340034AF
:1020400032342E345034723465347334653474341D
:10205000203432340034003400340034003400348E
:1020600033342E34503472346534733465347434FC
:10207000203433340034003400340034003400346D
:1020800034342E34533465347434203431340034D1
:1020900000340034003400340034003400340034A0
:1020A00035342E34533465347434203432340034AF
:1020B0000034003400340034003400340034003480
:1020C00036342E345334653474342034333400348D
:1020D0000034003400340034003400340034003460
:1020E00045346E34743465347234203448346F347B
:1020F00075347234733400340034003400340034E6
:10210000003400340034003445346E3474346534A3
:10211000723420344D3469346E34733400340034F6
:10212000003400340034003400340034003400340F
:1021300045346E347434653472342034443461343C
:102140007434653400340034003400340034003416
:10215000003400340034003445346E347434653453
:10216000723420346D346F346E3474346834003417
:1021700000340034003400340034003400340034BF
:1021800045346E34743465347234203479346534B3
:1021900061347234003400340034003400340034CC
:0821A000003400340034003467
:1021A80030342E344F34663466340034003400340E
:1021B8000034003400340034003400340034003477
:1021C800003400340034003431342E3443346F3456
:1021D8006E347434693420346D346F346434653447
:1021E8000034003400340034003400340034003447
:1021F80032342E34503475346C34733465342034AE
:102208006D346F3464346534003400340034003481
:10221800003400340034003433342E34463465340A
:102228006534643420346D346F3464346534003478
:1022380000340034003400340034003400340034F6
:1022480034342E34453478346934743400340034EA
:1022580000340034003400340034003400340034D6
:0822680000340034003400349E
:1022700031342E34543469346D34653400340034D0
:1022800000340034003400340034003400340034AE
:1022900032342E34503472346534733465347434CB
:1022A000003400340034003400340034003400348E
:1022B00033342E3445346434693474342034503427
:1022C000723465347334653474340034003400344B
:1022D00034342E3445347834693474340034003462
:1022E000003400340034003400340034003400344E
:1022F000433461346E346E346F34743420346D344E
:102300006F34643469346634793400340034003412
:1023100000340034003400344434653466346134AD
:1023200075346C34743420345034723465347334FE
:102330006534743400340034003400340034003424
:04400E00F42F000784
:00000001FF
