:02000000EE28E8
:1000060083120313FB01FA01F9018030F800F10CA9
:10001600F00C031C17287408F90775080318750FE8
:10002600FA070318FB0A0310F01F1F287408FA07C3
:1000360075080318750FFB07FB0CFA0CF90CF80C86
:10004600031C0A287B08F3007A08F2007908F100FD
:060056007808F00008002C
:10005C00831203137008F100F0010830FC007108E2
:10006C00F40C03183D28FC0B3628F1010034031066
:10007C004228F40C0318F107F10CF00CFC0B3F2890
:02008C0008006A
:10008E0083120313A901AA01051E4F282030A907C8
:10009E00851F53281030A907851D57280830A9073A
:1000AE00051C5B280430A907051D5F280230A9072F
:1000BE00851C6228A90A061D66280430AA00861C23
:1000CE006A280230AA07051F6D28AA0AC128290826
:1000DE00A700A801E1282908F0000530F4002E2021
:1000EE007008A7007108A800E1282908F0000F3059
:1000FE00F4002E207008A7007108A800E128290836
:10010E00F0003C30F4002E207008A7007108A80003
:10011E00E1282908F0007830F4002E207008A7009E
:10012E007108A800E1282908F000F1012C30F40034
:10013E000130F50003207008A7007108A800E1281F
:10014E002908F000F1015830F4000230F5000320C8
:10015E007008A7007108A800E1282908F000F10135
:10016E008430F4000330F50003207008A7007108F6
:10017E00A800E1282A08003A03196E282A08013A35
:10018E00031972282A08023A03197C282A08033A0E
:10019E00031986282A08043A031990282A08053AD2
:1001AE0003199A282A08063A0319A7282A08073A93
:0E01BE000319B4282708F0002808F1000800F3
:1001CC00103083120313860010100C11221008003B
:1001DC000730831603139C001030831286008501B0
:1001EC00CF3083168600FF308500011383128E01F9
:1001FC008F0110129012901490150B309700FF3055
:10020C0095003F3096000C118B102210A210472045
:10021C007008A5007108A6000C1D2C290C111030BB
:10022C008606A21C252901302302F0000030031C95
:10023C00013E2402F1007008A3007108A4002308F9
:10024C002404031D2A29E6200230A206851A2F2930
:10025C00E6208B1C5A298B10851E5A2922184929F5
:10026C008F010F088E0010140C1120308600221400
:10027C00A21047207008A5007108A6002508A3004D
:10028C002608A4005A29861D5A298F010F088E00B2
:10029C0010140C11A21047207008A5007108A600BC
:0C02AC002508A3002608A40012295B29E5
:02400E004A2F37
:00000001FF
