:02000000F22AE2
:10000800FF00030E8301C4000A08C2008A017008B9
:10001800A1007108A0000408A2008C1D4B288C11B7
:1000280083161408F100F10CF113F10CF113711C93
:10003800242883124108930014161308C0004E2880
:10004800003083161405F00003192E2883121308B4
:10005800C0004E280530F00083161408F10070081F
:1000680003193A28F10CF113FF3E3428711C4B2870
:10007800831223083E3E840013088000A30A230845
:10008800013C03184828A3011308C0004E28831216
:100098001308C0002108F0002008F100220884009D
:0E00A80042088A00440E8300FF0E7F0E0900FE
:1000B60083120313F101F20151087202031D652830
:1000C6005008710203186B28F10A0319F20A5F2817
:0200D600080020
:1000D80083120313071087100711871207130800EC
:0E00E800831203133D088A003C0882000800C2
:1000F6004030831203134F02031896286C204F08D2
:10010600C3003F304F05F000403070048600871270
:1001160007170710871007150A30D0000030D100E6
:100126005B200711AB284F08C30040304F02F00098
:100136003F30F0054030700486000713871607101D
:10014600871007150A30D0000030D1005B20071158
:0201560008009F
:1001580083120313FB01FA01F9018030F800F10C56
:10016800F00C031CC0287408F90775080318750FEC
:10017800FA070318FB0A0310F01FC8287408FA07C7
:1001880075080318750FFB07FB0CFA0CF90CF80C33
:10019800031CB3287B08F3007A08F2007908F10001
:0601A8007808F0000800D9
:1001AE0083120313CD01CE014C084E02031DE1282C
:1001BE004B084D0203182C29403043020318042922
:1001CE004D084907F0004A080318013E4E07F1009A
:1001DE007008BC007108BD0074208A110A128600D6
:1001EE00871207170714871007150A30D000003042
:1001FE00D1005B200711C30A23294308CF007B20BF
:10020E004D084907F0004A080318013E4E07F10059
:10021E007008BC007108BD0074208A110A12860095
:10022E00071387160714871007150A30D000003001
:10023E00D1005B200711C30A43087F3C031828290D
:0C024E002C29CD0A0319CE0ADB28080079
:10025A006C20B83049048600071087100A30D00095
:10026A000030D1005B2007150A30D0000030D100E1
:06027A005B2007110800E3
:100280006C20C030450486008712071307108710C2
:1002900007150A30D0000030D1005B20071108009C
:1002A000831203134508CF007B204608C9002D2187
:1002B0004708F000F00D7010F00D7010F00D701088
:1002C0007008C7007008FC3EC90006300318013EE4
:0E02D000CA000830CB000030CC00D720080058
:1002DE0083120313C5010830450203188D29450802
:1002EE00C9002D21CF017B20C601803046020318A4
:1002FE008B290330C9000030CA000130CB0000301A
:0E030E00CC00D720C60A7C29C50A7229080037
:10031C00831203134508CF007B204608C9002D210A
:10032C00C8014808470784000008003A0319BB2994
:10033C0048084707840020300002F000F101031C3C
:10034C00F1030630F4000030F500AC207008003EDC
:10035C00C90008300318013E7107CA000630CB00F3
:0C036C000030CC00D720C80A97290800F8
:1003780083120313CF017B20C9012D21C701083047
:1003880047020318E7294708C9002D21CF017B2020
:100398000730F2004708F000F10172080319D92963
:1003A800F00DF10D7010FF3ED22970084507C90005
:1003B80046080318013E7107CA008030CB00CC0103
:0803C800D720C70AC329080071
:1003D0006C203F308600871207138710071007151F
:0E03E0006430D0000030D1005B20071108000F
:1003EE00E821C50140216F21FC30C5000230C60056
:1003FE00BC21C501C6012D30C7008E217830C50045
:10040E00C6010530C70050218230FC00DD30FD00F2
:10041E00FD0B0F2AFC0B0F2A000000007830C500E0
:10042E00C6010430C70050218230FC00DD30FD00D3
:10043E00FD0B1F2AFC0B1F2A000000007830C500A0
:10044E00C6010330C70050218230FC00DD30FD00B4
:10045E00FD0B2F2AFC0B2F2A000000007830C50060
:10046E00C6010230C70050218230FC00DD30FD0095
:10047E00FD0B3F2AFC0B3F2A000000007830C50020
:10048E00C6010130C70050218230FC00DD30FD0076
:10049E00FD0B4F2AFC0B4F2A000000007830C500E0
:1004AE00C601C70150216430C500C6012930C700FE
:1004BE008E215A30C500C6010A30C7005021503077
:1004CE00C500C6010B30C70050215030C500C60113
:1004DE000C30C70050214630C500C6010D30C70094
:1004EE0050213C30C500C6010E30C70050213C30B3
:1004FE00C500C6010F30C70050210F30C5000230B5
:10050E00C6001130C70050210530C5000330C600AB
:10051E001530C70050210F30C5000430C60013300F
:10052E00C70050211930C5000330C6001730C70070
:10053E0050216930C5000230C6001030C70050216E
:10054E005F30C5000330C6001430C700502169303B
:10055E00C5000430C6001230C70050217330C500EC
:10056E000330C6001630C70050215F30C50006307C
:10057E00C6002430C7008E215530C5000730C60096
:08058E003430C7008E21080083
:100596008316031385018601183087000317880127
:1005A600890103139F01D2309300363083129400E1
:1005B600C0308B008B170B1783168C150C14831207
:0605C6000C108C1108006E
:1005CC0074208A110A128000840ABC0A0319BD0A1D
:0805DC00F003031DE62A0800EC
:0A05E400D627CB22F721F52AF62ACC
:100FAC0023308400193083120313F000BC30BC00D2
:080FBC000730BD00E622080029
:020006000034C4
:1005F8000034003400340034003400340034003453
:100608000034003400340034003400340034003442
:100618000034003400340034003400340034003432
:100628000034003400340034003400340034003422
:100638000034003400340034003400340034003412
:100648000034003400340034003400340034003402
:1006580000340034003400340034003400340034F2
:1006680000340034003400340034003400340034E2
:1006780000340034003400340034003400340034D2
:1006880000340034003400340034003400340034C2
:1006980000340034003400340034003400340034B2
:1006A80000340034003400340034003400340034A2
:1006B8000034003400340034003400340034003492
:1006C8000034003400340034003400340034003482
:1006D8000034003400340034003400340034003472
:1006E8000034003400340034003400340034003462
:1006F8000234823482348234023402343A3402348A
:100708003A3402343A3402343A3402343A34023451
:100718003A3402347E3402343A3402343A340234FD
:100728003A3402343A3402343A3402343A34023431
:100738000234023402340234023402340234023401
:1007480002340234023402340234023402340234F1
:1007580002340234023402340234023402340234E1
:1007680002340234023402340234023402340234D1
:1007780002340234023402340234023402340234C1
:1007880002340234023402340234023402340234B1
:1007980002340234023402340234023402340234A1
:1007A8000234023402340234023402340234023491
:1007B8000234023402340234023402340234023481
:1007C800023402340234023402347E3402340234F5
:1007D8000234023402340234023402340234023461
:1007E8000234023402340234023402340234023451
:1007F8000034AA34AA34AA34003400340034003453
:100808000034003400340034003400340034003440
:100818000034003400340034003400340034003430
:100828000034003400340034003400340034003420
:100838000034003400340034003400340034003410
:100848000034003400340034003400340034003400
:1008580000340034003400340034003400340034F0
:1008680000340034003400340034003400340034E0
:1008780000340034003400340034003400340034D0
:1008880000340034003400340034003400340034C0
:1008980000340034003400340034003400340034B0
:1008A80000340034003400340034003400340034A0
:1008B8000034003400340034003400340034003490
:1008C8000034003400340034003400340034003480
:1008D8000034003400340034003400340034003470
:1008E8000034003400340034003400340034003460
:1008F8000834AA34AA34AA34083400340034003442
:10090800003400340034003400340034003400343F
:10091800003400340034003400340034003400342F
:10092800003400340034003400340034003400341F
:10093800003400340034003400340034003400340F
:1009480000340034003400340034003400340034FF
:1009580000340034003400340034003400340034EF
:1009680000340034003400340034003400340034DF
:1009780000340034003400340034003400340034CF
:1009880000340034003400340034003400340034BF
:1009980000340034003400340034003400340034AF
:1009A800003400340034003400340034003400349F
:1009B800003400340034003400340034003400348F
:1009C800003400340034003400340034003400347F
:1009D800003400340034003400340034003400346F
:1009E800003400340834083408340834083408342F
:1009F8000034AA34AA34AA34003400340034003451
:100A0800003400340034003400340034003400343E
:100A1800003400340034003400340034003400342E
:100A2800003400340034003400340034003400341E
:100A3800003400340034003400340034003400340E
:100A480000340034003400340034003400340034FE
:100A580000340034003400340034003400340034EE
:100A680000340034003400340034003400340034DE
:100A780000340034003400340034003400340034CE
:100A880000340034003400340034003400340034BE
:100A980000340034003400340034003400340034AE
:100AA800003400340034003400340034003400349E
:100AB800003400340034003400340034003400348E
:100AC800003400340034003400340034003400347E
:100AD800003400340034003400340034003400346E
:100AE800003400340034003400340034003400345E
:100AF800203420342034203420342034203420344E
:100B0800203420342034203420342034203420343D
:100B1800203420342034203420342034203420342D
:100B2800203420342034203420342034203420341D
:100B3800203420342034203420342034203420340D
:100B480020342034203420342034203420342034FD
:100B580020342034203420342034203420342034ED
:100B680020342034203420342034203420342034DD
:100B780020342034203420342034203420342034CD
:100B880020342034203420342034203420342034BD
:100B98002034E034E034203420342034203420342D
:100BA800203420342034203420342034203420349D
:100BB800203420342034203420342034203420348D
:100BC800203420342034203420342034203420347D
:100BD800203420342034203420342034203420346D
:100BE800203420342034203420342034203420345D
:100BF800003400340034003400340034003400344D
:100C0800003400340034003400340034003400343C
:100C1800003400340034003400340034003400342C
:100C2800003400340034003400340034003400341C
:100C3800003400340034003400340034003400340C
:100C480000340034003400340034003400340034FC
:100C580000340034003400340034003400340034EC
:100C680000340034003400340034003400340034DC
:100C780000340034003400340034003400340034CC
:100C880000340034003400340034003400340034BC
:100C98000034FF34FF3400340034003400340034AE
:100CA800003400340034003400340034003400349C
:100CB800003400340034003400340034003400348C
:100CC800003400340034003400340034003400347C
:100CD800003400340034003400340034003400346C
:100CE800003400340034003400340034003400345C
:100CF800003400340034003400340034003400344C
:100D0800003400340034003400340034003400343B
:100D1800003400340034003400340034003400342B
:100D2800003400340034003400340034003400341B
:100D3800003400340034003400340034003400340B
:100D480000340034003400340034003400340034FB
:100D580000340034003400340034003400340034EB
:100D680000340034003400340034003400340034DB
:100D780000340034003400340034003400340034CB
:100D880000340034003400340034003400340034BB
:100D98000034FF34FF3400340034003400340034AD
:100DA800003400340034003400340034003400349B
:100DB800003400340034003400340034003400348B
:100DC800003400340034003400340034003400347B
:100DD800003400340034003400340034003400346B
:100DE800003400340034003400340034003400345B
:100DF8003C34E73481348134813481348134FF34A4
:100E08003C34E7348134813481348134FF34FF3415
:100E18003C34E734813481348134FF34FF34FF3487
:100E28003C34E73481348134FF34FF34FF34FF34F9
:100E38003C34E7348134FF34FF34FF34FF34FF346B
:100E48003C34FF34FF34FF34FF34FF34FF34FF34C5
:100E5800013402340434FF340434023401340034DD
:100E6800C034C0340034003400340034003400345A
:100E7800C034C034F034F03400340034003400346A
:100E8800C034C034F034F034FC34FC340034003462
:100E9800C034C034F034F034FC34FC34FF34FF3454
:100EA800FF347E343C3418340034003400340034C9
:100EB80000347E347E347E347E347E347E34003496
:100EC800FF34813442343C3424343C34003400341C
:100ED8000C341234E134A134A134E13412340C342A
:100EE8000C341E34FF34BF34BF34FF341E340C348A
:100EF80018341C341E341F341F341E341C34183468
:100F0800183414341234113411341234143418349B
:100F1800183438347834F834F834783438341834A9
:100F280018342834483488348834483428341834F9
:100F380000340034003418343C347E34FF34FF3439
:100F48000034003400341834243442348134FF34FB
:100F5800FF34FF347E343C34183400340034003419
:100F6800FF348134423424341834003400340034DB
:020F7800003443
:0A0F7A004C344F3441344434003449
:080F8400343435342534003407
:0E0F8C003534353435343634353439340034A8
:100F9A00343435343034303430344B34473400341C
:101000000034003400340034003400340034003440
:1010100000345F34003400340034003407340034CA
:1010200007340034003414347F3414347F341434DF
:10103000003424342A347F342A34123400342334E4
:10104000133408346434623400343634493455344B
:101050002234503400340034053403340034003476
:10106000003400341C342234413400340034003461
:10107000413422341C340034003408342A341C3403
:101080002A3408340034083408343E340834083430
:101090000034003450343034003400340034083428
:1010A0000834083408340834003400343034303420
:1010B0000034003400342034103408340434023452
:1010C00000343E345134493445343E340034003425
:1010D00042347F344034003400344234613451347B
:1010E0004934463400342134413445344B343134AE
:1010F00000341834143412347F341034003427345C
:10110000453445344534393400343C344A34493468
:101110004934303400340134713409340534033433
:1011200000343634493449344934363400340634D2
:101130004934493429341E340034003436343634CA
:101140000034003400340034563436340034003473
:10115000003400340834143422344134003414345C
:101160001434143414341434003441342234143418
:101170000834003400340234013451340934063464
:10118000003432344934793441343E3400347E34CE
:101190001134113411347E3400347F3449344934ED
:1011A0004934363400343E344134413441342234FD
:1011B00000347F344134413422341C3400347F34D1
:1011C000493449344934413400347F3409340934D2
:1011D0000134013400343E3441344134513432342A
:1011E00000347F340834083408347F340034003449
:1011F00041347F34413400340034203440344134AD
:101200003F34013400347F34083414342234413400
:1012100000347F34403440344034403400347F3430
:101220000234043402347F3400347F34043408340C
:1012300010347F3400343E344134413441343E3440
:1012400000347F34093409340934063400343E3420
:101250004134513421345E3400347F34093419343C
:10126000293446340034463449344934493431341D
:101270000034013401347F340134013400343F340C
:101280004034403440343F3400341F342034403440
:1012900020341F3400347F342034183420347F3419
:1012A00000346334143408341434633400340334A5
:1012B0000434783404340334003461345134493410
:1012C000453443340034003400347F3441344134F5
:1012D00000340234043408341034203400344134EF
:1012E00041347F3400340034003404340234013497
:1012F0000234043400344034403440344034403408
:101300000034003401340234043400340034203416
:10131000543454345434783400347F3448344434AE
:10132000443438340034383444344434443420347D
:10133000003438344434443448347F34003438344E
:101340005434543454341834003408347E3409345A
:1013500001340234003408341434543454343C34EA
:1013600000347F34083404340434783400340034D6
:1013700044347D3440340034003420344034443428
:101380003D340034003400347F3410342834443485
:101390000034003441347F344034003400347C3431
:1013A000043418340434783400347C34083404347D
:1013B00004347834003438344434443444343834D5
:1013C00000347C34143414341434083400340834B5
:1013D0001434143418347C3400347C340834043429
:1013E00004340834003448345434543454342034ED
:1013F000003404343F3444344034203400343C342A
:101400004034403420347C3400341C3420344034A4
:1014100020341C3400343C344034303440343C34C8
:1014200000344434283410342834443400340C3428
:101430005034503450343C340034443464345434E4
:101440004C344434003400340834363441340034ED
:101450000034003400347F3400340034003400346D
:08146000413436340834003435
:04400E00F42F000784
:00000001FF
