:020000008F2F40
:1000080070082000A1007108A00080318B1E0F2805
:100018000B1D0F285B272108F0002008F1000900BC
:1000280020002508013A031D1A280C152508003A56
:08003800031D1F280C11080034
:0800400020004E0895000800A5
:0E0048002000CD018E120C118E110E12080038
:10005600C03021001505F000173070049500F83007
:0E00660020009500F830CE000B118B1608001C
:1000740020005108F000F101F035F10D293070072E
:10008400F2000030713DF3007208840073088500AB
:100094000008F00001310008F100F00A0319F10A28
:1000A4007208860073088700700881007108413166
:1000B4008100F4017408123C031C7428740851066E
:1000C400031974287408F000F101F035F10D29309A
:1000D400700786000030713D870081014131810144
:1000E400F40A5C285108F000F101F035F10D2930D3
:1000F400700784000030713D85000008F100013173
:100104000008F2007208003C031D8A2871080A3CAA
:1001140003189C285108A8005108F000F101F0359B
:10012400F10D2930700786000030713D8700810190
:06013400413181010800C9
:10013A00BC2C2000A601A701200000302702031DC5
:10014A00A82805302602013003180030F1008C1A65
:10015A00B0287214B12872108E18B5280314B62864
:10016A000310721CBC28031CBC287214BD28721010
:10017A000E19C1280314C2280310721CC828031CB4
:10018A00C8287214C928721020000E18CE28031429
:10019A00CF280310721CD528031CD5287214D62820
:1001AA007210F0017218F00A7108F0050319DE28BE
:1001BA00A12820008C1AE3287214E42872108E18E1
:1001CA00E8280314E9280310721CEF28031CEF28FF
:1001DA007214F028721020000E19F5280314F6285C
:1001EA000310721CFC28031CFC287214FD287210D0
:1001FA0020000E180229031403290310721C09296E
:10020A00031C092972140A297210721C0F29200072
:10021A000130CD0020008C1A14297214152972108D
:10022A008E18192903141A290310721C2029031C79
:10023A00202972142129721020000E19262903146C
:10024A0027290310721C2D29031C2D2972142E290B
:10025A00721020000E183329031434290310721C5B
:10026A003A29031C3A2972143B297210721C3E293E
:10027A000F292420E62C8E16A601A70120000030A3
:10028A002702031D4A2905302602013003180030CF
:10029A00F1008C1A5229031453290310031C5929FB
:1002AA008E1C592972145A2972100E195E290314C8
:1002BA005F290310721C6529031C652972146629BB
:1002CA0072100E186A2903146B290310721C712903
:1002DA00031C7129721472297210F0017218F00A43
:1002EA007108F00503197A29432920008C1A7F29FD
:1002FA00031480290310031C872920008E1C8729D8
:10030A0072148829721020000E198D2903148E295F
:10031A000310721C9429031C9429721495297210D3
:10032A0020000E189A2903149B290310721CA12974
:10033A00031CA1297214A2297210721CA729200079
:10034A000130CD0020008C1AAC290314AD2903100A
:10035A00031CB42920008E1CB4297214B52972100A
:10036A0020000E19BA290314BB290310721CC129D3
:10037A00031CC1297214C229721020000E18C72941
:10038A000314C8290310721CCE29031CCE29721427
:10039A00CF297210721CD229A7292420E62C8E1686
:1003AA00CD0120008C1ADB290314DC290310031C5D
:1003BA00E2298E1CE2297214E32972100E19E72928
:1003CA000314E8290310721CEE29031CEE29721487
:1003DA00EF297210721CF62920000E1CF62903144C
:1003EA00F7290310031CFA29D6292420E62C8E1695
:1003FA00CD0120008C1A032A0314042A0310031CBB
:10040A000A2A8E1C0A2A72140B2A7210721C112ACA
:10041A000E1D112A7214122A72100E18162A0314AB
:10042A00172A0310721C1D2A031C1D2A72141E2A65
:10043A007210721C212AFE292420E62C8E16CD0168
:10044A0020008C1A2A2A03142B2A0310031C312A8F
:10045A008E1C312A7214322A7210721C382A0E1D0E
:10046A00382A0314392A0310031C402A20000E1CC0
:10047A00402A7214412A7210721C442A252A242006
:10048A00E62CA601A701200000302702031D4F2AEF
:10049A0005302602013003180030F1008E18572A61
:1004AA000314582A03108C1E5E2A031C5E2A721437
:1004BA005F2A72100E19632A0314642A0310721C2D
:1004CA006A2A031C6A2A72146B2A72100E186F2A7F
:1004DA000314702A0310721C762A031C762A7214DB
:1004EA00772A7210F0017218F00A7108F0050319E0
:1004FA007F2A482A20008E18842A0314852A03108A
:10050A008C1E8B2A031C8B2A72148C2A72100E19C9
:10051A00902A0314912A0310721C972A031C972A03
:10052A007214982A721020000E189D2A03149E2A0B
:10053A000310721CA42A031CA42A7214A52A72107E
:10054A00721CAA2A20000130CD0020008E18AF2A82
:10055A000314B02A03108C1EB62A031CB62A72147E
:10056A00B72A72100E19BB2A0314BC2A0310721C74
:10057A00C22A031CC22A7214C32A721020000E183F
:10058A00C82A0314C92A0310721CCF2A031CCF2AB3
:10059A007214D02A7210721CD32AAA2A2420E62C9A
:1005AA00A601A70100302702031DDD2A0530260215
:1005BA00013003180030F1008C1EE72A8E1CE72A4E
:1005CA007214E82A72100E19EC2A0314ED2A031089
:1005DA00721CF32A031CF32A7214F42A72100E18DE
:1005EA00F82A0314F92A0310721CFF2A031CFF2A93
:1005FA007214002B7210F0017218F00A7108F005DB
:10060A000319082BD72A8C1E0E2B8E1C0E2B721444
:10061A000F2B72100E19132B0314142B0310721CB8
:10062A001A2B031C1A2B72141B2B72100E181F2B59
:10063A000314202B0310721C262B031C262B721466
:10064A00272B7210721C392B20000130CD00A60115
:10065A00A7018E1600302702031D352B063026020D
:10066A000318382B2F2B8E1220008C1E402B8E1C29
:10067A00402B7214412B72100E19452B0314462B72
:10068A000310721C4C2B031C4C2B72144D2B721032
:10069A0020000E18522B0314532B0310721C592BD3
:1006AA00031C592B72145A2B7210721C5D2B392B96
:1006BA002420E62CCD01A601A70100302702031D44
:1006CA00682B05302602013003180030F1008C1E19
:1006DA00722B8E1C722B7214732B72100E19772BBD
:1006EA000314782B0310721C7E2B031C7E2B7214AE
:1006FA007F2B7210721C852B0E1C852B0314862BE4
:10070A000310F0010318F00A7108F00503198E2B83
:10071A00622B8C1E942B8E1C942B7214952B7210A8
:10072A000E19992B03149A2B0310721CA02B031C6D
:10073A00A02B7214A12B7210721CA72B0E1CA72BB4
:10074A000314A82B0310031CB82B2000A601A70131
:10075A008E1600302702031DB42B0630260203181A
:10076A00B72BAE2B8E1220008C1EBF2B8E1CBF2BDC
:10077A007214C02B72100E19C42B0314C52B03104C
:10078A00721CCB2B031CCB2B7214CC2B7210721C39
:10079A00D32B20000E1CD32B0314D42B0310031CC1
:1007AA00D72BB82B2420E62CCD01A601A7010030B7
:1007BA002702031DE22B0530260201300318003000
:1007CA00F1008C1EEC2B8E1CEC2B0314ED2B03106A
:1007DA00031CF32B0E1DF32B7214F42B72100E183C
:1007EA00F82B0314F92B0310721CFF2B031CFF2B8D
:1007FA007214002C7210F0017218F00A7108F005D8
:10080A000319082CDC2B8C1E0E2C8E1C0E2C0314A8
:10081A000F2C0310031C152C0E1D152C7214162CEC
:10082A0072100E181A2C03141B2C0310721C212C84
:10083A00031C212C7214222C7210721C322C2000E0
:10084A00A601A7018E1600302702031D2E2C0630A2
:10085A0026020318312C282C8E1220008C1E392CCB
:10086A008E1C392C03143A2C0310031C402C0E1D29
:10087A00402C7214412C72100E18452C0314462C6D
:10088A000310721C4C2C031C4C2C72144D2C72102D
:10089A00721C502C322C2420E62CCD01A601A70173
:1008AA0000302702031D5B2C053026020130031895
:1008BA000030F1008C1E652C8E1C652C0314662CEE
:1008CA000310031C6C2C0E1D6C2C72146D2C7210F0
:1008DA00721C732C0E1C732C0314742C0310F0015D
:1008EA000318F00A7108F00503197C2C552C8C1E8C
:1008FA00822C8E1C822C0314832C0310031C892C3B
:10090A000E1D892C72148A2C7210721C902C0E1CCB
:10091A00902C0314912C0310031CA02CA601A701F0
:10092A008E1600302702031D9C2C0630260203185F
:10093A009F2C962C8E128C1EA62C8E1CA62C031471
:10094A00A72C0310031CAD2C0E1DAD2C7214AE2C5B
:10095A007210721CB42C0E1CB42C0314B52C031088
:10096A00031CB82CA02C2420E62C2420E62C2000E2
:10097A002808013A03199E282808053A031940292C
:10098A002808063A0319D4292808073A0319FC2922
:10099A002808083A0319232A2808093A0319462A73
:1009AA0028080D3A0319D52A28080E3A03195F2B8D
:1009BA0028080F3A0319D92B2808103A0319522C80
:0409CA00BA2C08003B
:1009CE002000A8018C1AED2C7014EE2C70108E18CD
:1009DE00F22C0314F32C0310701CF92C031CF92CAD
:1009EE007014FA2C70100E19FE2C0314FF2C031029
:1009FE00701C052D031C052D7014062D70100E187D
:100A0E000A2D03140B2D0310701C112D031C112D18
:100A1E007014122D7010701C182D0130D1003A2058
:100A2E003B2F8C1A1C2D70141D2D70108E18212D1D
:100A3E000314222D0310701C282D031C282D701456
:100A4E00292D70100E192D2D03142E2D0310701C30
:100A5E00342D031C342D7014352D7010701C3B2D4D
:100A6E000E1C3B2D03143C2D0310031C422D023093
:100A7E00D1003A203B2F8C1A462D7014472D701042
:100A8E008E184B2D03144C2D0310701C522D031C6D
:100A9E00522D7014532D7010701C592D0E1D592D82
:100AAE0070145A2D70100E185E2D03145F2D031046
:100ABE00701C652D031C652D7014662D7010701C36
:100ACE006C2D0330D1003A203B2F8C1A702D7014F0
:100ADE00712D70108E18752D0314762D0310701C49
:100AEE007C2D031C7C2D70147D2D7010701C832D9D
:100AFE000E1D832D0314842D0310031C8A2D0E1C32
:100B0E008A2D70148B2D7010701C912D0430D10015
:100B1E003A203B2F8C1A952D0314962D0310031C8F
:100B2E009C2D8E1C9C2D70149D2D70100E19A12DB8
:100B3E000314A22D0310701CA82D031CA82D7014D5
:100B4E00A92D70100E18AD2D0314AE2D0310701CB0
:100B5E00B42D031CB42D7014B52D7010701CBB2D4C
:100B6E000530D1003A203B2F8C1ABF2D0314C02D17
:100B7E000310031CC62D8E1CC62D7014C72D7010AD
:100B8E000E19CB2D0314CC2D0310701CD22D031C6B
:100B9E00D22D7014D32D7010701CD92D0E1CD92D82
:100BAE000314DA2D0310031CE02D0630D1003A2079
:100BBE003B2F8C1AE42D0314E52D0310031CEB2D93
:100BCE008E1CEB2D7014EC2D7010701CF22D0E1D62
:100BDE00F22D7014F32D70100E18F72D0314F82D3E
:100BEE000310701CFE2D031CFE2D7014FF2D7010B3
:100BFE00701C052E0730D1003A203B2F8C1A092E7F
:100C0E0003140A2E0310031C102E8E1C102E7014AB
:100C1E00112E7010701C172E0E1D172E0314182E69
:100C2E000310031C1E2E0E1C1E2E70141F2E701071
:100C3E00701C252E0830D1003A203B2F8E18292EFD
:100C4E0003142A2E03108C1E302E031C302E70140B
:100C5E00312E70100E19352E0314362E0310701C03
:100C6E003C2E031C3C2E70143D2E70100E18412E7F
:100C7E000314422E0310701C482E031C482E7014B1
:100C8E00492E7010701C4F2E0930D1003A203B2F88
:100C9E008E18532E0314542E03108C1E5A2E031C22
:100CAE005A2E70145B2E70100E195F2E0314602EC8
:100CBE000310701C662E031C662E7014672E7010A7
:100CCE00701C6D2E0E1C6D2E03146E2E0310031C45
:100CDE00742E0A30D1003A203B2F8E18782E031432
:100CEE00792E03108C1E7F2E031C7F2E7014802EE7
:100CFE007010701C862E0E1D862E7014872E70108E
:100D0E000E188B2E03148C2E0310701C922E031CA7
:100D1E00922E7014932E7010701C992E0B30D100E1
:100D2E003A203B2F8E189D2E03149E2E03108C1EE0
:100D3E00A42E031CA42E7014A52E7010701CAB2EA6
:100D4E000E1DAB2E0314AC2E0310031CB22E0E1C64
:100D5E00B22E7014B32E7010701CB92E0C30D10040
:100D6E003A203B2F8C1EBF2E8E1CBF2E7014C02E11
:100D7E0070100E19C42E0314C52E0310701CCB2E2A
:100D8E00031CCB2E7014CC2E70100E18D02E031404
:100D9E00D12E0310701CD72E031CD72E7014D82EF4
:100DAE007010701CDE2E0D30D1003A203B2F8C1EA1
:100DBE00E42E8E1CE42E7014E52E70100E19E92E02
:100DCE000314EA2E0310701CF02E031CF02E701468
:100DDE00F12E7010701CF72E0E1CF72E0314F82E29
:100DEE000310031CFE2E0E30D1003A203B2F8C1E1A
:100DFE00042F8E1C042F0314052F0310031C0B2F1E
:100E0E000E1D0B2F70140C2F70100E18102F0314B4
:100E1E00112F0310701C172F031C172F7014182F6F
:100E2E007010701C1E2F0F30D1003A203B2F8C1EDD
:100E3E00242F8E1C242F0314252F0310031C2B2F5D
:100E4E000E1D2B2F70142C2F7010701C322F0E1C99
:100E5E00322F0314332F0310031C392F1030D100FF
:0C0E6E003A203B2F1130A800640008005F
:100E7A0072302100990020008C0122008C0123008D
:100E8A008C01203021008C0020008E0123008E016D
:100E9A0022008E01073021008E0020000C118E12D4
:0C0EAA001730210097002B208B17080048
:100EB60020200B1164005008043C031D642F4F08CA
:100EC600183C03187B2FCF01D00101302607F00014
:100ED6000030273DF1007008A6007108A7004D08F4
:100EE600013A031D7A2F0130A50614207B2F0C1121
:100EF60001304F07F0000030503DF1007008CF0080
:060F06007108D000080094
:100F0C0012001E00F003031D862FF103031D862F14
:020F1C000800CB
:100F1E00CE273D27A301A401E7242808003C03188F
:100F2E009B2F2808A2009D20A8016400932F9E2FBE
:100F9C00A2308400873085002C30F0000130F10045
:0C0FAC00223086000030870086270800F5
:020F4400003477
:040F4600003400343F
:020F4A00013470
:040F4C000034003439
:020F500000346B
:100F520000340034003400340034003400340034EF
:100F620000340034003400340034003400340034DF
:100F720000340034003400340034003400340034CF
:100F820000340034003400340034003400340034BF
:080F9200003400340034003487
:020F9A00003421
:020000040001F9
:04000E00CC39FF1FCB
:00000001FF
