:020000009A2B39
:1000080070082000A1007108A00080318B1E102804
:100018000B1D10282E2310282108F0002008F100BD
:020028000900CD
:10002A0020002208013A031D1B280C152208003A59
:08003A00031D20280C11080031
:0800420020006408950008008D
:10004A00C03021001505F000173070049500F83013
:0E005A0020009500F830E4000B118B16080012
:1000680020006608F000F101F035F10D2A30700724
:10007800F2000030713DF3007208840073088500B7
:100088000008F00001310008F100F00A0319F10A34
:100098007208860073088700700881007108413172
:1000A8008100F40174080D3C031C6E287408660670
:1000B80003196E287408F000F101F035F10D2A30AB
:1000C800700786000030713D870081014131810150
:1000D800F40A56286608F000F101F035F10D2A30CF
:1000E800700784000030713D85000008F10001317F
:1000F8000008F2007208003C031D842871080A3CBD
:10010800031896286608A9006608F000F101F03582
:10011800F10D2A30700786000030713D870081019B
:06012800413181010800D5
:10012E002000A9018E199D2870149E2870100E199A
:10013E00A2280314A3280310701CA928031CA928A5
:10014E007014AA2870108E18AE280314AF2803104E
:10015E00701CB528031CB5287014B62870100E1824
:10016E00BA280314BB280310701CC128031CC12815
:10017E007014C2287010701CC7280130E60034209D
:10018E008E19CB287014CC2870100E19D028031499
:10019E00D1280310701CD728031CD7287014D82818
:1001AE0070108E18DC280314DD280310701CE32851
:1001BE00031CE3287014E4287010701CEA280E1C2F
:1001CE00EA280314EB280310031CF0280230E60083
:1001DE0034208E19F4280314F5280310031CFB2871
:1001EE000E1DFB287014FC2870108E1800290314A5
:1001FE0001290310701C0729031C072970140829F4
:10020E0070100E180C2903140D290310701C1329DD
:10021E00031C1329701414297010701C1929033033
:10022E00E60034208E191D2903141E290310031C09
:10023E0024290E1D24297014252970108E182929A1
:10024E0003142A290310701C3029031C3029701442
:10025E0031297010701C37290E1C372903143829C8
:10026E000310031C3D290430E60034208E19412969
:10027E007014422970100E194629031447290310D1
:10028E00701C4D29031C4D2970144E297010701CC2
:10029E0054298E1C54297014552970100E18592982
:1002AE0003145A290310701C6029031C6029701452
:1002BE0061297010701C66290530E60034208E19F5
:1002CE006A2970146B2970100E196F290314702986
:1002DE000310701C7629031C762970147729701070
:1002EE00701C7D298E1C7D2903147E290310031C8E
:1002FE0084290E1C8429701485297010701C8A297B
:10030E000630E60034208E198E2903148F2903102F
:10031E00031C95290E1D9529701496297010701CBA
:10032E009C298E1C9C2970149D2970100E18A129D1
:10033E000314A2290310701CA829031CA8297014E9
:10034E00A9297010701CAE290730E60034208E19D2
:10035E00B2290314B3290310031CB9290E1DB929A0
:10036E007014BA297010701CC0298E1CC029031479
:10037E00C1290310031CC7290E1CC7297014C829D4
:10038E007010701CCD290830E60034200E19D129CA
:10039E000314D22903108E1DD829031CD8297014DA
:1003AE00D9297010701CDF298E1CDF297014E029EA
:1003BE0070100E18E4290314E5290310701CEB29A4
:1003CE00031CEB297014EC297010701CF1290930F4
:1003DE00E60034200E19F5290314F62903108E1D9C
:1003EE00FC29031CFC297014FD297010701C032AB3
:1003FE008E1C032A0314042A0310031C0A2A0E1C43
:10040E000A2A70140B2A7010701C102A0A30E6008B
:10041E0034208E1D162A0E1D162A0314172A0310B9
:10042E00031C1D2A8E1C1D2A70141E2A70100E18F5
:10043E00222A0314232A0310701C292A031C292A9A
:10044E0070142A2A7010701C2F2A0B30E6003420EC
:10045E008E1D352A0E1D352A0314362A0310031C51
:10046E003C2A8E1C3C2A70143D2A7010701C432AA4
:10047E000E1C432A0314442A0310031C492A0C3071
:10048E00E60034200E194D2A03144E2A03108E1D39
:10049E00542A031C542A7014552A70108E18592A87
:1004AE0003145A2A0310701C602A031C602A70144D
:1004BE00612A70100E18652A0314662A0310701C28
:1004CE006C2A031C6C2A70146D2A7010701C722A10
:0A04DE000D30E60034206400080031
:1004E80020002908013A0319862A2908023A031923
:1004F800862A2908033A0319862A2908043A03197F
:10050800862A892A0130A8008A2AA8012908053ADA
:100518000319AB2A2908063A0319AB2A2908073A0E
:100528000319AB2A2908083A0319AB2A2908093AFA
:100538000319AB2A29080A3A0319AB2A29080B3AE6
:100548000319AB2A29080C3A0319AB2AAD2A0E164F
:10055800AE2A0E122908023A031DEB2AA501A601AC
:100568008E1600302602031DBB2A0630250203180A
:10057800BE2AB52A8E120130A7008E19C52A711419
:10058800C62A71100E19CA2A0314CB2A0310711C2B
:10059800D12A031CD12A7114D22A71108E18D62A96
:1005A8000314D72A0310711CDD2A031CDD2A7114D9
:1005B800DE2A7110711CE42A0E1CE42A0314E52AB1
:1005C8000310031CE92A6400C12AA801242B290866
:1005D800063A031D232BA501A6018E16003026021C
:1005E800031DF82A063025020318FB2AF22A8E1268
:1005F8000130A7008E19022B7114032B71100E19EC
:10060800072B0314082B0310711C0E2B031C0E2B35
:1006180071140F2B7110711C152B8E1C152B0314C4
:10062800162B0310031C1C2B0E1C1C2B71141D2BCA
:100638007110711C212B6400FE2AA801242B8E1234
:020648000800A8
:10064A0012001E00F003031D252BF103031D252BA9
:02065A00080096
:10065C0021200B1164006308043C031D372B620836
:10066C00183C03183F2BE201E301250AF000700847
:10067C00A5006108023C031D452B6008003C0318D3
:10068C00522BE001E1012808013A031D512B0130E6
:10069C00A2061520522B0C1101306207F00000301D
:1006AC00633DF1007008E2007108E300013060075F
:1006BC00F0000030613DF1007008E0007108E100CD
:0206CC00080024
:1006CE0072302100990020008C0122008C01230041
:1006DE008C01203021008C0020008E0123008E0121
:1006EE0022008E010F3021008E0020000C118E1280
:1006FE001730210097002520E5010630650203180A
:10070E00982B6508F000F101F035F10D46307007B9
:10071E0086000030713D8700810141318101E50A7B
:06072E00842B8B1708006C
:10073400D0236723A301A40197202908003C0318B0
:0C074400A42B7422A90164009E2BA72B9B
:1007A000AB308400833085002430F0000130F1004C
:0C07B0002230860000308700252308005E
:0207560001346C
:040758000034003435
:04075C000034003431
:02076000003463
:02076200003461
:0207640001345E
:1007660000340034003400340034003400340034E3
:1007760000340034003400340034003400340034D3
:1007860000340034003400340034003400340034C3
:0807960000340034003400348B
:020000040001F9
:04000E00A808030C2F
:00000001FF
