:020000007A2C58
:1000080070082000A1007108A00080318B1E102804
:100018000B1D1028F82310282108F0002008F100F3
:020028000900CD
:10002A0020002208013A031D1B280C152208003A59
:08003A00031D20280C11080031
:0800420020002B0895000800C6
:10004A00C03021001505F000173070049500F83013
:0E005A0020009500F830AB000B118B1608004B
:100068002000C601C70100304702031D3D280A30A1
:10007800460203186028C801C90103304902031D5C
:100088004728E8304802031855286400013048071B
:10009800F0000030493DF1007008C8007108C9003F
:1000A800412801304607F0000030473DF100700854
:0A00B800C6007108C70037280800D1
:1000C2002000CE01A6018E1D6A280E1D6A28031487
:1000D2006B280310031C71288E1C7128721472285D
:1000E2007210721C78280E1C7828031479280310C9
:1000F200031C7E280130A60034208E1D84280E1D8C
:100102008428031485280310031C8B288E1C8B283B
:1001120072148C2872100E18902803149128031060
:10012200721C9728031C9728721498287210721C4C
:10013200D228C601C70100304702031DA22864303D
:1001420046020318CC288E1DAA280E1DAA280314C5
:10015200AB280310031CB1288E1CB1287214B228DC
:1001620072100E18B6280314B7280310721CBD288B
:10017200031CBD287214BE287210721CC128CE0A3C
:1001820001304607F0000030473DF1007008C6001C
:100192007108C7009C284E083C3C0318D228023044
:1001A200A6008E1DD8280E1DD8287214D9287210C8
:1001B2008E18DD280314DE280310721CE428031CA9
:1001C200E4287214E52872100E18E9280314EA28AC
:1001D2000310721CF028031CF0287214F12872100C
:1001E200721C3029C601C70100304702031DFB28DB
:1001F2006430460203182A298E1D03290E1D032985
:100202007214042972108E18082903140929031084
:10021200721C0F29031C0F297214102972100E1858
:100222001429031415290310721C1B29031C1B29F2
:1002320072141C297210721C1F29CE0A0130460743
:10024200F0000030473DF1007008C6007108C70099
:10025200F5284E083C3C031830290630A6000E193A
:1002620034290314352903108E1D3B29031C3B2915
:1002720072143C297210721C42298E1C42290314EA
:1002820043290310031C49290E1C492972144A29C7
:100292007210721C4F290330A60034200E19532904
:1002A2000314542903108E1D5A29031C5A2972144F
:1002B2005B297210721C61298E1C612972146229D9
:1002C20072100E186629031467290310721C6D2917
:1002D200031C6D2972146E297210721C732904306A
:1002E200A60034208E1D79290E1D792972147A29CF
:1002F20072108E187E2903147F290310721C85291F
:10030200031C8529721486297210721C8C290E1CFA
:100312008C2903148D290310031C92290530A60091
:1003220034200E1996290314972903108E1D9D2936
:10033200031C9D2972149E2972108E18A22903147F
:10034200A3290310721CA929031CA9297214AA2922
:100352007210721CB0290E1CB0290314B1290310AB
:10036200031CB6290730A60034200E19BA2903143B
:10037200BB2903108E1DC129031CC1297214C22975
:1003820072108E18C6290314C7290310721CCD29B6
:10039200031CCD297214CE2972100E18D22903140F
:1003A200D3290310721CD929031CD9297214DA2902
:1003B2007210721CDF290830A60034208E19E3293E
:1003C2000314E4290310031CEA290E1DEA297214FE
:1003D200EB2972108E18EF290314F0290310721CF6
:1003E200F629031CF6297214F7297210721CFD29D2
:1003F2000E1CFD290314FE290310031C032A0930D5
:10040200A60034208E19072A0314082A0310031C9D
:100412000E2A0E1D0E2A72140F2A72108E18132A1B
:100422000314142A0310721C1A2A031C1A2A7214A7
:100432001B2A72100E181F2A0314202A0310721C82
:10044200262A031C262A7214272A7210721C2C2AAE
:100452000A30A60034208E19302A7214312A721002
:100462000E19352A0314362A0310721C3C2A031C67
:100472003C2A72143D2A72108E18412A0314422A11
:100482000310721C482A031C482A7214492A72104B
:10049200721C4F2A0E1C4F2A0314502A0310031CED
:1004A200552A0B30A60034208E19592A72145A2A62
:1004B20072100E195E2A03145F2A0310721C652A39
:1004C200031C652A7214662A72108E186A2A031493
:1004D2006B2A0310721C712A031C712A7214722A6D
:1004E20072100E18762A0314772A0310721C7D2AC2
:1004F200031C7D2A72147E2A7210721C832A0C300D
:10050200A60034208E19872A0314882A0310031C9C
:100512008E2A0E1D8E2A72148F2A7210721C952A30
:100522008E1C952A0314962A0310031C9C2A0E1C67
:100532009C2A72149D2A7210721CA22A0D30A600E7
:040542003420080059
:100546002000A701A8010E12CC2B0130A5008E1D9C
:10055600B02A0E1DB02A0314B12A0310031CB72AB1
:100566008E1CB72A7114B82A7110711CBE2A0E1C73
:10057600BE2A0314BF2A0310031CC22AAA2AA501F5
:10058600ED2B0130A5000E1600302802031DCD2AE2
:10059600063027020318D02AC72A0E128E1DD72A24
:1005A6000E1DD72A0314D82A0310031CDE2A8E1C1C
:1005B600DE2A7114DF2A71100E18E32A0314E42AC6
:1005C6000310711CEA2A031CEA2A7114EB2A711023
:1005D600711CEE2AD12AA501ED2B0E120130A500C1
:1005E6000E19F72A0314F82A03108E1DFE2A031C7F
:1005F600FE2A7114FF2A7110711C052B8E1C052B07
:100606000314062B0310031C0C2B0E1C0C2B71144D
:100616000D2B7110711C102BF32AA501ED2B0E1258
:100626000130A5000E19192B03141A2B03108E1D69
:10063600202B031C202B7114212B7110711C272BCE
:100646008E1C272B7114282B71100E182C2B0314BB
:100656002D2B0310711C332B031C332B7114342BDD
:100666007110711C372B152BA501ED2B0E128E1D4B
:10067600402B0E1D402B7114412B71108E18452BEB
:100686000314462B0310711C4C2B031C4C2B7114AA
:100696004D2B7110711C532B0E1C532B0314542B12
:1006A6000310031C572B3A2BED2B0E160030280295
:1006B600031D5F2B063027020318622B592B0E12DF
:1006C6008E1D692B0E1D692B71146A2B71108E18E5
:1006D6006E2B03146F2B0310711C752B031C752BCB
:1006E6007114762B71100E187A2B03147B2B0310C2
:1006F600711C812B031C812B7114822B7110711CB0
:10070600852B632BED2B0E128E198B2B03148C2B42
:100716000310031C922B0E1D922B7114932B711038
:100726008E18972B0314982B0310711C9E2B031CF9
:100736009E2B71149F2B7110711CA52B0E1CA52BC3
:100746000314A62B0310031CA92B872BED2B0E12CB
:100756008E19AF2B0314B02B0310031CB62B0E1DE2
:10076600B62B7114B72B7110711CBD2B8E1CBD2BB3
:100776000314BE2B0310031CC42B0E1CC42B7114B4
:10078600C52B7110711CC82BAB2BED2B0E12A501BE
:10079600ED2B2608013A0319A82A2608023A03195E
:1007A600C42A2608033A0319F02A2608043A03192C
:1007B600122B2608053A0319392B2608063A03197F
:1007C600582B2608093A0319862B26080D3A0319D1
:0807D600AA2BC92BA6010800A3
:1007DE0012001E00F003031DEF2BF103031DEF2B80
:0207EE00080001
:1007F00021200B1164004B08043C031D012C4A0806
:10080000183C0318272CCA01CB01270AF0007008F6
:10081000A70001302907F00000302A3DF1007008E0
:10082000A9007108AA002A08003C031D192C2908F8
:100830003C3C0318272CA901AA0101302307F00032
:100840000030243DF1007008A3007108A4004D0899
:10085000023C031D2D2C4C08003C03183A2CCC0103
:10086000CD012508013A031D392C0130A2061520BF
:100870003A2C0C1101304A07F00000304B3DF100DA
:100880007008CA007108CB0001304C07F00000303E
:0E0890004D3DF1007008CC007108CD0008004D
:10089E0072302100990022008C018E0121008C0102
:1008AE002F308E0023008C018E0120000C110E12B1
:1008BE001730210097002520CE0106304E02031876
:1008CE00782C4E08F000F101F035F10D2C30700748
:1008DE0086000030713D8700810141318101CE0AD1
:0608EE00642C8B170800CA
:1008F4009C244F24A301A40161202608003C031872
:10090400842CA322A6012408013C031D8B2C23085C
:0C091400683C03188E2C8D2C7E2C8F2C40
:1009380093308400843085000930F0000130F100E4
:0C0948002230860000308700EF230800FA
:0209260001349A
:040928000034003463
:02092C00003495
:02092E00013492
:04093000003400345B
:040934000034003457
:020000040001F9
:04000E00A439FF1DF5
:00000001FF
