:020000000C2FC3
:1000080070082000A2007108A10080318B1E1A28F8
:100018000B1D1A28212414302402031C15287824C7
:10002800A401240AF0007008A4001A282208F0008D
:060038002108F10009009F
:10003E007408F8027508031C750FF9027608031C84
:10004E00760FFA027708031C770FFB02F30D0730C9
:10005E00FC00730DF80DF90DFA0DFB0D7408731CF1
:10006E004628F8027508031C750FF9027608031C62
:10007E00760FFA027708031C770FFB025328F80756
:10008E0075080318750FF90776080318760FFA0727
:10009E0077080318770FFB07F30DFC0B3028720D52
:1000AE00F80DF90DFA0DFB0D7408731C6C28F8028F
:1000BE007508031C750FF9027608031C760FFA02F9
:1000CE007708031C770FFB027928F80775080318C9
:1000DE00750FF90776080318760FFA0777080318D5
:1000EE00770FFB07F20D0730FC00720DF80DF90DBE
:1000FE00FA0DFB0D7408721C9228F8027508031C89
:10010E00750FF9027608031C760FFA027708031CA6
:10011E00770FFB029F28F80775080318750FF9076C
:10012E0076080318760FFA0777080318770FFB0780
:10013E00F20DFC0B7C28710DF80DF90DFA0DFB0D6F
:10014E007408721CB828F8027508031C750FF902A2
:10015E007608031C760FFA027708031C770FFB0252
:10016E00C528F80775080318750FF90776080318E0
:10017E00760FFA0777080318770FFB07F10D073094
:10018E00FC00710DF80DF90DFA0DFB0D7408711CC4
:10019E00DE28F8027508031C750FF9027608031C99
:1001AE00760FFA027708031C770FFB02EB28F8078D
:1001BE0075080318750FF90776080318760FFA07F6
:1001CE0077080318770FFB07F10DFC0BC828700D8D
:1001DE00F80DF90DFA0DFB0D7408711C0429F802C7
:1001EE007508031C750FF9027608031C760FFA02C8
:1001FE007708031C770FFB021129F80775080318FF
:10020E00750FF90776080318760FFA0777080318A3
:10021E00770FFB07F00D0730FC00700DF80DF90D90
:10022E00FA0DFB0D7408701C2A29F8027508031CC0
:10023E00750FF9027608031C760FFA027708031C75
:10024E00770FFB023729F80775080318750FF907A2
:10025E0076080318760FFA0777080318770FFB074F
:10026E00F00DFC0B142970184A297408F80775084C
:10027E000318750FF90776080318760FFA07770833
:08028E000318770FFB070800BD
:10029600FB09FA09F909F809F80A0319F90A031911
:0802A600FA0A0319FB0A080023
:1002AE002000E803E8036808003C03186329E8030C
:1002BE000000000000005A290000000000000000AD
:0402CE000000080024
:1002D20020002230FC00F801F901FA01FB01FC03C5
:1002E20003199E290310FB0CFA0CF90CF80CF30C01
:1002F200F20CF10CF00C031C7029FC030319902979
:100302007408F80775080318750FF90776080318BB
:10031200760FFA0777080318770FFB07742974081A
:10032200F80775080318750FF90776080318760F92
:0C033200FA0777080318770FFB07080094
:0E033E004030F0001F30F100F201F301080022
:10034C007408003A031DBF297508003A031DBF2924
:10035C007608003A031DBF297708003A031DBF2910
:10036C00FF30F000FF30F100FF30F2007F30F3007F
:10037C00572A2000FC01F71BFC0AFD01FB01FA01C6
:10038C00F901F80173087204710470040319522AFC
:10039C0073087706A000A01BFD09F71FE029F409DC
:1003AC00F509F609F709F40A0319F50A0319F60A0F
:1003BC000319F70AF31FED29F009F109F209F30902
:1003CC00F00A0319F10A0319F20A0319F30A730864
:1003DC007704A000A01B0E2A1F20FC1B2B2AFD1F3C
:1003EC00522AF009F109F209F309F00A0319F10A8A
:1003FC000319F20A0319F30AF809F909FA09FB09B6
:10040C00F80A0319F90A0319FA0A0319FB0A522A02
:10041C00F71F252AF31B1F2A7308FB007208FA002A
:10042C007108F9007008F800F301F201F101F00114
:10043C00F529F301F201F101F001F00A0034F3099E
:10044C00F209F109F009FC17F229F80A0319F90A63
:10045C000319FA0A0319FB0A74087802031DF5291B
:10046C0075087902031DF52976087A02031DF52912
:10047C0077087B02031DF529FB01FA01F901F8014C
:10048C00F00A0319F10A0319F20A0319F30AF31F0C
:10049C00F529A0012016FF34A0017C1C562A4B2103
:0404AC00003E080006
:1004B000C03021001505F000173070049500F830A9
:0E04C00020009500F830CB000B118B160800C1
:1004CE002830F1000030F20020004D08F10703182B
:1004DE00F20A71088400720885000008F000F00A24
:1004EE00710886007208870070088100F301730896
:1004FE00103C031C912A73084D060319912A2830CB
:10050E00860000308700730886070318870A81016A
:10051E00F30A7E2A28308400003085004D088407B7
:10052E000318850A0008F10071080A3C0318AA2A6C
:10053E004D08B80028308600003087004D08860729
:08054E000318870A810108006F
:1005560020004D08C6004E08C7004F08F0000130C5
:10056600F20070080319BA2AF235FF3EB52A72085E
:10057600C5007209C8005008F1000130F00071088A
:100586000319C82AF035FF3EC32A7008CA00F009CD
:100596007008C90080304D07840000304E3D85004C
:1005A6007208800470088005CC0155080319DC2AFE
:1005B600CC09803084024C08003A0319E52A490820
:1005C6008005E72A4A0880049F21E830F4000330BA
:1005D600F500F601F70169217008E0007108E100F5
:1005E6007208E2007308E3006008D6006108D700CD
:1005F6006208D8006308D9005108F0005208F100DB
:100606005308F2005408F300F035F10DF20DF30D26
:10061600F035F10DF20DF30D0A30F400F501F60197
:10062600F70169217008DA007108DB007208DC0046
:100636007308DD007008F4007108F5007208F60012
:100646007308F7006008F0006108F1006208F20024
:100656006308F300A6217008DE007108DF00710848
:10066600F400F5017408750403193C2B0230F00000
:100676008D2B5E08BF005A08F4005B08F5005C0885
:10068600F6005D08F7005608F0005708F100580814
:10069600F2005908F300A6217808F0007908F10065
:1006A6007A08F2007B08F3007008D6007108D700BC
:1006B6007208D8007308D9005A08F5005B08F600DE
:1006C6005C08F7005D08F800F837F70CF60CF50C37
:1006D60080307806F400803073067402031D7D2B8B
:1006E60072087702031D7D2B71087602031D7D2B90
:1006F600700875020318802BBF0A3F08F100F13617
:100706007108BE000730710203188C2B0130F0000F
:060716008D2BF00108002C
:10071C0001302000E7004C08E60646088400470834
:10072C0085004C08003A03199E2B4A088004A02B24
:10073C00490880053F08E8005721E60967080319B6
:10074C00BD2B67086605F000031DAF2B4A0880041B
:10075C00B12B49088005E73502303F02E8005721EC
:10076C00000000000000000000000000A42B4C085A
:10077C00003A0319C42B49088005C62B4A0880048B
:08078C003F08E80057210800B6
:1007940020002708013A031DD02B0C152708003A26
:0807A400031DD52B0C11080008
:1007AC0020000E18DA2B23148E18DD2BA3140E192F
:1007BC00E02B23158E19E32BA3150E1EE62B231607
:1007CC008E1EE92BA3160C1DEC2B23170C1EEF2BE6
:0407DC00A317080057
:0807E00020004B089500080001
:1007E80072302100990020008C0122008C01230026
:1007F8008C01203021008C0020008E0123008E0106
:1008080022008E010F3021008E0020000C118E1264
:1008180017302100970058220C30CD000030CE0050
:100828000130CF00D0018030D1002530D200D30173
:0A083800D401D501AB228B17080094
:10084200F0230B1164004208043C031D2A2C4108CA
:10085200183C0318472CC101C20101303B07F000CC
:1008620000303C3DF1007008BB007108BC00D6238B
:100872002330E4000030E500640884006508850048
:100882000008E6008E233A08E6008E234408023C64
:10089200031D4D2C4308003C03185A2CC301C4010C
:1008A2003908013A031D592C0130A706CA235A2CD4
:1008B2000C1101304107F0000030423DF100700898
:1008C200C1007108C20001304307F0000030443D0E
:0C08D200F1007008C3007108C4000800A9
:1008DE0012001E00F003031D6F2CF103031D6F2C7D
:0208EE00080000
:0608F00020004014080086
:1008F6002000B8018E1D832C0E1D832C0314842C1E
:100906000310031C8A2C8E1C8A2C70148B2C7010DE
:10091600701C912C0E1C912C0314922C0310031C9A
:10092600982C0130CD0067225B2E8E1D9E2C0E1D4D
:100936009E2C03149F2C0310031CA52C8E1CA52C87
:100946007014A62C70100E18AA2C0314AB2C0310CE
:10095600701CB12C031CB12C7014B22C7010701CBE
:10096600B82C0230CD0067225B2E0E19BC2C031466
:10097600BD2C03108E1DC32C031CC32C7014C42C59
:100986007010701CCA2C8E1CCA2C0314CB2C03109E
:10099600031CD12C0E1CD12C7014D22C7010701C80
:1009A600D82C0330CD0067225B2E0E19DC2C0314E5
:1009B600DD2C03108E1DE32C031CE32C7014E42C99
:1009C6007010701CEA2C8E1CEA2C7014EB2C701024
:1009D6000E18EF2C0314F02C0310701CF62C031CBD
:1009E600F62C7014F72C7010701CFD2C0430CD0002
:1009F60067225B2E8E1D032D0E1D032D7014042DF4
:100A060070108E18082D0314092D0310701C0F2D5D
:100A1600031C0F2D7014102D7010701C162D0E1C3B
:100A2600162D0314172D0310031C1D2D0530CD00A4
:100A360067225B2E8E1D232D0E1D232D7014242D53
:100A460070108E18282D0314292D0310701C2F2DBD
:100A5600031C2F2D7014302D70100E18342D031416
:100A6600352D0310701C3B2D031C3B2D70143C2DA3
:100A76007010701C422D0630CD0067225B2E0E19B9
:100A8600462D0314472D03108E1D4D2D031C4D2D91
:100A960070144E2D70108E18522D0314532D031002
:100AA600701C592D031C592D70145A2D7010701C72
:100AB600602D0E1C602D0314612D0310031C672D81
:100AC6000730CD0067225B2E0E196B2D03146C2D9B
:100AD60003108E1D722D031C722D7014732D701051
:100AE6008E18772D0314782D0310701C7E2D031C91
:100AF6007E2D70147F2D70100E18832D0314842DF7
:100B06000310701C8A2D031C8A2D70148B2D7010F7
:100B1600701C912D0830CD0067225B2E8E19952D05
:100B26000314962D0310031C9C2D0E1D9C2D701472
:100B36009D2D70108E18A12D0314A22D0310701C6C
:100B4600A82D031CA82D7014A92D7010701CAF2D94
:100B56000E1CAF2D0314B02D0310031CB62D093047
:100B6600CD0067225B2E8E19BA2D0314BB2D031000
:100B7600031CC12D0E1DC12D7014C22D70108E18B0
:100B8600C62D0314C72D0310701CCD2D031CCD2DAF
:100B96007014CE2D70100E18D22D0314D32D031001
:100BA600701CD92D031CD92D7014DA2D7010701CF1
:100BB600E02D0A30CD0067225B2E8E19E42D7014CD
:100BC600E52D70100E19E92D0314EA2D0310701C83
:100BD600F02D031CF02D7014F12D70108E18F52DCC
:100BE6000314F62D0310701CFC2D031CFC2D701431
:100BF600FD2D7010701C032E0E1C032E0314042EE4
:100C06000310031C0A2E0B30CD0067225B2E8E19B3
:100C16000E2E70140F2E70100E19132E0314142E90
:100C26000310701C1A2E031C1A2E70141B2E701023
:100C36008E181F2E0314202E0310701C262E031C44
:100C4600262E7014272E70100E182B2E03142C2E01
:100C56000310701C322E031C322E7014332E7010AB
:100C6600701C392E0C30CD0067225B2E8E193D2E5E
:100C760003143E2E0310031C442E0E1D442E701426
:100C8600452E7010701C4B2E8E1C4B2E03144C2EB2
:100C96000310031C522E0E1C522E7014532E70106D
:100CA600701C592E0D30CD0067225B2E0E30B80019
:040CB60064000800CE
:100CBA0020003808013A0319732E3808023A03193A
:100CCA00732E3808033A0319732E3808043A0319A5
:100CDA00732E3808053A0319732E762E0130B9009F
:100CEA00772EB9013808063A0319942E3808073ABC
:100CFA000319942E3808083A0319942E3808093A29
:100D0A000319942E38080A3A0319942E38080B3A14
:100D1A000319942E38080C3A0319942E962E0E169F
:100D2A00972E0E123808023A031DCA2EBB01BC01C7
:100D3A008E1600303C02031DA42E06303B02031817
:100D4A00A72E9E2E8E120130BD008E1DB02E0E1DB6
:100D5A00B02E0314B12E0310031CB72E8E1CB72E0F
:100D6A007114B82E71100E18BC2E0314BD2E031068
:100D7A00711CC32E031CC32E7114C42E7110711C56
:100D8A00C82E6400AA2EB901032F3808063A031D9B
:100D9A00022FBB01BC018E1600303C02031DD72E68
:100DAA0006303B020318DA2ED12E8E120130BD0016
:100DBA008E1DE32E0E1DE32E7114E42E71108E1873
:100DCA00E82E0314E92E0310711CEF2E031CEF2EDC
:100DDA007114F02E71100E18F42E0314F52E031050
:100DEA00711CFB2E031CFB2E7114FC2E7110711C3E
:100DFA00002F6400DD2EB901032F8E1238080E3A37
:0E0E0A00031D0B2FB9010E128E120C110800E1
:100E18003A27F423A501A6017B243808003C0318CF
:100E2800182F3808BA005D26B8016400102F1B2F50
:100E74001F308400873085001B30F0000130F10002
:0C0E840023308600003087006F24080037
:020E3E0000347E
:020E400000347C
:040E42000034003444
:020E4600013475
:100E480000340034003400340034003400340034FA
:100E580000340034003400340034003400340034EA
:020E6800003454
:020E6A00003452
:020E6C00003450
:040E6E000034003418
:020E720000344A
:020000040001F9
:04000E00E43FFF1FAD
:00000001FF
