:020000005B2B78
:1000080070082000A1007108A00080318B1E102804
:100018000B1D1028122310282108F0002008F100D9
:020028000900CD
:10002A0020004508013A031D1B280C154508003A13
:08003A00031D20280C11080031
:0800420020004B0895000800A6
:10004A00C03021001505F000173070049500F83013
:0E005A0020009500F830CB000B118B1608002B
:1000680020004C08F000F101F035F10D2630700742
:10007800F2000030713DF3007208840073088500B7
:100088000008F00001310008F100F00A0319F10A34
:100098007208860073088700700881007108413172
:1000A8008100F40174080E3C031C6E2874084C0689
:1000B80003196E287408F000F101F035F10D2630AF
:1000C800700786000030713D870081014131810150
:1000D800F40A56284C08F000F101F035F10D2630ED
:1000E800700784000030713D85000008F10001317F
:1000F8000008F20072082E3C031D84287108E03CB9
:10010800031896284C08C4004C08F000F101F0359B
:10011800F10D2630700786000030713D870081019F
:06012800413181010800D5
:10012E002000C4010E199D2870149E2870108E1880
:10013E00A2280314A3280310701CA928031CA928A5
:10014E007014AA2870100E18AE280314AF280310CE
:10015E00701CB528031CB5287014B6287010701CBE
:10016E00BC288C1EBC280314BD280310031CC328F6
:10017E000130CC003420622A8E18C7280314C828F8
:10018E0003100E1DCE28031CCE287014CF2870101D
:10019E000E18D3280314D4280310701CDA28031C5D
:1001AE00DA287014DB287010701CE1288C1EE128F0
:1001BE000314E2280310031CE8280230CC0034207C
:1001CE00622A0E19EC287014ED2870108E18F12882
:1001DE000314F2280310701CF828031CF82870145E
:1001EE00F9287010701CFF280E1CFF28031400291C
:1001FE000310031C06298C1E062970140729701083
:10020E00701C0D290330CC003420622A0E191129DE
:10021E00031412290310031C18298E1C182970149C
:10022E0019297010701C1F290E1C1F290314202958
:10023E000310031C26298C1E2629701427297010E2
:10024E00701C2D290430CC003420622A0E1D332957
:10025E008E1C3329031434290310031C3A290E1C57
:10026E003A2970143B297010701C41298C1E4129AB
:10027E00031442290310031C48290530CC003420F6
:10028E00622A0E194C2903144D290310031C5329FD
:10029E008E1C53297014542970100E1858290314EB
:1002AE0059290310701C5F29031C5F2970146029E3
:1002BE007010701C66298C1E6629031467290310A2
:1002CE00031C6D290630CC003420622A8E18712949
:1002DE000314722903100E1D7829031C782970143B
:1002EE00792970100E187D2903147E290310701CB5
:1002FE008429031C84297014852970108C1A89296D
:10030E0003148A290310701C9029031C9029701461
:10031E0091297010701C97290730CC003420622A66
:10032E000E199B2970149C2970108E18A029031485
:10033E00A1290310701CA729031CA7297014A82932
:10034E007010701CAE290E1CAE297014AF297010DF
:10035E008C1AB3290314B4290310701CBA29031C78
:10036E00BA297014BB297010701CC1290830CC003A
:10037E003420622A0E19C5297014C62970108E18E1
:10038E00CA290314CB290310701CD129031CD129AF
:10039E007014D22970100E18D6290314D729031001
:1003AE00701CDD29031CDD297014DE2970108C1AD7
:1003BE00E2290314E3290310701CE929031CE9291F
:1003CE007014EA297010701CF0290930CC0034200A
:1003DE00622A0E19F4290314F5290310031CFB29B4
:1003EE008E1CFB297014FC2970100E18002A0314A1
:1003FE00012A0310701C072A031C072A7014082AEE
:10040E0070108C1A0C2A03140D2A0310701C132A58
:10041E00031C132A7014142A7010701C1A2A0A3026
:10042E00CC003420622A0E1D202A8E1C202A031492
:10043E00212A0310031C272A0E1C272A7014282A8F
:10044E0070108C1A2C2A03142D2A0310701C332AB8
:10045E00031C332A7014342A7010701C3A2A0B3085
:10046E00CC003420622A0E193E2A03143F2A0310B0
:10047E00031C452A8E1C452A7014462A7010701CC7
:10048E004C2A0E1C4C2A70144D2A70108C1A512AAC
:10049E000314522A0310701C582A031C582A701475
:1004AE00592A7010701C5F2A0C30CC003420622A3E
:0A04BE000E30CC003420640008006A
:1004C80020004408013A0319762A4408063A031919
:1004D800762A4408093A0319762A44080A3A03197D
:1004E800762A792A0130A3007A2AA3014408083A17
:1004F8000319872A44080B3A0319872A44080C3A37
:100508000319872A892A8E158A2A8E1144080A3ADD
:10051800031DC72AC601C7018E1600304702031DF6
:10052800972A0630460203189A2A912A8E12013019
:10053800C8000E19A12A0314A22A0310031CA82A12
:100548008E1CA82A7114A92A71100E18AD2A03143A
:10055800AE2A0310711CB42A031CB42A7114B52ADC
:1005680071108C1AB92A0314BA2A0310711CC02AF4
:10057800031CC02A7114C12A7110711CC52A640099
:100588009D2AA301002B44080C3A031DFF2AC6012B
:10059800C7018E1600304702031DD42A06304602D2
:1005A8000318D72ACE2A8E120130C8000E19DE2A67
:1005B8000314DF2A0310031CE52A8E1CE52A711494
:1005C800E62A7110711CEC2A0E1CEC2A7114ED2A13
:1005D80071108C1AF12A0314F22A0310711CF82ADC
:1005E800031CF82A7114F92A7110711CFD2A640081
:1005F800DA2AA301002B8E1244080E3A031D082B99
:0A060800A3018E118E120C110800E0
:1006120012001E00F003031D092BF103031D092B19
:020622000800CE
:1006240021200B1164004A08043C031D1B2B4908BC
:10063400183C0318322BC901CA0101304607F000E7
:100644000030473DF1007008C6007108C700230858
:10065400013A031D312B0130C5061520322B0C1134
:1006640001304907F00000304A3DF1007008C9002C
:060674007108CA00080035
:10067A0072302100990020008C0122008C01230095
:10068A008C01203021008C0020008E0123008E0175
:10069A0022008E01073021008E0020000C118E12DC
:0C06AA0017302100970025208B17080056
:1006B60096233D23A401A50197204408003C031876
:1006C600672B4408A2006422C40164005F2B6A2BD6
:10072C006E308400833085002730F0000130F100FA
:0C073C00223086000030870009230800EE
:0206DC000034E8
:0206DE000034E6
:0406E00000340034AE
:1006E4000034003400340034003400340034003466
:1006F4000034003400340034003400340034003456
:100704000034003400340034003400340034003445
:0C071400003400340034003400340034A1
:020720000034A3
:020722000134A0
:040724000034003469
:0207280000349B
:020000040001F9
:04000E00CC39FF1FCB
:00000001FF
