:020000009E2B35
:1000080070082000A1007108A00080318B1E102804
:100018000B1D1028322310282108F0002008F100B9
:020028000900CD
:10002A0020004208013A031D1B280C154208003A19
:08003A00031D20280C11080031
:080042002000480895000800A9
:10004A00C03021001505F000173070049500F83013
:0E005A0020009500F830C8000B118B1608002E
:1000680020006808F000F101F035F10D2430700728
:10007800F2000030713DF3007208840073088500B7
:100088000008F00001310008F100F00A0319F10A34
:100098007208860073088700700881007108413172
:1000A8008100F40174080E3C031C6E28740868066D
:1000B80003196E287408F000F101F035F10D2430B1
:1000C800700786000030713D870081014131810150
:1000D800F40A56286808F000F101F035F10D2430D3
:1000E800700784000030713D85000008F10001317F
:1000F8000008F2007208003C031D842871080A3CBD
:10010800031896286808A2006808F000F101F03585
:10011800F10D2430700786000030713D87008101A1
:06012800413181010800D5
:10012E002000A2018E1D9F280E1D9F280314A028BB
:10013E000310031CA6288E1CA6287014A728701066
:10014E00701CAD280E1CAD280314AE280310031C22
:10015E00B4280130E8003420782A8E1DBA280E1DEE
:10016E00BA280314BB280310031CC1288E1CC128F7
:10017E007014C22870100E18C6280314C728031056
:10018E00701CCD28031CCD287014CE287010701C46
:10019E00D4280230E8003420782A0E19D828031407
:1001AE00D92803108E1DDF28031CDF287014E028C9
:1001BE007010701CE6288E1CE6280314E728031026
:1001CE00031CED280E1CED287014EE287010701C08
:1001DE00F4280330E8003420782A0E19F828031486
:1001EE00F92803108E1DFF28031CFF287014002908
:1001FE007010701C06298E1C0629701407297010A9
:10020E000E180B2903140C290310701C1229031C41
:10021E001229701413297010701C19290430E8006B
:10022E003420782A8E1D1F290E1D1F297014202997
:10023E0070108E182429031425290310701C2B29E5
:10024E00031C2B2970142C297010701C32290E1CC3
:10025E003229031433290310031C39290530E80011
:10026E003420782A8E1D3F290E1D3F2970144029F7
:10027E0070108E184429031445290310701C4B2945
:10028E00031C4B2970144C2970100E18502903149E
:10029E0051290310701C5729031C57297014582913
:1002AE007010701C5E290630E8003420782A0E1972
:1002BE0062290314632903108E1D6929031C692901
:1002CE0070146A2970108E186E2903146F2903108A
:1002DE00701C7529031C7529701476297010701CFA
:1002EE007C290E1C7C2903147D290310031C8329F1
:1002FE000730E8003420782A0E198729031488293C
:10030E0003108E1D8E29031C8E2970148F297010D8
:10031E008E189329031494290310701C9A29031C18
:10032E009A2970149B2970100E189F290314A02966
:10033E000310701CA629031CA6297014A72970107F
:10034E00701CAD290830E8003420782A8E19B129A6
:10035E000314B2290310031CB8290E1DB8297014FA
:10036E00B92970108E18BD290314BE290310701CF4
:10037E00C429031CC4297014C5297010701CCB2904
:10038E000E1CCB290314CC290310031CD2290930CF
:10039E00E8003420782A8E19D6290314D7290310A1
:1003AE00031CDD290E1DDD297014DE2970108E1838
:1003BE00E2290314E3290310701CE929031CE9291F
:1003CE007014EA2970100E18EE290314EF29031089
:1003DE00701CF529031CF5297014F6297010701C79
:1003EE00FC290A30E8003420782A8E19002A70146D
:1003FE00012A70100E19052A0314062A0310701C08
:10040E000C2A031C0C2A70140D2A70108E18112A37
:10041E000314122A0310701C182A031C182A7014B5
:10042E00192A7010701C1F2A0E1C1F2A0314202A52
:10043E000310031C262A0B30E8003420782A8E196C
:10044E002A2A70142B2A70100E192F2A0314302A00
:10045E000310701C362A031C362A7014372A7010AB
:10046E008E183B2A03143C2A0310701C422A031CCC
:10047E00422A7014432A70100E18472A0314482A71
:10048E000310701C4E2A031C4E2A70144F2A701033
:10049E00701C552A0C30E8003420782A8E19592AFF
:1004AE0003145A2A0310031C602A0E1D602A7014AE
:1004BE00612A7010701C672A8E1C672A0314682A22
:1004CE000310031C6E2A0E1C6E2A70146F2A7010F5
:1004DE00701C752A0D30E8003420782A0E30E800A2
:0604EE0034206400080048
:1004F40020002208013A03198C2A2208023A03191F
:100504008C2A2208033A03198C2A2208043A031974
:100514008C2A8F2A0130A300902AA3012208053ACD
:100524000319B12A2208063A0319B12A2208073A04
:100534000319B12A2208083A0319B12A2208093AF0
:100544000319B12A22080A3A0319B12A22080B3ADC
:100554000319B12A22080C3A0319B12AB32A0E1638
:10056400B42A0E122208023A031DE72AC601C70163
:100574008E1600304702031DC12A063046020318B6
:10058400C42ABB2A8E120130C5008E1DCD2A0E1D31
:10059400CD2A0314CE2A0310031CD42A8E1CD42A79
:1005A4007114D52A71100E18D92A0314DA2A0310EB
:1005B400711CE02A031CE02A7114E12A7110711CD9
:1005C400E52A6400C72AA301202B2208063A031D4A
:1005D4001F2BC601C7018E1600304702031DF42AE3
:1005E400063046020318F72AEE2A8E120130C5009F
:1005F4008E1D002B0E1D002B7114012B71108E18F3
:10060400052B0314062B0310711C0C2B031C0C2B41
:1006140071140D2B71100E18112B0314122B0310CF
:10062400711C182B031C182B7114192B7110711CBD
:100634001D2B6400FA2AA301202B8E1222080E3AE5
:0E064400031D282BA3010E128E120C110800AC
:1006520012001E00F003031D292BF103031D292B99
:0206620008008E
:1006640021200B1164006608043C031D3B2B650824
:10067400183C0318432BE501E601460AF000700814
:10068400C6004A08023C031D492B4908003C0318D4
:10069400562BC901CA012308013A031D552B013009
:1006A400C2061520562B0C1101306507F0000030EE
:1006B400663DF1007008E5007108E6000130490765
:1006C400F00000304A3DF1007008C9007108CA000A
:0206D40008001C
:1006D60072302100990020008C0122008C01230039
:1006E6008C01203021008C0020008E0123008E0119
:1006F60022008E010F3021008E0020000C118E1278
:100706001730210097002520E701063067020318FD
:100716009C2B6708F000F101F035F10D4B307007A6
:1007260086000030713D8700810141318101E70A71
:06073600882B8B17080060
:10073C00D6236B23C301C40197202208003C031865
:0C074C00A82B7A22A2016400A22BAB2B88
:1007AC00AF308400833085002630F0000130F1003A
:0C07BC002230860000308700292308004E
:02075E00003465
:02076000003463
:1007620000340034003400340034003400340034E7
:1007720000340034003400340034003400340034D7
:1007820000340034003400340034003400340034C7
:0C07920000340034003400340034003423
:02079E00013424
:0407A00000340034ED
:0207A40000341F
:0407A60000340034E7
:020000040001F9
:04000E00A808030C2F
:00000001FF
