:02000000AB2F24
:1000080070082000A1007108A000803164008B1ED8
:1000180010280B1D102807232108F0002008F100E4
:020028000900CD
:0C002A002000CA01A2018E120C11080077
:1000360020004E08F000F101F035F10D2330700775
:10004600F2000030713DF3007208840073088500E9
:100056000008F00001310008F100F00A0319F10A66
:1000660072088600730887007008810071084131A4
:100076008100F4017408123C031C552874084E06CE
:10008600031955287408F000F101F035F10D2330FD
:10009600700786000030713D870081014131810182
:1000A600F40A3D284E08F000F101F035F10D233039
:1000B600700784000030713D85000008F1000131B1
:1000C6000008F2007208003C031D6B2871080A3C08
:1000D60003187D284E08C9004E08F000F101F035DE
:1000E600F10D2330700786000030713D87008101D5
:0600F60041318101080008
:1000FC00C03021001505F000173070049500F83061
:0A010C00200095000B118B1608006F
:1001160072302100990020008C0122008C012300FE
:100126008C01203021008C0020008E0123008E01DE
:1001360022008E01073021008E0020000C118E1245
:0C0146001730210097007E208B17080066
:100152002000C9018C1AAF287014B02870108E18B4
:10016200B4280314B5280310701CBB28031CBB2839
:100172007014BC2870100E19C0280314C128031073
:10018200701CC728031CC7287014C82870100E18CA
:10019200CC280314CD280310701CD328031CD328A9
:1001A2007014D4287010701CDA280130CE001B2085
:1001B200FD2A8C1ADE287014DF2870108E18E328AE
:1001C2000314E4280310701CEA28031CEA287014A4
:1001D200EB2870100E19EF280314F0280310701C7E
:1001E200F628031CF6287014F7287010701CFD28DE
:1001F2000E1CFD280314FE280310031C04290230E0
:10020200CE001B20FD2A8C1A0829701409297010AF
:100212008E180D2903140E290310701C1429031CB7
:100222001429701415297010701C1B290E1D1B290E
:1002320070141C2970100E18202903142129031090
:10024200701C2729031C2729701428297010701C80
:100252002E290330CE001B20FD2A8C1A322970145D
:10026200332970108E183729031438290310701C93
:100272003E29031C3E2970143F297010701C452929
:100282000E1D4529031446290310031C4C290E1C7C
:100292004C2970144D297010701C53290430CE0063
:1002A2001B20FD2A8C1A5729031458290310031CFA
:1002B2005E298E1C5E2970145F2970100E19632945
:1002C200031464290310701C6A29031C6A29701420
:1002D2006B2970100E186F29031470290310701CFB
:1002E2007629031C7629701477297010701C7D29D9
:1002F2000530CE001B20FD2A8C1A81290314822985
:100302000310031C88298E1C8829701489297010F7
:100312000E198D2903148E290310701C9429031CB5
:100322009429701495297010701C9B290E1C9B290E
:1003320003149C290310031CA2290630CE001B20A3
:10034200FD2A8C1AA6290314A7290310031CAD2920
:100352008E1CAD297014AE297010701CB4290E1DAC
:10036200B4297014B52970100E18B9290314BA29CA
:100372000310701CC029031CC0297014C1297010FD
:10038200701CC7290730CE001B20FD2A8C1ACB29EE
:100392000314CC290310031CD2298E1CD2297014F9
:1003A200D3297010701CD9290E1DD9290314DA29FA
:1003B2000310031CE0290E1CE0297014E1297010BF
:1003C200701CE7290830CE001B20FD2A8E18EB296D
:1003D2000314EC2903108C1EF229031CF229701459
:1003E200F32970100E19F7290314F8290310701C51
:1003F200FE29031CFE297014FF2970100E18032A0F
:100402000314042A0310701C0A2A031C0A2A7014FB
:100412000B2A7010701C112A0930CE001B20FD2AF5
:100422008E18152A0314162A03108C1E1C2A031C6C
:100432001C2A70141D2A70100E19212A0314222A54
:100442000310701C282A031C282A7014292A7010F1
:10045200701C2F2A0E1C2F2A0314302A0310031C8F
:10046200362A0A30CE001B20FD2A8E183A2A03149F
:100472003B2A03108C1E412A031C412A7014422A73
:100482007010701C482A0E1D482A7014492A7010D8
:100492000E184D2A03144E2A0310701C542A031CF2
:1004A200542A7014552A7010701C5B2A0B30CE002F
:1004B2001B20FD2A8E185F2A0314602A03108C1E4B
:1004C200662A031C662A7014672A7010701C6D2A33
:1004D2000E1D6D2A03146E2A0310031C742A0E1CAF
:1004E200742A7014752A7010701C7B2A0C30CE008E
:1004F2001B20FD2A8C1E812A8E1C812A7014822ABE
:1005020070100E19862A0314872A0310701C8D2A74
:10051200031C8D2A70148E2A70100E18922A03144E
:10052200932A0310701C992A031C992A70149A2A80
:100532007010701CA02A0D30CE001B20FD2A8C1ECC
:10054200A62A8E1CA62A7014A72A70100E19AB2A8E
:100552000314AC2A0310701CB22A031CB22A7014B2
:10056200B32A7010701CB92A0E1CB92A0314BA2AB5
:100572000310031CC02A0E30CE001B20FD2A8C1E45
:10058200C62A8E1CC62A0314C72A0310031CCD2AAE
:100592000E1DCD2A7014CE2A70100E18D22A031402
:1005A200D32A0310701CD92A031CD92A7014DA2A00
:1005B2007010701CE02A0F30CE001B20FD2A8C1E0A
:1005C200E62A8E1CE62A0314E72A0310031CED2AEE
:1005D2000E1DED2A7014EE2A7010701CF42A0E1CE7
:1005E200F42A0314F52A0310031CFB2A1030CE0050
:0A05F2001B20FD2A1130C90008008B
:1005FC0012001E00F003031DFE2AF103031DFE2A48
:02060C000800E4
:10060E00F830200095000B114C08043C031D112BF3
:10061E004B08183C03182E2BCB01CC010130470799
:10062E00F0000030483DF1007008C7007108C800A6
:10063E002208013A031D2D2B0130CA064A08013A41
:10064E00031D2B2B0C152C2B0C112E2B0C110130EA
:10065E004B07F00000304C3DF1007008CB007108E4
:04066E00CC000800B4
:100672002000CD01802FC701C80100304802031DB0
:10068200442B05304702013003180030F1008C1A68
:100692004C2B72144D2B72108E18512B0314522BAB
:1006A2000310721C582B031C582B7214592B7210F6
:1006B2000E195D2B03145E2B0310721C642B031C9A
:1006C200642B7214652B72100E18692B03146A2B9B
:1006D2000310721C702B031C702B7214712B72107E
:1006E200F0017218F00A7108F0050319792B3E2BFC
:1006F2008C1A7D2B72147E2B72108E18822B03148F
:10070200832B0310721C892B031C892B72148A2BD6
:1007120072100E198E2B03148F2B0310721C952B43
:10072200031C952B7214962B72100E189A2B03141D
:100732009B2B0310721CA12B031CA12B7214A22B46
:100742007210721CD22B8C1AA82B7214A92B721045
:100752008E18AD2B0314AE2B0310721CB42B031C8A
:10076200B42B7214B52B72100E19B92B0314BA2BB9
:100772000310721CC02B031CC02B7214C12B7210ED
:100782000E18C52B0314C62B0310721CCC2B031C92
:10079200CC2B7214CD2B7210721CD22B0130A20002
:1007A200A42BA92F8E16C701C80100304802031DD1
:1007B200DC2B05304702013003180030F1008C1A9F
:1007C200E42B0314E52B0310031CEB2B8E1CEB2BE9
:1007D2007214EC2B72100E19F02B0314F12B031070
:1007E200721CF72B031CF72B7214F82B72100E18C5
:1007F200FC2B0314FD2B0310721C032C031C032C73
:100802007214042C7210F0017218F00A7108F005CB
:1008120003190C2CD62B8C1A102C0314112C031038
:10082200031C172C8E1C172C7214182C72100E1904
:100832001C2C03141D2C0310721C232C031C232CB0
:100842007214242C72100E18282C0314292C031055
:10085200721C2F2C031C2F2C7214302C7210721C41
:100862005B2C8C1A362C0314372C0310031C3D2CE2
:100872008E1C3D2C72143E2C72100E19422C031445
:10088200432C0310721C492C031C492C72144A2C51
:1008920072100E184E2C03144F2C0310721C552C80
:1008A200031C552C7214562C7210721C5B2C0130D6
:1008B200A200322CA92F8C1A602C0314612C031075
:1008C200031C672C8E1C672C7214682C72100E1974
:1008D2006C2C03146D2C0310721C732C031C732CD0
:1008E2007214742C7210721C7A2C0E1C7A2C031443
:1008F2007B2C0310031C802C8E16A2015C2CA92FCA
:100902008C1A852C0314862C0310031C8C2C8E1C31
:100912008C2C72148D2C7210721C932C0E1D932C25
:100922007214942C72100E18982C0314992C031024
:10093200721C9F2C031C9F2C7214A02C7210721C10
:10094200A52C8E16A201812CA92F8C1AAA2C031475
:10095200AB2C0310031CB12C8E1CB12C7214B22CC4
:100962007210721CB82C0E1DB82C0314B92C031073
:10097200031CBF2C0E1CBF2C7214C02C7210721CD4
:10098200C52C8E16A201A62CA92FC701C8010030C2
:100992004802031DCE2C05304702013003180030F7
:1009A200F1008E18D62C0314D72C03108C1EDD2CCC
:1009B200031CDD2C7214DE2C72100E19E22C0314AF
:1009C200E32C0310721CE92C031CE92C7214EA2C90
:1009D20072100E18EE2C0314EF2C0310721CF52C5F
:1009E200031CF52C7214F62C7210F0017218F00A26
:1009F2007108F0050319FE2CC82C8E18022D031461
:100A0200032D03108C1E092D031C092D72140A2DAF
:100A120072100E190E2D03140F2D0310721C152DBA
:100A2200031C152D7214162D72100E181A2D031494
:100A32001B2D0310721C212D031C212D7214222D3B
:100A42007210721C4D2D8E18282D0314292D03109F
:100A52008C1E2F2D031C2F2D7214302D72100E1987
:100A6200342D0314352D0310721C3B2D031C3B2D1A
:100A720072143C2D72100E18402D0314412D0310D8
:100A8200721C472D031C472D7214482D7210721CC4
:100A92004D2D0130A200242DA92FC701C80100301D
:100AA2004802031D562D053047020130031800305D
:100AB200F1008C1E602D8E1C602D7214612D72103F
:100AC2000E19652D0314662D0310721C6C2D031C68
:100AD2006C2D72146D2D72100E18712D0314722D5F
:100AE2000310721C782D031C782D7214792D72104C
:100AF200F0017218F00A7108F0050319812D502DCA
:100B02008C1E872D8E1C872D7214882D72100E1943
:100B12008C2D03148D2D0310721C932D031C932D09
:100B22007214942D72100E18982D0314992D03101F
:100B3200721C9F2D031C9F2D7214A02D7210721C0B
:100B4200E92DC701C8018C1EAA2D8E1CAA2D721474
:100B5200AB2D72100E19AF2D0314B02D0310721CA1
:100B6200B62D031CB62D7214B72D72100E18BB2DA4
:100B72000314BC2D0310721CC22D031CC22D72144F
:100B8200C32D7210721CD32D0130A2008E1648089C
:100B9200003C031DCE2D4708053C0318D22D013021
:100BA200CD00A42D4D08003A0130031D0030F100A4
:100BB20000304802031DDF2D0530470201300318C3
:100BC2000030F0007108F0050319E92D8E16D32DBF
:100BD200A92FA201C701C80100304802031DF32D4D
:100BE20005304702013003180030F1008C1EFD2D44
:100BF2008E1CFD2D7214FE2D72100E19022E03147E
:100C0200032E0310721C092E031C092E72140A2EC5
:100C12007210721C102E0E1C102E0314112E0310B3
:100C2200F0010318F00A7108F0050319192EED2DD1
:100C32008C1E1F2E8E1C1F2E7214202E72100E1947
:100C4200242E0314252E0310721C2B2E031C2B2E74
:100C520072142C2E7210721C322E0E1C322E0314A1
:100C6200332E0310031C752EC701C8018C1E3D2EA6
:100C72008E1C3D2E72143E2E72100E19422E03143B
:100C8200432E0310721C492E031C492E72144A2E45
:100C92007210721C502E0E1C502E0314512E031073
:100CA200031C5F2E8E164808003C031D5A2E47086F
:100CB200053C03185E2E0130CD00372E4D08003A58
:100CC2000130031D0030F10000304802031D6B2E7D
:100CD20005304702013003180030F0007108F005BA
:100CE2000319752E8E165F2EA92FA201C701C80106
:100CF20000304802031D7F2E0530470201300318E1
:100D02000030F1008C1E892E8E1C892E03148A2E2F
:100D12000310031C902E0E1D902E7214912E721031
:100D22000E18952E0314962E0310721C9C2E031C73
:100D32009C2E72149D2E7210F0017218F00A710826
:100D4200F0050319A52E792E8C1EAB2E8E1CAB2E10
:100D52000314AC2E0310031CB22E0E1DB22E7214FD
:100D6200B32E72100E18B72E0314B82E0310721C75
:100D7200BE2E031CBE2E7214BF2E7210721C012FC7
:100D8200C701C8018C1EC92E8E1CC92E0314CA2E7F
:100D92000310031CD02E0E1DD02E7214D12E7210F1
:100DA2000E18D52E0314D62E0310721CDC2E031C33
:100DB200DC2E7214DD2E7210721CEB2E8E16480879
:100DC200003C031DE62E4708053C0318EA2E0130BD
:100DD200CD00C32E4D08003A0130031D0030F10052
:100DE20000304802031DF72E053047020130031878
:100DF2000030F0007108F0050319012F8E16EB2E5A
:100E0200A92FA201C701C80100304802031D0B2F00
:100E120005304702013003180030F1008C1E152FF7
:100E22008E1C152F0314162F0310031C1C2F0E1DCE
:100E32001C2F72141D2F7210721C232F0E1C232FB5
:100E42000314242F0310F0010318F00A7108F005AF
:100E520003192C2F052F8C1E322F8E1C322F0314B8
:100E6200332F0310031C392F0E1D392F72143A2F02
:100E72007210721C402F0E1C402F0314412F0310BE
:100E8200031C7E2FC701C8018C1E4B2F8E1C4B2FBB
:100E920003144C2F0310031C522F0E1D522F7214D9
:100EA200532F7210721C592F0E1C592F03145A2FD4
:100EB2000310031C682F8E164808003C031D632F85
:100EC2004708053C0318672F0130CD00452F4D0818
:100ED200003A0130031D0030F10000304802031DCA
:100EE200742F05304702013003180030F0007108FA
:100EF200F00503197E2F8E16682FA92FA92F4908F6
:100F0200013A03193C2B4908053A0319D32B490826
:100F1200063A03195C2C4908073A0319812C49083F
:100F2200083A0319A62C4908093A0319C62C49089C
:100F32000D3A03194E2D49080E3A0319EA2D4908B4
:100F42000F3A0319762E4908103A0319022F7F2F00
:040F5200152008005E
:100F5600E2278B20A9204908003C0318B32F392328
:060F6600C901AD2FB52FFB
:100FC400B9308400873085002930F0000130F10009
:0C0FD4002230860000308700FE2208005A
:020F7200003449
:100F740000340034003400340034003400340034CD
:100F840000340034003400340034003400340034BD
:100F940000340034003400340034003400340034AD
:100FA400003400340034003400340034003400349D
:080FB400003400340034003465
:040FBC0000340034C9
:020FC0000034FB
:020FC2000134F8
:020000040001F9
:04000E00CC39FF1FCB
:00000001FF
