:02000000AE2F21
:1000080070082000A1007108A000803164008B1ED8
:1000180010280B1D102866272108F0002008F10081
:020028000900CD
:10002A0020002508013A031D1B280C152508003A53
:08003A00031D20280C11080031
:0800420020004D0895000800A4
:10004A00C03021001505F000173070049500F83013
:0E005A0020009500F830CD000B118B16080029
:1000680020005108F000F101F035F10D263070073D
:10007800F2000030713DF3007208840073088500B7
:100088000008F00001310008F100F00A0319F10A34
:100098007208860073088700700881007108413172
:1000A8008100F4017408123C031C6E287408510680
:1000B80003196E287408F000F101F035F10D2630AF
:1000C800700786000030713D870081014131810150
:1000D800F40A56285108F000F101F035F10D2630E8
:1000E800700784000030713D85000008F10001317F
:1000F8000008F2007208003C031D842871080A3CBD
:10010800031896285108CC005108F000F101F03589
:10011800F10D2630700786000030713D870081019F
:06012800413181010800D5
:10012E002000CC018C1A9D2870149E2870108E18F9
:10013E00A2280314A3280310701CA928031CA928A5
:10014E007014AA2870100E19AE280314AF280310CD
:10015E00701CB528031CB5287014B62870100E1824
:10016E00BA280314BB280310701CC128031CC12815
:10017E007014C2287010701CC8280130D1003420B1
:10018E00EB2A8C1ACC287014CD2870108E18D1281A
:10019E000314D2280310701CD828031CD8287014FE
:1001AE00D92870100E19DD280314DE280310701CD8
:1001BE00E428031CE4287014E5287010701CEB284A
:1001CE000E1CEB280314EC280310031CF22802303B
:1001DE00D1003420EB2A8C1AF6287014F7287010F0
:1001EE008E18FB280314FC280310701C0229031C14
:1001FE000229701403297010701C09290E1D09297B
:10020E0070140A2970100E180E2903140F290310EA
:10021E00701C1529031C1529701416297010701CDA
:10022E001C290330D1003420EB2A8C1A202970149B
:10023E00212970108E182529031426290310701CED
:10024E002C29031C2C2970142D297010701C332995
:10025E000E1D3329031434290310031C3A290E1CD6
:10026E003A2970143B297010701C41290430D100BA
:10027E003420EB2A8C1A4529031446290310031C3B
:10028E004C298E1C4C2970144D2970100E195129B1
:10029E00031452290310701C5829031C582970147A
:1002AE00592970100E185D2903145E290310701C55
:1002BE006429031C6429701465297010701C6B2945
:1002CE000530D1003420EB2A8C1A6F2903147029C3
:1002DE000310031C76298E1C762970147729701052
:1002EE000E197B2903147C290310701C8229031C10
:1002FE008229701483297010701C89290E1C89297B
:10030E0003148A290310031C90290630D1003420CF
:10031E00EB2A8C1A9429031495290310031C9B298C
:10032E008E1C9B2970149C297010701CA2290E1D06
:10033E00A2297014A32970100E18A7290314A82936
:10034E000310701CAE29031CAE297014AF29701057
:10035E00701CB5290730D1003420EB2A8C1AB9292C
:10036E000314BA290310031CC0298E1CC029701453
:10037E00C1297010701CC7290E1DC7290314C82966
:10038E000310031CCE290E1CCE297014CF29701019
:10039E00701CD5290830D1003420EB2A8E18D929AB
:1003AE000314DA2903108C1EE029031CE0297014B3
:1003BE00E12970100E19E5290314E6290310701CAB
:1003CE00EC29031CEC297014ED2970100E18F1297C
:1003DE000314F2290310701CF829031CF829701459
:1003EE00F9297010701CFF290930D1003420EB2A36
:1003FE008E18032A0314042A03108C1E0A2A031CC7
:10040E000A2A70140B2A70100E190F2A0314102AC0
:10041E000310701C162A031C162A7014172A70104B
:10042E00701C1D2A0E1C1D2A03141E2A0310031CE9
:10043E00242A0A30D1003420EB2A8E18282A0314DD
:10044E00292A03108C1E2F2A031C2F2A7014302ADF
:10045E007010701C362A0E1D362A7014372A701032
:10046E000E183B2A03143C2A0310701C422A031C4C
:10047E00422A7014432A7010701C492A0B30D10086
:10048E003420EB2A8E184D2A03144E2A03108C1E8C
:10049E00542A031C542A7014552A7010701C5B2A9F
:1004AE000E1D5B2A03145C2A0310031C622A0E1C09
:1004BE00622A7014632A7010701C692A0C30D100E5
:1004CE003420EB2A8C1E6F2A8E1C6F2A7014702A11
:1004DE0070100E19742A0314752A0310701C7B2ACF
:1004EE00031C7B2A70147C2A70100E18802A0314A9
:1004FE00812A0310701C872A031C872A7014882AED
:10050E007010701C8E2A0D30D1003420EB2A8C1EF8
:10051E00942A8E1C942A7014952A70100E19992AFA
:10052E0003149A2A0310701CA02A031CA02A70140C
:10053E00A12A7010701CA72A0E1CA72A0314A82A21
:10054E000310031CAE2A0E30D1003420EB2A8C1E71
:10055E00B42A8E1CB42A0314B52A0310031CBB2A1A
:10056E000E1DBB2A7014BC2A70100E18C02A03145C
:10057E00C12A0310701CC72A031CC72A7014C82A6C
:10058E007010701CCE2A0F30D1003420EB2A8C1E36
:10059E00D42A8E1CD42A0314D52A0310031CDB2A5A
:1005AE000E1DDB2A7014DC2A7010701CE22A0E1C41
:1005BE00E22A0314E32A0310031CE92A1030D100A7
:0A05CE003420EB2A1130CC000800A5
:1005D8002000D001332FA301A40100302402031D01
:1005E800F72A05302302013003180030F1008C1A75
:1005F800FF2A7214002B72108E18042B0314052B7B
:100608000310721C0B2B031C0B2B72140C2B721077
:100618000E19102B0314112B0310721C172B031C1B
:10062800172B7214182B72100E181C2B03141D2B69
:100638000310721C232B031C232B7214242B7210FF
:10064800F0017218F00A7108F00503192C2BF12A31
:100658008C1A302B7214312B72108E18352B031410
:10066800362B0310721C3C2B031C3C2B72143D2BA5
:1006780072100E19412B0314422B0310721C482BC5
:10068800031C482B7214492B72100E184D2B03149F
:100698004E2B0310721C542B031C542B7214552B15
:1006A8007210721C852B8C1A5B2B72145C2B7210C7
:1006B8008E18602B0314612B0310721C672B031C0C
:1006C800672B7214682B72100E196C2B03146D2B88
:1006D8000310721C732B031C732B7214742B72106F
:1006E8000E18782B0314792B0310721C7F2B031C14
:1006F8007F2B7214802B7210721C852B0130A20084
:10070800572B5C2F8E16A301A40100302402031D71
:100718008F2B05302302013003180030F1008C1AAA
:10072800972B0314982B0310031C9E2B8E1C9E2BB7
:1007380072149F2B72100E19A32B0314A42B0310F1
:10074800721CAA2B031CAA2B7214AB2B72100E1846
:10075800AF2B0314B02B0310721CB62B031CB62B43
:100768007214B72B7210F0017218F00A7108F005B4
:100778000319BF2B892B8C1AC32B0314C42B03100A
:10078800031CCA2B8E1CCA2B7214CB2B72100E1989
:10079800CF2B0314D02B0310721CD62B031CD62B83
:1007A8007214D72B72100E18DB2B0314DC2B0310DA
:1007B800721CE22B031CE22B7214E32B7210721CC6
:1007C8000E2C8C1AE92B0314EA2B0310031CF02BB4
:1007D8008E1CF02B7214F12B72100E19F52B0314CA
:1007E800F62B0310721CFC2B031CFC2B7214FD2B24
:1007F80072100E18012C0314022C0310721C082C02
:10080800031C082C7214092C7210721C0E2C013057
:10081800A200E52B5C2F8C1A132C0314142C031044
:10082800031C1A2C8E1C1A2C72141B2C72100E19F5
:100838001F2C0314202C0310721C262C031C262C9E
:100848007214272C7210721C2D2C0E1C2D2C0314C4
:100858002E2C0310031C332C8E16A2010F2C5C2F98
:100868008C1A382C0314392C0310031C3F2C8E1CB3
:100878003F2C7214402C7210721C462C0E1D462CF4
:100888007214472C72100E184B2C03144C2C0310A6
:10089800721C522C031C522C7214532C7210721C92
:1008A800582C8E16A201342C5C2F8C1A5D2C031444
:1008B8005E2C0310031C642C8E1C642C7214652C93
:1008C8007210721C6B2C0E1D6B2C03146C2C0310F5
:1008D800031C722C0E1C722C7214732C7210721C56
:1008E800782C8E16A201592C5C2FA301A40100308C
:1008F8002402031D812C0530230201300318003027
:10090800F1008E18892C03148A2C03108C1E902C4D
:10091800031C902C7214912C72100E19952C031430
:10092800962C0310721C9C2C031C9C2C72149D2C5E
:1009380072100E18A12C0314A22C0310721CA82CE0
:10094800031CA82C7214A92C7210F0017218F00A5A
:100958007108F0050319B12C7B2C8E18B52C0314E3
:10096800B62C03108C1EBC2C031CBC2C7214BD2C82
:1009780072100E19C12C0314C22C0310721CC82C3F
:10098800031CC82C7214C92C72100E18CD2C031419
:10099800CE2C0310721CD42C031CD42C7214D52C0E
:1009A8007210721C002D8E18DB2C0314DC2C031023
:1009B8008C1EE22C031CE22C7214E32C72100E190C
:1009C800E72C0314E82C0310721CEE2C031CEE2CED
:1009D8007214EF2C72100E18F32C0314F42C03105D
:1009E800721CFA2C031CFA2C7214FB2C7210721C49
:1009F800002D0130A200D72C5C2FA301A4010030E8
:100A08002402031D092D053023020130031800308C
:100A1800F1008C1E132D8E1C132D7214142D7210C0
:100A28000E19182D0314192D0310721C1F2D031CE9
:100A38001F2D7214202D72100E18242D0314252D2D
:100A48000310721C2B2D031C2B2D72142C2D7210CD
:100A5800F0017218F00A7108F0050319342D032DFE
:100A68008C1E3A2D8E1C3A2D72143B2D72100E19C5
:100A78003F2D0314402D0310721C462D031C462DD8
:100A88007214472D72100E184B2D03144C2D0310A1
:100A9800721C522D031C522D7214532D7210721C8D
:100AA8009C2DA301A4018C1E5D2D8E1C5D2D72143E
:100AB8005E2D72100E19622D0314632D0310721C23
:100AC800692D031C692D72146A2D72100E186E2D73
:100AD80003146F2D0310721C752D031C752D7214D1
:100AE800762D7210721C862D0130A2008E162408F5
:100AF800003C031D812D2308053C0318852D01307A
:100B0800D000572D5008003A0130031D0030F10085
:100B180000302402031D922D0530230201300318F2
:100B28000030F0007108F00503199C2D8E16862DF3
:100B38005C2FA201A301A40100302402031DA62DED
:100B480005302302013003180030F1008C1EB02D4F
:100B58008E1CB02D7214B12D72100E19B52D031400
:100B6800B62D0310721CBC2D031CBC2D7214BD2D98
:100B78007210721CC32D0E1CC32D0314C42D031038
:100B8800F0010318F00A7108F0050319CC2DA02D07
:100B98008C1ED22D8E1CD22D7214D32D72100E19CC
:100BA800D72D0314D82D0310721CDE2D031CDE2D47
:100BB8007214DF2D7210721CE52D0E1CE52D031426
:100BC800E62D0310031C282EA301A4018C1EF02D72
:100BD8008E1CF02D7214F12D72100E19F52D0314C0
:100BE800F62D0310721CFC2D031CFC2D7214FD2D18
:100BF8007210721C032E0E1C032E0314042E0310F5
:100C0800031C122E8E162408003C031D0D2E2308EB
:100C1800053C0318112E0130D000EA2D5008003A87
:100C28000130031D0030F10000302402031D1E2E88
:100C380005302302013003180030F0007108F00578
:100C48000319282E8E16122E5C2FA201A301A401CF
:100C580000302402031D322E053023020130031810
:100C68000030F1008C1E3C2E8E1C3C2E03143D2EB1
:100C78000310031C432E0E1D432E7214442E7210B3
:100C88000E18482E0314492E0310721C4F2E031CF5
:100C98004F2E7214502E7210F0017218F00A71085B
:100CA800F0050319582E2C2E8C1E5E2E8E1C5E2EDF
:100CB80003145F2E0310031C652E0E1D652E72147F
:100CC800662E72100E186A2E03146B2E0310721CF7
:100CD800712E031C712E7214722E7210721CB42E97
:100CE800A301A4018C1E7C2E8E1C7C2E03147D2E49
:100CF8000310031C832E0E1D832E7214842E721073
:100D08000E18882E0314892E0310721C8F2E031CB4
:100D18008F2E7214902E7210721C9E2E8E1624081E
:100D2800003C031D992E2308053C03189D2E013015
:100D3800D000762E5008003A0130031D0030F10033
:100D480000302402031DAA2E0530230201300318A7
:100D58000030F0007108F0050319B42E8E169E2E8F
:100D68005C2FA201A301A40100302402031DBE2EA2
:100D780005302302013003180030F1008C1EC82E04
:100D88008E1CC82E0314C92E0310031CCF2E0E1D53
:100D9800CF2E7214D02E7210721CD62E0E1CD62E88
:100DA8000314D72E0310F0010318F00A7108F00598
:100DB8000319DF2EB82E8C1EE52E8E1CE52E03148B
:100DC800E62E0310031CEC2E0E1DEC2E7214ED2ED5
:100DD8007210721CF32E0E1CF32E0314F42E031043
:100DE800031C312FA301A4018C1EFE2E8E1CFE2E87
:100DF8000314FF2E0310031C052F0E1D052F72145C
:100E0800062F7210721C0C2F0E1C0C2F03140D2FA2
:100E18000310031C1B2F8E162408003C031D162FDD
:100E28002308053C03181A2F0130D000F82E50086B
:100E3800003A0130031D0030F10000302402031D88
:100E4800272F05302302013003180030F000710805
:100E5800F0050319312F8E161B2F5C2F5C2F4C08C1
:100E6800013A0319EF2A4C08053A0319862B4C0856
:100E7800063A03190F2C4C08073A0319342C4C086E
:100E8800083A0319592C4C08093A0319792C4C08CB
:100E98000D3A0319012D4C080E3A03199D2D4C08E3
:100EA8000F3A0319292E4C08103A0319B52E322F80
:020EB800080030
:100EBA0012001E00F003031D5D2FF103031D5D2FB9
:020ECA0008001E
:100ECC0021200B114F08043C031D6E2F4E08183CBB
:100EDC000318852FCE01CF0101302307F00000301D
:100EEC00243DF1007008A3007108A4002208013A07
:100EFC00031D842F0130A5061520852F0C11013000
:100F0C004E07F00000304F3DF1007008CE00710824
:040F1C00CF000800FA
:100F200072302100990020008C0122008C012300E6
:100F30008C01203021008C0020008E0123008E01C6
:100F400022008E01073021008E0020000C118E122D
:0C0F500017302100970025208B170800A7
:100F5C00EA279027CA01CB0197204C08003C0318C4
:0C0F6C00B82FEC22CC016400B22FBB2F88
:100FD400BF308400873085002B30F0000130F100F1
:0C0FE40022308600003087005D270800E6
:020F7E0000343D
:040F80000034003405
:020F8400013436
:100F860000340034003400340034003400340034BB
:100F960000340034003400340034003400340034AB
:100FA600003400340034003400340034003400349B
:100FB600003400340034003400340034003400348B
:080FC600003400340034003453
:040FCE0000340034B7
:020FD2000034E9
:020000040001F9
:04000E00CC39FF1FCB
:00000001FF
