:02000000B12C21
:1000080070082000A1007108A000803164008B1ED8
:1000180010280B1D1028A0212108F0002008F1004D
:020028000900CD
:0C002A002000CA01A2018E120C11080077
:1000360020005108F000F101F035F10D2330700772
:10004600F2000030713DF3007208840073088500E9
:100056000008F00001310008F100F00A0319F10A66
:1000660072088600730887007008810071084131A4
:100076008100F4017408123C031C552874085106CB
:10008600031955287408F000F101F035F10D2330FD
:10009600700786000030713D870081014131810182
:1000A600F40A3D285108F000F101F035F10D233036
:1000B600700784000030713D85000008F1000131B1
:1000C6000008F2007208003C031D6B287108143CFE
:1000D60003187D285108C9005108F000F101F035D8
:1000E600F10D2330700786000030713D87008101D5
:0600F60041318101080008
:1000FC00173021009500F830200095000B118B165D
:02010C000800E9
:10010E0072302100990020008C0122008C01230006
:10011E008C01203021008C0020008E0123008E01E6
:10012E0022008E01073021008E0020000C118E124D
:0C013E001730210097007E208B1708006E
:10014A002000C9018E18AB280314AC2803108C1E9A
:10015A00B228031CB2287014B32870100E19B728DD
:10016A000314B8280310701CBE28031CBE28701480
:10017A00BF2870100E18C3280314C4280310701C5B
:10018A00CA28031CCA287014CB287010701CD128E6
:10019A000130D1001B2096298C1ED7288E1CD72807
:1001AA007014D82870100E19DC280314DD280310E7
:1001BA00701CE328031CE3287014E42870100E183E
:1001CA00E8280314E9280310701CEF28031CEF2801
:1001DA007014F0287010701CF6280530D1001B200E
:1001EA0096298C1EFC288E1CFC287014FD28701081
:1001FA000E190129031402290310701C0829031C73
:10020A000829701409297010701C0F290E1C0F2957
:10021A00031410290310031C16290630D1001B20D1
:10022A0096298C1A1A2970141B2970108E181F29E6
:10023A00031420290310701C2629031C2629701474
:10024A00272970100E192B2903142C290310701C4E
:10025A003229031C32297014332970100E183729D9
:10026A00031438290310701C3E29031C3E297014FC
:10027A003F297010701C45290930D1001B2096298E
:10028A008C1A492903144A290310031C50298E1C6D
:10029A0050297014512970100E1955290314562922
:1002AA000310701C5C29031C5C2970145D297010F2
:1002BA000E186129031462290310701C6829031C93
:1002CA006829701469297010701C6F290D30D100CB
:1002DA001B2096298C1A7329031474290310031CF2
:1002EA007A298E1C7A2970147B2970100E197F299D
:1002FA00031480290310701C8629031C8629701494
:10030A0087297010701C8D290E1C8D2903148E29C3
:10031A000310031C94290E30D1001B20962911309A
:04032A00C9000800FE
:10032E0012001E00F003031D9729F103031D9729E8
:02033E000800B5
:10034000F830200095000B114C08043C031DAA292D
:100350004B08183C0318C729CB01CC0101304707D3
:10036000F0000030483DF1007008C7007108C80077
:100370002208013A031DC6290130CA064A08013A7B
:10038000031DC4290C15C5290C11C7290C110130F6
:100390004B07F00000304C3DF1007008CB007108B5
:0403A000CC00080085
:1003A400952C2000C701C801200000304802031D1D
:1003B400DD2906304702013003180030F1008E18A1
:1003C400E5290314E62903108C1EEC29031CEC29EF
:1003D4007214ED2972100E19F1290314F229031075
:1003E400721CF829031CF8297214F92972100E18CA
:1003F400FD290314FE290310721C042A031C042A79
:100404007214052A7210F0017218F00A7108F005CE
:1004140003190D2AD62920000130A20020008E18CD
:10042400152A0314162A03108C1E1C2A031C1C2ACA
:1004340072141D2A72100E19212A0314222A031081
:10044400721C282A031C282A7214292A72102000DC
:100454000E182E2A03142F2A0310721C352A031C8B
:10046400352A7214362A7210721C392A102AAF2CBB
:1004740020008E16C701C801200000304802031D69
:10048400452A06304702013003180030F1008C1E63
:100494004F2A8E1C4F2A7214502A72100E19542A95
:1004A4000314552A0310721C5B2A031C5B2A721462
:1004B4005C2A72100E18602A0314612A0310721C3D
:1004C400672A031C672A7214682A7210F0017218D2
:1004D400F00A7108F0050319702A3E2A20000E194B
:1004E400752A7214762A72100E187A2A03147B2A3B
:1004F4000310721C812A031C812A7214822A72102E
:10050400721C892A20008E1C892A03148A2A03104B
:10051400031CA72A20000E19912A0314922A0310FF
:100524008E1C982A031C982A7214992A7210721C21
:10053400A72A20000E18A32A0130A2002208CD0009
:10054400A62AA2012208CD008C2AAF2C20000E1965
:10055400AD2A0314AE2A0310031CB52A20000E1C76
:10056400B52A7214B62A7210721CBD2A20008E1C81
:10057400BD2A0314BE2A0310031CDB2A20008E1696
:100584000E19C62A0314C72A03108E1CCD2A031C75
:10059400CD2A7214CE2A7210721CDB2A0E18D72AA6
:1005A4000130A2002208CE00DA2AA2012208CE00DD
:1005B400C22AAF2C2000C701C80120000030480225
:1005C400031DE62A06304702013003180030F1000B
:1005D4008C1AEE2A7214EF2A72108E18F32A03145E
:1005E400F42A0310721CFA2A031CFA2A7214FB2A36
:1005F40072100E19FF2A0314002B0310721C062B11
:10060400031C062B7214072B721020000E180C2BDF
:1006140003140D2B0310721C132B031C132B7214C5
:10062400142B7210F0017218F00A7108F005031906
:100634001C2BDF2A20000130A20020008C1A242B5E
:100644007214252B72108E18292B03142A2B0310D5
:10065400721C302B031C302B7214312B72102000AF
:100664000E19362B0314372B0310721C3D2B031C5D
:100674003D2B72143E2B721020000E18432B0314D2
:10068400442B0310721C4A2B031C4A2B72144B2B51
:100694007210721C4E2B1F2BAF2C2000C701C801F7
:1006A400200000304802031D592B06304702013058
:1006B40003180030F1008C1A612B0314622B031011
:1006C400031C682B8E1C682B7214692B72100E1974
:1006D4006D2B03146E2B0310721C742B031C742BD0
:1006E4007214752B72100E18792B03147A2B0310C5
:1006F400721C802B031C802B7214812B7210F0014E
:100704007218F00A7108F0050319892B522B200086
:100714000E198E2B72148F2B72100E18932B031438
:10072400942B0310721C9A2B031C9A2B72149B2B70
:100734007210721CA22B20008E1CA22B0314A32B5C
:100744000310031CF82B2000C701C8010130A200CC
:100754008E1600304802031DB12B063047020318E1
:10076400B42BAB2B20008C1AB92B0314BA2B031017
:10077400031CC02B8E1CC02B7214C12B72100E19BB
:10078400C52B0314C62B0310721CCC2B031CCC2BBF
:100794007214CD2B721020000E18D22B0314D32BFD
:1007A4000310721CD92B031CD92B7214DA2B721070
:1007B400721CDD2BB42B20000E19E22B0314E32B47
:1007C40003108E1CE92B031CE92B7214EA2B721004
:1007D400721CF82B20000E18F42B0130A200220802
:1007E400CF00F72BA2012208CF00DD2BAF2C200075
:1007F400C701C801200000304802031D032C063045
:100804004702013003180030F1008C1A0B2C03143A
:100814000C2C0310031C122C8E1C122C7214132C7F
:1008240072100E19172C0314182C0310721C1E2C92
:10083400031C1E2C72141F2C7210721C262C2000F8
:100844000E1C262C0314272C0310F0010318F00AA5
:100854007108F00503192F2CFC2B20000E19342CE1
:100864000314352C0310031C3C2C20000E1C3C2CC0
:1008740072143D2C7210721C442C20008E1C442CCB
:100884000314452C0310031C932C2000C701C8013A
:100894008E1600304802031D512C063047020318FF
:1008A400542C4B2C20008C1A592C03145A2C031052
:1008B400031C602C8E1C602C7214612C72100E1997
:1008C400652C0314662C0310721C6C2C031C6C2CFA
:1008D40072146D2C7210721C742C20000E1C742C5B
:1008E4000314752C0310031C782C542C20000E19AF
:1008F4007D2C03147E2C03108E1C842C031C842C4E
:100904007214852C7210721C932C20000E188F2CDC
:100914000130A2002208D000922CA2012208D000AB
:10092400782CAF2CAF2C20004908013A0319D329A5
:100934004908053A03193A2A4908063A0319A82A24
:100944004908093A0319DC2A49080D3A03194F2BBF
:0E09540049080E3A0319F92B942C15200800BF
:10096200E8248720A5204908003C0318B92CD2218D
:06097200C901B32CBB2CEF
:1009D000BF308400843085002930F0000130F10000
:0C09E000223086000030870097210800BC
:02097E00003443
:1009800000340034003400340034003400340034C7
:1009900000340034003400340034003400340034B7
:1009A00000340034003400340034003400340034A7
:1009B0000034003400340034003400340034003497
:0809C00000340034003400345F
:0409C80000340034C3
:0209CC000034F5
:0209CE000134F2
:020000040001F9
:04000E00CC39FF1FCB
:00000001FF
