:02000000022DCF
:1000080070082000A1007108A000803164008B1ED8
:1000180010280B1D1028A0212108F0002008F1004D
:020028000900CD
:0C002A002000CA01A2018E120C11080077
:1000360020004F08F000F101F035F10D2330700774
:10004600F2000030713DF3007208840073088500E9
:100056000008F00001310008F100F00A0319F10A66
:1000660072088600730887007008810071084131A4
:100076008100F4017408123C031C552874084F06CD
:10008600031955287408F000F101F035F10D2330FD
:10009600700786000030713D870081014131810182
:1000A600F40A3D284F08F000F101F035F10D233038
:1000B600700784000030713D85000008F1000131B1
:1000C6000008F2007208003C031D6B2871080A3C08
:1000D60003187D284F08C9004F08F000F101F035DC
:1000E600F10D2330700786000030713D87008101D5
:0600F60041318101080008
:1000FC00173021009500F830200095000B118B165D
:02010C000800E9
:10010E0072302100990020008C0122008C01230006
:10011E008C01203021008C0020008E0123008E01E6
:10012E0022008E01073021008E0020000C118E124D
:0C013E001730210097007E208B1708006E
:10014A002000C9018E18AB280314AC2803108C1E9A
:10015A00B228031CB2287014B32870100E19B728DD
:10016A000314B8280310701CBE28031CBE28701480
:10017A00BF2870100E18C3280314C4280310701C5B
:10018A00CA28031CCA287014CB287010701CD128E6
:10019A000130CF001B2096298C1ED7288E1CD72809
:1001AA007014D82870100E19DC280314DD280310E7
:1001BA00701CE328031CE3287014E42870100E183E
:1001CA00E8280314E9280310701CEF28031CEF2801
:1001DA007014F0287010701CF6280530CF001B2010
:1001EA0096298C1EFC288E1CFC287014FD28701081
:1001FA000E190129031402290310701C0829031C73
:10020A000829701409297010701C0F290E1C0F2957
:10021A00031410290310031C16290630CF001B20D3
:10022A0096298C1A1A2970141B2970108E181F29E6
:10023A00031420290310701C2629031C2629701474
:10024A00272970100E192B2903142C290310701C4E
:10025A003229031C32297014332970100E183729D9
:10026A00031438290310701C3E29031C3E297014FC
:10027A003F297010701C45290930CF001B20962990
:10028A008C1A492903144A290310031C50298E1C6D
:10029A0050297014512970100E1955290314562922
:1002AA000310701C5C29031C5C2970145D297010F2
:1002BA000E186129031462290310701C6829031C93
:1002CA006829701469297010701C6F290D30CF00CD
:1002DA001B2096298C1A7329031474290310031CF2
:1002EA007A298E1C7A2970147B2970100E197F299D
:1002FA00031480290310701C8629031C8629701494
:10030A0087297010701C8D290E1C8D2903148E29C3
:10031A000310031C94290E30CF001B20962911309C
:04032A00C9000800FE
:10032E0012001E00F003031D9729F103031D9729E8
:02033E000800B5
:10034000F830200095000B114C08043C031DAA292D
:100350004B08183C0318C729CB01CC0101304707D3
:10036000F0000030483DF1007008C7007108C80077
:100370002208013A031DC6290130CA064A08013A7B
:10038000031DC4290C15C5290C11C7290C110130F6
:100390004B07F00000304C3DF1007008CB007108B5
:0403A000CC00080085
:1003A400E62C2000C701C801200000304802031DCC
:1003B400DD2906304702013003180030F1008E18A1
:1003C400E5290314E62903108C1EEC29031CEC29EF
:1003D4007214ED2972100E19F1290314F229031075
:1003E400721CF829031CF8297214F92972100E18CA
:1003F400FD290314FE290310721C042A031C042A79
:100404007214052A7210F0017218F00A7108F005CE
:1004140003190D2AD62920008E18122A0314132A30
:1004240003108C1E192A031C192A72141A2A72101A
:100434000E191E2A03141F2A0310721C252A031CDA
:10044400252A7214262A721020000E182B2A03144F
:100454002C2A0310721C322A031C322A7214332AE7
:100464007210721C612A20008E183A2A03143B2A47
:1004740003108C1E412A031C412A7214422A721052
:100484000E19462A0314472A0310721C4D2A031C12
:100494004D2A72144E2A721020000E18532A031487
:1004A400542A0310721C5A2A031C5A2A72145B2AF7
:1004B4007210721C612A20000130A200352A002D1E
:1004C40020008E16C701C801200000304802031D19
:1004D4006D2A06304702013003180030F1008C1EEB
:1004E400772A8E1C772A7214782A72100E197C2AA5
:1004F40003147D2A0310721C832A031C832A72149A
:10050400842A72100E18882A0314892A0310721C74
:100514008F2A031C8F2A7214902A7210F001721809
:10052400F00A7108F0050319982A662A20008C1E27
:100534009F2A8E1C9F2A7214A02A72100E19A42AB4
:100544000314A52A0310721CAB2A031CAB2A7214D1
:10055400AC2A721020000E18B12A0314B22A031018
:10056400721CB82A031CB82A7214B92A7210721C9D
:10057400E22A20008C1EC22A8E1CC22A7214C32AAC
:1005840072100E19C72A0314C82A0310721CCE2A2B
:10059400031CCE2A7214CF2A721020000E18D42AFB
:1005A4000314D52A0310721CDB2A031CDB2A7214E1
:1005B400DC2A7210721CE22A20000130A200BB2A3D
:1005C400002D20008C1EEA2A8E1CEA2A7214EB2AC3
:1005D40072100E19EF2A0314F02A0310721CF62A63
:1005E400031CF62A7214F72A7210721CFE2A2000C9
:1005F4000E1CFE2A0314FF2A0310031C052B2000E3
:100604008E16A201E32A002D2000C701C801200094
:1006140000304802031D102B063047020130031836
:100624000030F1008C1A182B7214192B72108E18CA
:100634001D2B03141E2B0310721C242B031C242BB0
:100644007214252B72100E19292B03142A2B031054
:10065400721C302B031C302B7214312B72102000AF
:100664000E18362B0314372B0310721C3D2B031C5E
:100674003D2B72143E2B7210F0017218F00A7108AF
:10068400F0050319462B092B20008C1A4B2B7214EE
:100694004C2B72108E18502B0314512B0310721C08
:1006A400572B031C572B7214582B721020000E1951
:1006B4005D2B03145E2B0310721C642B031C642B30
:1006C4007214652B721020000E186A2B03146B2B06
:1006D4000310721C712B031C712B7214722B721079
:1006E400721CA62B20008C1A792B72147A2B721090
:1006F4008E187E2B03147F2B0310721C852B031C76
:10070400852B7214862B721020000E198B2B031468
:100714008C2B0310721C922B031C922B7214932BA0
:10072400721020000E18982B0314992B0310721CBE
:100734009F2B031C9F2B7214A02B7210721CA62BD0
:1007440020000130A200742B002D2000C701C80135
:1007540000304802031DB02B063047020130031855
:100764000030F1008C1AB82B0314B92B0310031CAE
:10077400BF2B8E1CBF2B7214C02B72100E19C42BEE
:100784000314C52B0310721CCB2B031CCB2B72142C
:10079400CC2B72100E18D02B0314D12B0310721C07
:1007A400D72B031CD72B7214D82B7210F00172189C
:1007B400F00A7108F0050319F82B200000304802F4
:1007C400031DE62B02304702013003180030F1000C
:1007D4008C1AEE2B0310EF2B0314F0010318F00A0C
:1007E4007108F0050319F72B8E16AA2B2000C701F8
:1007F400C8010130A2008E1600304802031D042CEB
:10080400063047020318072CFE2B20008C1A0C2CF0
:1008140003140D2C0310031C132C8E1C132C7214A4
:10082400142C72100E19182C0314192C0310721C9A
:100834001F2C031C1F2C7214202C72100E18242C35
:100844000314252C0310721C2B2C031C2B2C721448
:100854002C2C7210721C2F2C072C20000E19342CF7
:100864000314352C03108E1C3B2C031C3B2C7214DC
:100874003C2C7210721C4A2C20000E18462C01309D
:10088400A2002208CD00492CA2012208CD002F2C61
:10089400002D2000A201C701C80100304802031D39
:1008A400552C06304702013003180030F1008C1A31
:1008B4005D2C03145E2C0310031C642C8E1C642C0E
:1008C4007214652C72100E19692C03146A2C03100F
:1008D400721C702C031C702C7214712C7210721CFC
:1008E400782C20000E1C782C0314792C0310F001B2
:1008F4000318F00A7108F0050319992C2000003040
:100904004802031D872C02304702013003180030CF
:10091400F1008C1A8F2C0310902C0314F00103188F
:10092400F00A7108F0050319982C8E164F2C20003C
:10093400C701C8018E1600304802031DA32C0630DF
:1009440047020318A62C9D2C20008C1AAB2C0314F0
:10095400AC2C0310031CB22C8E1CB22C7214B32CBE
:1009640072100E19B72C0314B82C0310721CBE2C71
:10097400031CBE2C7214BF2C7210721CC52C0E1CCE
:10098400C52C0314C62C0310031CC92CA62C200050
:100994000E19CE2C0314CF2C03108E1CD52C031C43
:1009A400D52C7214D62C7210721CE42C20000E1854
:1009B400E02C0130A2002208CE00E32CA201220880
:1009C400CE00C92C002D002D20004908013A03193E
:1009D400D3294908053A0319622A4908063A031932
:1009E400E32A4908093A0319062B49080D3A031961
:1009F400A72B49080E3A03194B2CE52C15200800A7
:100A04003A258720A5204908003C03180A2DD22145
:060A1400C901042D0C2DA8
:100A740010308400853085002930F0000130F10009
:0C0A840022308600003087009721080017
:020A20000034A0
:100A22000034003400340034003400340034003424
:100A32000034003400340034003400340034003414
:100A42000034003400340034003400340034003404
:100A520000340034003400340034003400340034F4
:080A62000034003400340034BC
:040A6A000034003420
:020A6E00003452
:020A700001344F
:020000040001F9
:04000E00CC39FF1FCB
:00000001FF
