:020000000F2DC2
:1000080070082000A1007108A000803164008B1ED8
:1000180010280B1D1028A0212108F0002008F1004D
:020028000900CD
:0C002A002000CA01A2018E120C11080077
:1000360020004D08F000F101F035F10D2330700776
:10004600F2000030713DF3007208840073088500E9
:100056000008F00001310008F100F00A0319F10A66
:1000660072088600730887007008810071084131A4
:100076008100F4017408123C031C552874084D06CF
:10008600031955287408F000F101F035F10D2330FD
:10009600700786000030713D870081014131810182
:1000A600F40A3D284D08F000F101F035F10D23303A
:1000B600700784000030713D85000008F1000131B1
:1000C6000008F2007208003C031D6B2871080A3C08
:1000D60003187D284D08C9004D08F000F101F035E0
:1000E600F10D2330700786000030713D87008101D5
:0600F60041318101080008
:1000FC00173021009500F830200095000B118B165D
:02010C000800E9
:10010E0072302100990020008C0122008C01230006
:10011E008C01203021008C0020008E0123008E01E6
:10012E0022008E01073021008E0020000C118E124D
:0C013E001730210097007E208B1708006E
:10014A002000C9018E18AB280314AC2803108C1E9A
:10015A00B228031CB2287014B32870100E19B728DD
:10016A000314B8280310701CBE28031CBE28701480
:10017A00BF2870100E18C3280314C4280310701C5B
:10018A00CA28031CCA287014CB287010701CD128E6
:10019A000130CD001B2096298C1ED7288E1CD7280B
:1001AA007014D82870100E19DC280314DD280310E7
:1001BA00701CE328031CE3287014E42870100E183E
:1001CA00E8280314E9280310701CEF28031CEF2801
:1001DA007014F0287010701CF6280530CD001B2012
:1001EA0096298C1EFC288E1CFC287014FD28701081
:1001FA000E190129031402290310701C0829031C73
:10020A000829701409297010701C0F290E1C0F2957
:10021A00031410290310031C16290630CD001B20D5
:10022A0096298C1A1A2970141B2970108E181F29E6
:10023A00031420290310701C2629031C2629701474
:10024A00272970100E192B2903142C290310701C4E
:10025A003229031C32297014332970100E183729D9
:10026A00031438290310701C3E29031C3E297014FC
:10027A003F297010701C45290930CD001B20962992
:10028A008C1A492903144A290310031C50298E1C6D
:10029A0050297014512970100E1955290314562922
:1002AA000310701C5C29031C5C2970145D297010F2
:1002BA000E186129031462290310701C6829031C93
:1002CA006829701469297010701C6F290D30CD00CF
:1002DA001B2096298C1A7329031474290310031CF2
:1002EA007A298E1C7A2970147B2970100E197F299D
:1002FA00031480290310701C8629031C8629701494
:10030A0087297010701C8D290E1C8D2903148E29C3
:10031A000310031C94290E30CD001B20962911309E
:04032A00C9000800FE
:10032E0012001E00F003031D9729F103031D9729E8
:02033E000800B5
:10034000F830200095000B114C08043C031DAA292D
:100350004B08183C0318C729CB01CC0101304707D3
:10036000F0000030483DF1007008C7007108C80077
:100370002208013A031DC6290130CA064A08013A7B
:10038000031DC4290C15C5290C11C7290C110130F6
:100390004B07F00000304C3DF1007008CB007108B5
:0403A000CC00080085
:1003A400F32C2000C701C801200000304802031DBF
:1003B400DD2906304702013003180030F1008E18A1
:1003C400E5290314E62903108C1EEC29031CEC29EF
:1003D4007214ED2972100E19F1290314F229031075
:1003E400721CF829031CF8297214F92972100E18CA
:1003F400FD290314FE290310721C042A031C042A79
:100404007214052A7210F0017218F00A7108F005CE
:1004140003190D2AD62920008E18122A0314132A30
:1004240003108C1E192A031C192A72141A2A72101A
:100434000E191E2A03141F2A0310721C252A031CDA
:10044400252A7214262A721020000E182B2A03144F
:100454002C2A0310721C322A031C322A7214332AE7
:100464007210721C612A20008E183A2A03143B2A47
:1004740003108C1E412A031C412A7214422A721052
:100484000E19462A0314472A0310721C4D2A031C12
:100494004D2A72144E2A721020000E18532A031487
:1004A400542A0310721C5A2A031C5A2A72145B2AF7
:1004B4007210721C612A20000130A200352A0D2D11
:1004C40020008E16C701C801200000304802031D19
:1004D4006D2A06304702013003180030F1008C1EEB
:1004E400772A8E1C772A7214782A72100E197C2AA5
:1004F40003147D2A0310721C832A031C832A72149A
:10050400842A72100E18882A0314892A0310721C74
:100514008F2A031C8F2A7214902A7210F001721809
:10052400F00A7108F0050319982A662A20008C1E27
:100534009F2A8E1C9F2A7214A02A72100E19A42AB4
:100544000314A52A0310721CAB2A031CAB2A7214D1
:10055400AC2A721020000E18B12A0314B22A031018
:10056400721CB82A031CB82A7214B92A7210721C9D
:10057400E22A20008C1EC22A8E1CC22A7214C32AAC
:1005840072100E19C72A0314C82A0310721CCE2A2B
:10059400031CCE2A7214CF2A721020000E18D42AFB
:1005A4000314D52A0310721CDB2A031CDB2A7214E1
:1005B400DC2A7210721CE22A20000130A200BB2A3D
:1005C4000D2D20008C1EEA2A8E1CEA2A7214EB2AB6
:1005D40072100E19EF2A0314F02A0310721CF62A63
:1005E400031CF62A7214F72A7210721CFE2A2000C9
:1005F4000E1CFE2A0314FF2A0310031C052B2000E3
:100604008E16A201E32A0D2D2000C701C801200087
:1006140000304802031D102B063047020130031836
:100624000030F1008C1A182B7214192B72108E18CA
:100634001D2B03141E2B0310721C242B031C242BB0
:100644007214252B72100E19292B03142A2B031054
:10065400721C302B031C302B7214312B72102000AF
:100664000E18362B0314372B0310721C3D2B031C5E
:100674003D2B72143E2B7210F0017218F00A7108AF
:10068400F0050319462B092B20008C1A4B2B7214EE
:100694004C2B72108E18502B0314512B0310721C08
:1006A400572B031C572B7214582B721020000E1951
:1006B4005D2B03145E2B0310721C642B031C642B30
:1006C4007214652B721020000E186A2B03146B2B06
:1006D4000310721C712B031C712B7214722B721079
:1006E400721CA62B20008C1A792B72147A2B721090
:1006F4008E187E2B03147F2B0310721C852B031C76
:10070400852B7214862B721020000E198B2B031468
:100714008C2B0310721C922B031C922B7214932BA0
:10072400721020000E18982B0314992B0310721CBE
:100734009F2B031C9F2B7214A02B7210721CA62BD0
:1007440020000130A200742B0D2D2000C701C80128
:10075400200000304802031DB12B0630470201304F
:1007640003180030F1008C1AB92B0314BA2B0310B0
:10077400031CC02B8E1CC02B7214C12B72100E19BB
:10078400C52B0314C62B0310721CCC2B031CCC2BBF
:100794007214CD2B72100E18D12B0314D22B03100C
:1007A400721CD82B031CD82B7214D92B7210F00195
:1007B4007218F00A7108F0050319E12BAA2B200026
:1007C4008C1AE62B0314E72B0310031CEE2B2000DA
:1007D4008E1CEE2B7214EF2B721020000E19F42BCA
:1007E4000314F52B0310721CFB2B031CFB2B72143C
:1007F400FC2B721020000E18012C0314022C031081
:10080400721C082C031C082C7214092C7210721C04
:10081400532C2000C701C8010130A2008E160030FD
:100824004802031D172C0630470203181A2C112CFA
:1008340020008C1A1F2C0314202C0310031C262CBC
:100844008E1C262C7214272C72100E192B2C0314B8
:100854002C2C0310721C322C031C322C7214332CDB
:10086400721020000E18382C0314392C0310721C3B
:100874003F2C031C3F2C7214402C7210721C432C0E
:100884001A2C20000E19482C0314492C03108E1C1A
:100894004F2C031C4F2C7214502C7210721C532CAE
:1008A400432C0D2D2000A201C701C80120000030F7
:1008B4004802031D5F2C0630470201300318003044
:1008C400F1008C1A672C0314682C0310031C6E2C83
:1008D4008E1C6E2C72146F2C72100E19732C031450
:1008E400742C0310721C7A2C031C7A2C72147B2C2B
:1008F4007210721C822C20000E1C822C0314832C78
:100904000310F0010318F00A7108F00503198B2C89
:10091400582C20008C1A902C0314912C0310031CC7
:10092400982C20008E1C982C7214992C7210200084
:100934000E199E2C03149F2C0310721CA52C031C4F
:10094400A52C7214A62C7210721CAD2C20000E1C47
:10095400AD2C0314AE2C0310031CF12C2000C70192
:10096400C8018E1600304802031DBA2C0630470217
:100974000318BD2CB42C20008C1AC22C0314C32CD5
:100984000310031CC92C8E1CC92C7214CA2C72109F
:100994000E19CE2C0314CF2C0310721CD52C031C5F
:1009A400D52C7214D62C7210721CDD2C20000E1C57
:1009B400DD2C0314DE2C0310031CE12CBD2C2000C1
:1009C4000E19E62C0314E72C03108E1CED2C031CCB
:1009D400ED2C7214EE2C7210721CF12CE12C0D2DE6
:1009E4000D2D20004908013A0319D3294908053A75
:1009F4000319622A4908063A0319E32A4908093AFD
:100A04000319062B49080D3A0319A72B49080E3A76
:0A0A14000319542CF22C15200800E1
:100A1E0046258720A5204908003C0318172DD22112
:060A2E00C901112D192D74
:100A8C001D308400853085002930F0000130F100E4
:0C0A9C00223086000030870097210800FF
:020A3A00003486
:100A3C00003400340034003400340034003400340A
:100A4C0000340034003400340034003400340034FA
:100A5C0000340034003400340034003400340034EA
:100A6C0000340034003400340034003400340034DA
:080A7C000034003400340034A2
:040A84000034003406
:020A8800003438
:020A8A00013435
:020000040001F9
:04000E00CC39FF1FCB
:00000001FF
