:02000000432C8F
:1000080070082000A2007108A100803164008B1ED6
:1000180010280B1D1028F8232208F0002108F100F1
:020028000900CD
:10002A002000D103D1035108003C03182128D10331
:10003A000000000000001828000000000000000076
:04004A0000000800AA
:10004E007408F8027508031C750FF9027608031C74
:10005E00760FFA027708031C770FFB02F30D0730B9
:10006E00FC00730DF80DF90DFA0DFB0D7408731CE1
:10007E004E28F8027508031C750FF9027608031C4A
:10008E00760FFA027708031C770FFB025B28F8073E
:10009E0075080318750FF90776080318760FFA0717
:1000AE0077080318770FFB07F30DFC0B3828720D3A
:1000BE00F80DF90DFA0DFB0D7408731C7428F80277
:1000CE007508031C750FF9027608031C760FFA02E9
:1000DE007708031C770FFB028128F80775080318B1
:1000EE00750FF90776080318760FFA0777080318C5
:1000FE00770FFB07F20D0730FC00720DF80DF90DAE
:10010E00FA0DFB0D7408721C9A28F8027508031C70
:10011E00750FF9027608031C760FFA027708031C96
:10012E00770FFB02A728F80775080318750FF90754
:10013E0076080318760FFA0777080318770FFB0770
:10014E00F20DFC0B8428710DF80DF90DFA0DFB0D57
:10015E007408721CC028F8027508031C750FF9028A
:10016E007608031C760FFA027708031C770FFB0242
:10017E00CD28F80775080318750FF90776080318C8
:10018E00760FFA0777080318770FFB07F10D073084
:10019E00FC00710DF80DF90DFA0DFB0D7408711CB4
:1001AE00E628F8027508031C750FF9027608031C81
:1001BE00760FFA027708031C770FFB02F328F80775
:1001CE0075080318750FF90776080318760FFA07E6
:1001DE0077080318770FFB07F10DFC0BD028700D75
:1001EE00F80DF90DFA0DFB0D7408711C0C29F802AF
:1001FE007508031C750FF9027608031C760FFA02B8
:10020E007708031C770FFB021929F80775080318E6
:10021E00750FF90776080318760FFA077708031893
:10022E00770FFB07F00D0730FC00700DF80DF90D80
:10023E00FA0DFB0D7408701C3229F8027508031CA8
:10024E00750FF9027608031C760FFA027708031C65
:10025E00770FFB023F29F80775080318750FF9078A
:10026E0076080318760FFA0777080318770FFB073F
:10027E00F00DFC0B1C29701852297408F80775082C
:10028E000318750FF90776080318760FFA07770823
:08029E000318770FFB070800AD
:1002A600FB09FA09F909F809F80A0319F90A031901
:0802B600FA0A0319FB0A080013
:1002BE0020002230FC00F801F901FA01FB01FC03D9
:1002CE00031994290310FB0CFA0CF90CF80CF30C1F
:1002DE00F20CF10CF00C031C6629FC0303198629A1
:1002EE007408F80775080318750FF90776080318D0
:1002FE00760FFA0777080318770FFB076A29740839
:10030E00F80775080318750FF90776080318760FA6
:0C031E00FA0777080318770FFB070800A8
:10032A0001302000D0003608CF0634088400350892
:10033A0085003608003A0319A52931088004A7293F
:10034A00300880053308D1001520CF095008031959
:10035A00C42950084F05F000031DB629310880044E
:10036A00B82930088005D03502303302D100152073
:10037A00000000000000000000000000AB29360861
:10038A00003A0319CB2930088005CD2931088004A9
:08039A003308D1001520080012
:1003A2007408003A031DEA297508003A031DEA2978
:1003B2007608003A031DEA297708003A031DEA2964
:1003C200FF30F000FF30F100FF30F2007F30F30029
:1003D200822A2000FC01F71BFC0AFD01FB01FA0145
:1003E200F901F801730872047104700403197D2A7B
:1003F20073087706A000A01BFD09F71F0B2AF4095A
:10040200F509F609F709F40A0319F50A0319F60AB8
:100412000319F70AF31F182AF009F109F209F3097F
:10042200F00A0319F10A0319F20A0319F30A73080D
:100432007704A000A01B392A2720FC1B562AFD1F87
:100442007D2AF009F109F209F309F00A0319F10A08
:100452000319F20A0319F30AF809F909FA09FB095F
:10046200F80A0319F90A0319FA0A0319FB0A7D2A81
:10047200F71F502AF31B4A2A7308FB007208FA007E
:100482007108F9007008F800F301F201F101F001BE
:10049200202AF301F201F101F001F00A0034F3091C
:1004A200F209F109F009FC171D2AF80A0319F90AE1
:1004B2000319FA0A0319FB0A74087802031D202A99
:1004C20075087902031D202A76087A02031D202A64
:1004D20077087B02031D202AFB01FA01F901F801CA
:1004E200F00A0319F10A0319F20A0319F30AF31FB6
:1004F200202AA0012016FF34A0017C1C812A53214E
:04050200003E0800AF
:0E0506004030F0001F30F100F201F301080058
:10051400173021009500F830200095000B118B1640
:020524000800CD
:1005260020302000CF0095218E1C9C2A5030CF0011
:1005360095210E1DA12A5330CF0095210E1CA62A07
:080546004830CF0095210800A8
:10054E0020003808B4003908B5003A08F000013030
:10055E00F20070080319B62AF235FF3EB12A72086E
:10056E00B2007209AF003B08F1000130F0007108D3
:10057E000319C42AF035FF3EBF2A7008B100F009F6
:10058E007008B0008030380784000030393D850097
:10059E007208800470088005B60140080319D82A35
:1005AE00B609803084023608003A0319E12A300871
:1005BE008005E32A310880048322E830F4000330FA
:1005CE00F500F601F7015F217008CB007108CC0031
:1005DE007208CD007308CE004B08C1004C08C20053
:1005EE004D08C3004E08C4003C08F0003D08F10061
:1005FE003E08F2003F08F300F035F10DF20DF30D59
:10060E00F035F10DF20DF30D0A30F400F501F6019F
:10061E00F7015F217008C5007108C6007208C70097
:10062E007308C8007008F4007108F5007208F6002F
:10063E007308F7004B08F0004C08F1004D08F2006B
:10064E004E08F300D1217008C9007108CA00710864
:10065E00F400F501740875040319382B0230F0000C
:10066E00892B4908B3004508F4004608F5004708F1
:10067E00F6004808F7004108F0004208F100430870
:10068E00F2004408F300D1217808F0007908F10057
:10069E007A08F2007B08F3007008C1007108C200EE
:1006AE007208C3007308C4004508F5004608F6003A
:1006BE004708F7004808F800F837F70CF60CF50C69
:1006CE0080307806F400803073067402031D792B97
:1006DE0072087702031D792B71087602031D792BA0
:1006EE007008750203187C2BB30A3308F100F1363B
:1006FE007108AC00073071020318882B0130F0002E
:06070E00892BF001080038
:0A07140020000E128E12A50108004D
:10071E0020002408023C0318962B9322A4018E1C61
:10072E00AF2B0E1D9D2BA3018E12AE2B2308031D86
:10073E00AE2B0130A30029080319AA2B0630AB00FB
:10074E002B08B700AD2BAB012B08B700A901B32BBB
:10075E000130A9008E12A3010E1DB82BA5010E1299
:10076E00C32B0E1CBD2BA5010E12C32B2508031D7A
:0A077E00C32B0130A500AA010800FA
:1007880072302100990020008C0122008C01230086
:100798008C01203021008C0020008E0123008E0166
:1007A80022008E01073021008E008A231730210095
:1007B80097008A220C30B8000030B9000130BA0026
:1007C800BB018030BC002530BD00BE01BF01C001A7
:0607D800A7228B170800A8
:1007DE0012001E00F003031DEF2BF103031DEF2B80
:0207EE00080001
:1007F000F830200095000B112E08043C031D022C3C
:100800002D08183C0318382CAD01AE010130260725
:10081000F0000030273DF1007008A6007108A70025
:100820002B0AF0007008AB002A0AF0007008AA003A
:10083000240AF0007008A40023080319252C2B08B3
:10084000053C0318252C8E16A3012508013A031D2B
:10085000372C2A08053C0318362C0130A806280836
:10086000013A031D352C0E16362C0E12382C0E12A2
:1008700001302D07F00000302E3DF1007008AD0072
:060880007108AE00080043
:100886005A24C4232030CF0095215230CF00952121
:060896008F234B2C4D2CBA
:1008B40051308400843085000930F0000130F100AB
:0C08C4002330860000308700EF2308007E
:0208A200003420
:0208A40000341E
:0208A60000341C
:0408A80000340034E4
:0208AC00013415
:0208AE00013413
:0208B000003412
:0208B200003410
:020000040001F9
:04000E00CC39FF1FCB
:00000001FF
