:060000000A128A11AC2F68
:100F580083010A128A11E02F8316111483128C1D43
:100F6800B22F8C1108008316111583128C1DB92F0E
:100F78008C110800F000700893008C1DC12F8C1193
:100F8800080083169112111683128C1DC82F8C111C
:100F980008008316911583128C1DCF2F8C1113080E
:100FA80008008316313007168715930080309400A7
:100FB80028308312940008000A128A11D5270A12D1
:100FC8008A110A128A11B0270A128A11A0300A124D
:100FD8008A11BE270A128A110A128A11CD270A120B
:100FE8008A110A128A11C5270A128A110A128A114D
:080FF800B7270A128A11FF2F2E
:02400E0072FF3F
:00000001FF
