:020000009B2A39
:1000060083160313141911281F301105F100710806
:10001600003A031D11280130F0001228F0010800F3
:0E002600831203132C088A002B0882000800A6
:10003400831203137008F100F0010830FC0071080A
:10004400F40C03182928FC0B2228F10100340310B6
:100054002E28F40C0318F107F10CF00CFC0B2B28E0
:02006400080092
:080066008316031311150800B5
:10006E00831203132608CB002708CC002808CD00E6
:10007E002908CE008C118316911583128C196B28CA
:10008E00260827042804290403196A284B084C045F
:10009E004D044E04031D6028320884000330800096
:1000AE00840A3008AB003108AC0013208A110A1202
:1000BE006B28013083120313CB02031CCC02031CEA
:1000CE00CD02031CCE024428831203131308CA0068
:1000DE002108003A031D7628831691167828831678
:1000EE00911283128C118316111683122608CB00DF
:1000FE002708CC002808CD002908CE008C19AB2883
:10010E0026082704280429040319AA284B084C049E
:10011E004D044E04031DA0283208840003308000D5
:10012E00840A3008AB003108AC0013208A110A1281
:10013E00AB28013083120313CB02031CCC02031C29
:10014E00CD02031CCE028528831203134A08F00049
:02015E00080097
:10016000831203138C11200893002608CA00270865
:10017000CB002808CC002908CD008316141DE728E1
:10018000831226082704280429040319E6284A08AC
:100190004B044C044D04031DDE2832088400043057
:1001A0008000840A3008AB003108AC0013208A11AB
:1001B0000A12013083120313F00020290130CA0211
:1001C000031CCB02031CCC02031CCD02BD288312EE
:1001D0002608CA002708CB002808CC002908CD0033
:1001E0008C1918292608270428042904031917291B
:1001F0004A084B044C044D04031D0F2932088400A7
:1002000004308000840A3008AB003108AC001320B1
:100210008A110A12013083120313F00020290130E1
:10022000CA02031CCB02031CCC02031CCD02F02823
:100230008316111B1D29F001202911150230F00031
:020240000800B4
:10024200831203132608CC002708CD002808CE000D
:100252002908CF00CA01CB014B08123C031D3329E8
:100262004A088E3C031C3F290320700803193A29CF
:100272003F298312CA0A0319CB0A2D29831212308D
:100282004B02031D46298F304A02031C4B297B3047
:10029200F0007829831611148316111C7729831212
:1002A2002608270428042904031976294C084D043A
:1002B2004E044F04031D6E2932088400053080006D
:1002C200840A3008AB003108AC0013208A110A12EC
:1002D200013083120313F00078290130CC02031C91
:1002E200CD02031CCE02031CCF024D29F0010800EF
:1002F200831203132608CA002708CB002808CC0063
:100302002908CD00831691148316911CAD298312FE
:1003120026082704280429040319AC294A084B0497
:100322004C044D04031DA2293208840006308000CB
:10033200840A3008AB003108AC0013208A110A127B
:10034200AD29013083120313CA02031CCB02031C22
:0A035200CC02031CCD02852908002F
:10035C00831203134608F000F00CF013F00CF013AA
:10036C00F00CF013F00CF0130A30F4001A200F30DC
:0A037C004605F1007108F0070800C3
:1003860083120313C9012121073083120313F200DC
:100396004708F0004808F10072080319D729F10C44
:1003A600F00CF113FF3ED0290E30F005700846041C
:1003B600A000B020FF30831203134705A000B02031
:1003C60079210130831203134604A000B020831262
:1003D6000313A10137207008C9003320831249088E
:0403E600F00008001B
:0E03EA00831203132C088A002B0882000800DF
:1003F800831203132508A4002308AA00D030C600DE
:100408000130C7000030C800C3217008C600AE2103
:100418007008A3001A30FC00F830FD00FD0B122A0A
:10042800FC0B122A0000D030C6000230C700003092
:10043800C800C3217008C600AE217008A5001A3094
:10044800FC00F830FD00FD0B272AFC0B272A0000D2
:0204580008009A
:10045A002121073083120313F2004308F0004408F5
:10046A00F100720803193E2AF10CF00CF113FF3E59
:10047A00372A0E30F00570084204A000B020FF3081
:10048A00831203134305A000B02083120313450807
:10049A00A000B02033201A30FC00F830FD00FD0B1C
:0A04AA00542AFC0B542A000008003D
:1004B400F5218A110A128000840AAB0A0319AC0AD6
:0804C400F003031D5A2A080091
:1004CC00033083120313AD000030AE000030AF00D8
:1004DC0000302130B6000130B7000030B8000030D9
:1004EC007930B3000130B4000030B5000030373043
:1004FC00BF000030C0002130C1000030B030BC0063
:10050C000030BD002030BE0000303330B900003068
:10051C00BA000030BB000030831614139413071676
:0A052C008715383083129400080090
:10053600EA228316031788018901143003139300F6
:1005460066220B30FB002630FC005D30FD00FD0B03
:10055600AA2AFC0BAA2AFB0BAA2A00000000D0300C
:10056600C200C301C401C5012D22FC2122083C3C66
:10057600031CC62A23083C3C031CC62A2508183C33
:10058600031CC62AC92AA201A301A501FC2122082F
:100596003C3C031CD72A23083C3C031CD72A2508CD
:1005A600183C031CD72ADA2AA201A301A501C92AED
:0205B600DB2A3E
:1005D40022308400093083120313F000E130AB00B1
:0805E4000230AC005A220800AD
:0205C200003403
:0205C400003401
:0205C6000034FF
:0205C8000034FD
:0805CA00003400340034003459
:0205D2000034F3
:04400E00F22F000786
:00000001FF
