:020000006F2B64
:1000080070082000A1007108A00080318B1E102804
:100018000B1D1028122310282108F0002008F100D9
:020028000900CD
:10002A0020003908013A031D1B280C153908003A2B
:08003A00031D20280C11080031
:0800420020003F0895000800B2
:10004A00C03021001505F000173070049500F83013
:0E005A0020009500F830BF000B118B16080037
:100068002630F1000030F20020004008F1070318A4
:10007800F20A71088400720885000008F000F00A8E
:10008800710886007208870070088100F301730800
:10009800103C031C5E287308400603195E282630AE
:1000A800860000308700730886070318870A8101D5
:1000B800F30A4B2826308400003085004008840766
:1000C8000318850A0008F10071080A3C031877280C
:1000D8004008B600263086000030870040088607B2
:0800E8000318870A81010800DA
:1000F0002000B6018E1D80280E1D80280314812843
:100100000310031C87288E1C872870148828701001
:10011000701C8E280E1C8E2803148F280310031CBD
:1001200095280130C0003420582A8E1D9B280E1DB2
:100130009B2803149C280310031CA2288E1CA228B1
:100140007014A32870100E18A7280314A8280310F1
:10015000701CAE28031CAE287014AF287010701CE1
:10016000B5280230C0003420582A0E19B9280314CB
:10017000BA2803108E1DC028031CC0287014C12883
:100180007010701CC7288E1CC7280314C8280310C1
:10019000031CCE280E1CCE287014CF287010701CA3
:1001A000D5280330C0003420582A0E19D92803144A
:1001B000DA2803108E1DE028031CE0287014E128C3
:1001C0007010701CE7288E1CE7287014E828701047
:1001D0000E18EC280314ED280310701CF328031CE0
:1001E000F3287014F4287010701CFA280430C00032
:1001F0003420582A8E1D00290E1D00297014012953
:1002000070108E180529031406290310701C0C2980
:10021000031C0C2970140D297010701C13290E1C5E
:100220001329031414290310031C1A290530C000D4
:100230003420582A8E1D20290E1D202970142129B2
:1002400070108E182529031426290310701C2C29E0
:10025000031C2C2970142D2970100E183129031439
:1002600032290310701C3829031C382970143929CD
:100270007010701C3F290630C0003420582A0E1917
:1002800043290314442903108E1D4A29031C4A29BB
:1002900070144B2970108E184F2903145029031025
:1002A000701C5629031C5629701457297010701C95
:1002B0005D290E1C5D2903145E290310031C6429AB
:1002C0000730C0003420582A0E1968290314692900
:1002D00003108E1D6F29031C6F2970147029701074
:1002E0008E187429031475290310701C7B29031CB4
:1002F0007B2970147C2970100E1880290314812921
:100300000310701C8729031C87297014882970101A
:10031000701C8E290830C0003420582A8E1992296A
:10032000031493290310031C99290E1D9929701495
:100330009A2970108E189E2903149F290310701C8F
:10034000A529031CA5297014A6297010701CAC29BE
:100350000E1CAC290314AD290310031CB32909306A
:10036000C0003420582A8E19B7290314B829031065
:10037000031CBE290E1DBE297014BF2970108E18D3
:10038000C3290314C4290310701CCA29031CCA29D9
:100390007014CB2970100E18CF290314D029031024
:1003A000701CD629031CD6297014D7297010701C14
:1003B000DD290A30C0003420582A8E19E129701432
:1003C000E22970100E19E6290314E7290310701CA6
:1003D000ED29031CED297014EE2970108E18F229F6
:1003E0000314F3290310701CF929031CF929701454
:1003F000FA297010701C002A0E1C002A0314012A0E
:100400000310031C072A0B30C0003420582A8E1911
:100410000B2A70140C2A70100E19102A0314112ABA
:100420000310701C172A031C172A7014182A701046
:100430008E181C2A03141D2A0310701C232A031C67
:10044000232A7014242A70100E18282A0314292A2B
:100450000310701C2F2A031C2F2A7014302A7010CE
:10046000701C362A0C30C0003420582A8E193A2AC3
:1004700003143B2A0310031C412A0E1D412A701449
:10048000422A7010701C482A8E1C482A0314492ADC
:100490000310031C4F2A0E1C4F2A7014502A701090
:1004A000701C562A0D30C0003420582A0E30B60079
:0404B00064000800DC
:1004B40020003608013A0319702A3608023A031953
:1004C400702A3608033A0319702A3608043A0319C5
:1004D400702A3608053A0319702A732A0130A300DA
:1004E400742AA3013608063A0319912A3608073AF2
:1004F4000319912A3608083A0319912A3608093A49
:100504000319912A36080A3A0319912A36080B3A34
:100514000319912A36080C3A0319912A932A0E16C4
:10052400942A0E123608023A031DC72AB701B801ED
:100534008E1600303802031DA12A06303702031834
:10054400A42A9B2A8E120130BA008E1DAD2A0E1DDC
:10055400AD2A0314AE2A0310031CB42A8E1CB42A39
:100564007114B52A71100E18B92A0314BA2A03108B
:10057400711CC02A031CC02A7114C12A7110711C79
:10058400C52A6400A72AA301002B3608063A031DD6
:10059400FF2AB701B8018E1600303802031DD42A91
:1005A400063037020318D72ACE2A8E120130BA0039
:1005B4008E1DE02A0E1DE02A7114E12A71108E1896
:1005C400E52A0314E62A0310711CEC2A031CEC2A06
:1005D4007114ED2A71100E18F12A0314F22A031073
:1005E400711CF82A031CF82A7114F92A7110711C61
:1005F400FD2A6400DA2AA301002B8E1236080E3A73
:0E060400031D082BA3010E128E120C1108000C
:1006120012001E00F003031D092BF103031D092B19
:020622000800CE
:1006240021200B1164003C08043C031D1B2B3B08D8
:10063400183C0318292BBB01BC0101303707F0001B
:100644000030383DF1007008B7007108B8003E086A
:10065400023C031D2F2B3D08003C03183C2BBD011D
:10066400BE012308013A031D3B2B0130B9061520B6
:100674003C2B0C1101303B07F00000303C3DF100F5
:100684007008BB007108BC0001303D07F000003069
:0E0694003E3DF1007008BD007108BE00080078
:1006A20072302100990020008C0122008C0123006D
:1006B2008C01203021008C0020008E0123008E014D
:1006C20022008E010F3021008E0020000C118E12AC
:0C06D20017302100970025208B1708002E
:1006DE009C235123A401A50178203608003C031861
:1006EE007B2B3608A2005A22B6016400732B7E2B98
:1007380082308400833085001930F0000130F100E8
:0C074800223086000030870009230800E2
:020704000034BF
:020706000034BD
:040708000034003485
:10070C00003400340034003400340034003400343D
:10071C00003400340034003400340034003400342D
:02072C00003497
:04072E00003400345F
:02073200013490
:0207340000348F
:020000040001F9
:04000E00E43FFF1FAD
:00000001FF
